{
	"UniswapV2_Chinese-master/v2-periphery/contracts/examples/ExampleComputeLiquidityValue.sol": {
		"ExampleComputeLiquidityValue": {
			"abi": [
				{
					"inputs": [
						{
							"internalType": "address",
							"name": "factory_",
							"type": "address"
						}
					],
					"stateMutability": "nonpayable",
					"type": "constructor"
				},
				{
					"inputs": [
						{
							"internalType": "uint256",
							"name": "truePriceTokenA",
							"type": "uint256"
						},
						{
							"internalType": "uint256",
							"name": "truePriceTokenB",
							"type": "uint256"
						},
						{
							"internalType": "uint256",
							"name": "reserveA",
							"type": "uint256"
						},
						{
							"internalType": "uint256",
							"name": "reserveB",
							"type": "uint256"
						}
					],
					"name": "computeProfitMaximizingTrade",
					"outputs": [
						{
							"internalType": "bool",
							"name": "aToB",
							"type": "bool"
						},
						{
							"internalType": "uint256",
							"name": "amountIn",
							"type": "uint256"
						}
					],
					"stateMutability": "pure",
					"type": "function"
				},
				{
					"inputs": [
						{
							"internalType": "uint256",
							"name": "truePriceTokenA",
							"type": "uint256"
						},
						{
							"internalType": "uint256",
							"name": "truePriceTokenB",
							"type": "uint256"
						},
						{
							"internalType": "uint256",
							"name": "reserveA",
							"type": "uint256"
						},
						{
							"internalType": "uint256",
							"name": "reserveB",
							"type": "uint256"
						}
					],
					"name": "computeProfitMaximizingTrade2",
					"outputs": [
						{
							"internalType": "bool",
							"name": "aToB",
							"type": "bool"
						},
						{
							"internalType": "uint256",
							"name": "amountIn",
							"type": "uint256"
						}
					],
					"stateMutability": "pure",
					"type": "function"
				},
				{
					"inputs": [],
					"name": "factory",
					"outputs": [
						{
							"internalType": "address",
							"name": "",
							"type": "address"
						}
					],
					"stateMutability": "view",
					"type": "function"
				},
				{
					"inputs": [
						{
							"internalType": "address",
							"name": "tokenA",
							"type": "address"
						},
						{
							"internalType": "address",
							"name": "tokenB",
							"type": "address"
						},
						{
							"internalType": "uint256",
							"name": "truePriceTokenA",
							"type": "uint256"
						},
						{
							"internalType": "uint256",
							"name": "truePriceTokenB",
							"type": "uint256"
						},
						{
							"internalType": "uint256",
							"name": "liquidityAmount",
							"type": "uint256"
						}
					],
					"name": "getGasCostOfGetLiquidityValueAfterArbitrageToPrice",
					"outputs": [
						{
							"internalType": "uint256",
							"name": "",
							"type": "uint256"
						}
					],
					"stateMutability": "view",
					"type": "function"
				},
				{
					"inputs": [
						{
							"internalType": "address",
							"name": "tokenA",
							"type": "address"
						},
						{
							"internalType": "address",
							"name": "tokenB",
							"type": "address"
						},
						{
							"internalType": "uint256",
							"name": "liquidityAmount",
							"type": "uint256"
						}
					],
					"name": "getLiquidityValue",
					"outputs": [
						{
							"internalType": "uint256",
							"name": "tokenAAmount",
							"type": "uint256"
						},
						{
							"internalType": "uint256",
							"name": "tokenBAmount",
							"type": "uint256"
						}
					],
					"stateMutability": "view",
					"type": "function"
				},
				{
					"inputs": [
						{
							"internalType": "address",
							"name": "tokenA",
							"type": "address"
						},
						{
							"internalType": "address",
							"name": "tokenB",
							"type": "address"
						},
						{
							"internalType": "uint256",
							"name": "truePriceTokenA",
							"type": "uint256"
						},
						{
							"internalType": "uint256",
							"name": "truePriceTokenB",
							"type": "uint256"
						},
						{
							"internalType": "uint256",
							"name": "liquidityAmount",
							"type": "uint256"
						}
					],
					"name": "getLiquidityValueAfterArbitrageToPrice",
					"outputs": [
						{
							"internalType": "uint256",
							"name": "tokenAAmount",
							"type": "uint256"
						},
						{
							"internalType": "uint256",
							"name": "tokenBAmount",
							"type": "uint256"
						}
					],
					"stateMutability": "view",
					"type": "function"
				},
				{
					"inputs": [
						{
							"internalType": "uint256",
							"name": "truePriceTokenA",
							"type": "uint256"
						},
						{
							"internalType": "uint256",
							"name": "truePriceTokenB",
							"type": "uint256"
						},
						{
							"internalType": "uint256",
							"name": "reserveA",
							"type": "uint256"
						},
						{
							"internalType": "uint256",
							"name": "reserveB",
							"type": "uint256"
						}
					],
					"name": "getReservesAfterArbitrage",
					"outputs": [
						{
							"internalType": "uint256",
							"name": "_reserveA",
							"type": "uint256"
						},
						{
							"internalType": "uint256",
							"name": "_reserveB",
							"type": "uint256"
						}
					],
					"stateMutability": "pure",
					"type": "function"
				},
				{
					"inputs": [
						{
							"internalType": "uint256",
							"name": "truePriceTokenA",
							"type": "uint256"
						},
						{
							"internalType": "uint256",
							"name": "truePriceTokenB",
							"type": "uint256"
						},
						{
							"internalType": "uint256",
							"name": "reserveA",
							"type": "uint256"
						},
						{
							"internalType": "uint256",
							"name": "reserveB",
							"type": "uint256"
						}
					],
					"name": "getReservesAfterArbitrage2",
					"outputs": [
						{
							"internalType": "uint256",
							"name": "_reserveA",
							"type": "uint256"
						},
						{
							"internalType": "uint256",
							"name": "_reserveB",
							"type": "uint256"
						}
					],
					"stateMutability": "pure",
					"type": "function"
				}
			],
			"devdoc": {
				"methods": {}
			},
			"evm": {
				"assembly": "    /* \"UniswapV2_Chinese-master/v2-periphery/contracts/examples/ExampleComputeLiquidityValue.sol\":159:6040  contract ExampleComputeLiquidityValue {... */\n  mstore(0x40, 0xa0)\n    /* \"UniswapV2_Chinese-master/v2-periphery/contracts/examples/ExampleComputeLiquidityValue.sol\":275:347  constructor(address factory_) public {... */\n  callvalue\n    /* \"--CODEGEN--\":5:14   */\n  dup1\n    /* \"--CODEGEN--\":2:4   */\n  iszero\n  tag_1\n  jumpi\n    /* \"--CODEGEN--\":27:28   */\n  0x00\n    /* \"--CODEGEN--\":24:25   */\n  dup1\n    /* \"--CODEGEN--\":17:29   */\n  revert\n    /* \"--CODEGEN--\":2:4   */\ntag_1:\n    /* \"UniswapV2_Chinese-master/v2-periphery/contracts/examples/ExampleComputeLiquidityValue.sol\":275:347  constructor(address factory_) public {... */\n  pop\n  mload(0x40)\n  sub(codesize, bytecodeSize)\n  dup1\n  bytecodeSize\n  dup4\n  codecopy\n  dup2\n  dup2\n  add\n  0x40\n  mstore\n    /* \"--CODEGEN--\":15:17   */\n  0x20\n    /* \"--CODEGEN--\":10:13   */\n  dup2\n    /* \"--CODEGEN--\":7:18   */\n  lt\n    /* \"--CODEGEN--\":4:6   */\n  iszero\n  tag_2\n  jumpi\n    /* \"--CODEGEN--\":31:32   */\n  0x00\n    /* \"--CODEGEN--\":28:29   */\n  dup1\n    /* \"--CODEGEN--\":21:33   */\n  revert\n    /* \"--CODEGEN--\":4:6   */\ntag_2:\n  pop\n    /* \"UniswapV2_Chinese-master/v2-periphery/contracts/examples/ExampleComputeLiquidityValue.sol\":275:347  constructor(address factory_) public {... */\n  mload\n    /* \"UniswapV2_Chinese-master/v2-periphery/contracts/examples/ExampleComputeLiquidityValue.sol\":322:340  factory = factory_ */\n  0x60\n  dup2\n  swap1\n  shl\n  not(sub(shl(0x60, 0x01), 0x01))\n  and\n  0x80\n  mstore\n  sub(shl(0xa0, 0x01), 0x01)\n    /* \"UniswapV2_Chinese-master/v2-periphery/contracts/examples/ExampleComputeLiquidityValue.sol\":159:6040  contract ExampleComputeLiquidityValue {... */\n  and\n  codecopy(0x00, dataOffset(sub_0), dataSize(sub_0))\n  assignImmutable(\"0x9c2c9f4d8409fa4d6fe2a06869e9740854d67207dd241ab564cc1f1f3dcdc081\")\n  return(0x00, dataSize(sub_0))\nstop\n\nsub_0: assembly {\n        /* \"UniswapV2_Chinese-master/v2-periphery/contracts/examples/ExampleComputeLiquidityValue.sol\":159:6040  contract ExampleComputeLiquidityValue {... */\n      mstore(0x40, 0x80)\n      callvalue\n        /* \"--CODEGEN--\":5:14   */\n      dup1\n        /* \"--CODEGEN--\":2:4   */\n      iszero\n      tag_1\n      jumpi\n        /* \"--CODEGEN--\":27:28   */\n      0x00\n        /* \"--CODEGEN--\":24:25   */\n      dup1\n        /* \"--CODEGEN--\":17:29   */\n      revert\n        /* \"--CODEGEN--\":2:4   */\n    tag_1:\n        /* \"UniswapV2_Chinese-master/v2-periphery/contracts/examples/ExampleComputeLiquidityValue.sol\":159:6040  contract ExampleComputeLiquidityValue {... */\n      pop\n      jumpi(tag_2, lt(calldatasize, 0x04))\n      shr(0xe0, calldataload(0x00))\n      dup1\n      0xd9b7a6e7\n      gt\n      tag_11\n      jumpi\n      dup1\n      0xd9b7a6e7\n      eq\n      tag_7\n      jumpi\n      dup1\n      0xf2800caf\n      eq\n      tag_8\n      jumpi\n      dup1\n      0xf416f939\n      eq\n      tag_9\n      jumpi\n      dup1\n      0xfa653154\n      eq\n      tag_10\n      jumpi\n      jump(tag_2)\n    tag_11:\n      dup1\n      0x52948801\n      eq\n      tag_3\n      jumpi\n      dup1\n      0x69a2fcbd\n      eq\n      tag_4\n      jumpi\n      dup1\n      0x80caa353\n      eq\n      tag_5\n      jumpi\n      dup1\n      0xc45a0155\n      eq\n      tag_6\n      jumpi\n    tag_2:\n        /* \"--CODEGEN--\":12:13   */\n      0x00\n        /* \"--CODEGEN--\":9:10   */\n      dup1\n        /* \"--CODEGEN--\":2:14   */\n      revert\n        /* \"UniswapV2_Chinese-master/v2-periphery/contracts/examples/ExampleComputeLiquidityValue.sol\":1759:3011  function getReservesAfterArbitrage(... */\n    tag_3:\n      tag_12\n      0x04\n      dup1\n      calldatasize\n      sub\n        /* \"--CODEGEN--\":15:18   */\n      0x80\n        /* \"--CODEGEN--\":10:13   */\n      dup2\n        /* \"--CODEGEN--\":7:19   */\n      lt\n        /* \"--CODEGEN--\":4:6   */\n      iszero\n      tag_13\n      jumpi\n        /* \"--CODEGEN--\":32:33   */\n      0x00\n        /* \"--CODEGEN--\":29:30   */\n      dup1\n        /* \"--CODEGEN--\":22:34   */\n      revert\n        /* \"--CODEGEN--\":4:6   */\n    tag_13:\n      pop\n        /* \"UniswapV2_Chinese-master/v2-periphery/contracts/examples/ExampleComputeLiquidityValue.sol\":1759:3011  function getReservesAfterArbitrage(... */\n      dup1\n      calldataload\n      swap1\n      0x20\n      dup2\n      add\n      calldataload\n      swap1\n      0x40\n      dup2\n      add\n      calldataload\n      swap1\n      0x60\n      add\n      calldataload\n      tag_14\n      jump\t// in\n    tag_12:\n      0x40\n      dup1\n      mload\n      swap3\n      dup4\n      mstore\n      0x20\n      dup4\n      add\n      swap2\n      swap1\n      swap2\n      mstore\n      dup1\n      mload\n      swap2\n      dup3\n      swap1\n      sub\n      add\n      swap1\n      return\n        /* \"UniswapV2_Chinese-master/v2-periphery/contracts/examples/ExampleComputeLiquidityValue.sol\":4815:5355  function getLiquidityValueAfterArbitrageToPrice(... */\n    tag_4:\n      tag_12\n      0x04\n      dup1\n      calldatasize\n      sub\n        /* \"--CODEGEN--\":15:18   */\n      0xa0\n        /* \"--CODEGEN--\":10:13   */\n      dup2\n        /* \"--CODEGEN--\":7:19   */\n      lt\n        /* \"--CODEGEN--\":4:6   */\n      iszero\n      tag_16\n      jumpi\n        /* \"--CODEGEN--\":32:33   */\n      0x00\n        /* \"--CODEGEN--\":29:30   */\n      dup1\n        /* \"--CODEGEN--\":22:34   */\n      revert\n        /* \"--CODEGEN--\":4:6   */\n    tag_16:\n      pop\n      sub(shl(0xa0, 0x01), 0x01)\n        /* \"UniswapV2_Chinese-master/v2-periphery/contracts/examples/ExampleComputeLiquidityValue.sol\":4815:5355  function getLiquidityValueAfterArbitrageToPrice(... */\n      dup2\n      calldataload\n      dup2\n      and\n      swap2\n      0x20\n      dup2\n      add\n      calldataload\n      swap1\n      swap2\n      and\n      swap1\n      0x40\n      dup2\n      add\n      calldataload\n      swap1\n      0x60\n      dup2\n      add\n      calldataload\n      swap1\n      0x80\n      add\n      calldataload\n      tag_17\n      jump\t// in\n        /* \"UniswapV2_Chinese-master/v2-periphery/contracts/examples/ExampleComputeLiquidityValue.sol\":5428:6038  function getGasCostOfGetLiquidityValueAfterArbitrageToPrice(... */\n    tag_5:\n      tag_18\n      0x04\n      dup1\n      calldatasize\n      sub\n        /* \"--CODEGEN--\":15:18   */\n      0xa0\n        /* \"--CODEGEN--\":10:13   */\n      dup2\n        /* \"--CODEGEN--\":7:19   */\n      lt\n        /* \"--CODEGEN--\":4:6   */\n      iszero\n      tag_19\n      jumpi\n        /* \"--CODEGEN--\":32:33   */\n      0x00\n        /* \"--CODEGEN--\":29:30   */\n      dup1\n        /* \"--CODEGEN--\":22:34   */\n      revert\n        /* \"--CODEGEN--\":4:6   */\n    tag_19:\n      pop\n      sub(shl(0xa0, 0x01), 0x01)\n        /* \"UniswapV2_Chinese-master/v2-periphery/contracts/examples/ExampleComputeLiquidityValue.sol\":5428:6038  function getGasCostOfGetLiquidityValueAfterArbitrageToPrice(... */\n      dup2\n      calldataload\n      dup2\n      and\n      swap2\n      0x20\n      dup2\n      add\n      calldataload\n      swap1\n      swap2\n      and\n      swap1\n      0x40\n      dup2\n      add\n      calldataload\n      swap1\n      0x60\n      dup2\n      add\n      calldataload\n      swap1\n      0x80\n      add\n      calldataload\n      tag_20\n      jump\t// in\n    tag_18:\n      0x40\n      dup1\n      mload\n      swap2\n      dup3\n      mstore\n      mload\n      swap1\n      dup2\n      swap1\n      sub\n      0x20\n      add\n      swap1\n      return\n        /* \"UniswapV2_Chinese-master/v2-periphery/contracts/examples/ExampleComputeLiquidityValue.sol\":236:268  address public immutable factory */\n    tag_6:\n      tag_21\n      tag_22\n      jump\t// in\n    tag_21:\n      0x40\n      dup1\n      mload\n      sub(shl(0xa0, 0x01), 0x01)\n      swap1\n      swap3\n      and\n      dup3\n      mstore\n      mload\n      swap1\n      dup2\n      swap1\n      sub\n      0x20\n      add\n      swap1\n      return\n        /* \"UniswapV2_Chinese-master/v2-periphery/contracts/examples/ExampleComputeLiquidityValue.sol\":4355:4729  function getLiquidityValue(... */\n    tag_7:\n      tag_12\n      0x04\n      dup1\n      calldatasize\n      sub\n        /* \"--CODEGEN--\":15:17   */\n      0x60\n        /* \"--CODEGEN--\":10:13   */\n      dup2\n        /* \"--CODEGEN--\":7:18   */\n      lt\n        /* \"--CODEGEN--\":4:6   */\n      iszero\n      tag_24\n      jumpi\n        /* \"--CODEGEN--\":31:32   */\n      0x00\n        /* \"--CODEGEN--\":28:29   */\n      dup1\n        /* \"--CODEGEN--\":21:33   */\n      revert\n        /* \"--CODEGEN--\":4:6   */\n    tag_24:\n      pop\n      sub(shl(0xa0, 0x01), 0x01)\n        /* \"UniswapV2_Chinese-master/v2-periphery/contracts/examples/ExampleComputeLiquidityValue.sol\":4355:4729  function getLiquidityValue(... */\n      dup2\n      calldataload\n      dup2\n      and\n      swap2\n      0x20\n      dup2\n      add\n      calldataload\n      swap1\n      swap2\n      and\n      swap1\n      0x40\n      add\n      calldataload\n      tag_25\n      jump\t// in\n        /* \"UniswapV2_Chinese-master/v2-periphery/contracts/examples/ExampleComputeLiquidityValue.sol\":1311:1723  function computeProfitMaximizingTrade2(... */\n    tag_8:\n      tag_26\n      0x04\n      dup1\n      calldatasize\n      sub\n        /* \"--CODEGEN--\":15:18   */\n      0x80\n        /* \"--CODEGEN--\":10:13   */\n      dup2\n        /* \"--CODEGEN--\":7:19   */\n      lt\n        /* \"--CODEGEN--\":4:6   */\n      iszero\n      tag_27\n      jumpi\n        /* \"--CODEGEN--\":32:33   */\n      0x00\n        /* \"--CODEGEN--\":29:30   */\n      dup1\n        /* \"--CODEGEN--\":22:34   */\n      revert\n        /* \"--CODEGEN--\":4:6   */\n    tag_27:\n      pop\n        /* \"UniswapV2_Chinese-master/v2-periphery/contracts/examples/ExampleComputeLiquidityValue.sol\":1311:1723  function computeProfitMaximizingTrade2(... */\n      dup1\n      calldataload\n      swap1\n      0x20\n      dup2\n      add\n      calldataload\n      swap1\n      0x40\n      dup2\n      add\n      calldataload\n      swap1\n      0x60\n      add\n      calldataload\n      tag_28\n      jump\t// in\n    tag_26:\n      0x40\n      dup1\n      mload\n      swap3\n      iszero\n      iszero\n      dup4\n      mstore\n      0x20\n      dup4\n      add\n      swap2\n      swap1\n      swap2\n      mstore\n      dup1\n      mload\n      swap2\n      dup3\n      swap1\n      sub\n      add\n      swap1\n      return\n        /* \"UniswapV2_Chinese-master/v2-periphery/contracts/examples/ExampleComputeLiquidityValue.sol\":3032:4288  function getReservesAfterArbitrage2(... */\n    tag_9:\n      tag_12\n      0x04\n      dup1\n      calldatasize\n      sub\n        /* \"--CODEGEN--\":15:18   */\n      0x80\n        /* \"--CODEGEN--\":10:13   */\n      dup2\n        /* \"--CODEGEN--\":7:19   */\n      lt\n        /* \"--CODEGEN--\":4:6   */\n      iszero\n      tag_30\n      jumpi\n        /* \"--CODEGEN--\":32:33   */\n      0x00\n        /* \"--CODEGEN--\":29:30   */\n      dup1\n        /* \"--CODEGEN--\":22:34   */\n      revert\n        /* \"--CODEGEN--\":4:6   */\n    tag_30:\n      pop\n        /* \"UniswapV2_Chinese-master/v2-periphery/contracts/examples/ExampleComputeLiquidityValue.sol\":3032:4288  function getReservesAfterArbitrage2(... */\n      dup1\n      calldataload\n      swap1\n      0x20\n      dup2\n      add\n      calldataload\n      swap1\n      0x40\n      dup2\n      add\n      calldataload\n      swap1\n      0x60\n      add\n      calldataload\n      tag_31\n      jump\t// in\n        /* \"UniswapV2_Chinese-master/v2-periphery/contracts/examples/ExampleComputeLiquidityValue.sol\":893:1303  function computeProfitMaximizingTrade(... */\n    tag_10:\n      tag_26\n      0x04\n      dup1\n      calldatasize\n      sub\n        /* \"--CODEGEN--\":15:18   */\n      0x80\n        /* \"--CODEGEN--\":10:13   */\n      dup2\n        /* \"--CODEGEN--\":7:19   */\n      lt\n        /* \"--CODEGEN--\":4:6   */\n      iszero\n      tag_33\n      jumpi\n        /* \"--CODEGEN--\":32:33   */\n      0x00\n        /* \"--CODEGEN--\":29:30   */\n      dup1\n        /* \"--CODEGEN--\":22:34   */\n      revert\n        /* \"--CODEGEN--\":4:6   */\n    tag_33:\n      pop\n        /* \"UniswapV2_Chinese-master/v2-periphery/contracts/examples/ExampleComputeLiquidityValue.sol\":893:1303  function computeProfitMaximizingTrade(... */\n      dup1\n      calldataload\n      swap1\n      0x20\n      dup2\n      add\n      calldataload\n      swap1\n      0x40\n      dup2\n      add\n      calldataload\n      swap1\n      0x60\n      add\n      calldataload\n      tag_34\n      jump\t// in\n        /* \"UniswapV2_Chinese-master/v2-periphery/contracts/examples/ExampleComputeLiquidityValue.sol\":1759:3011  function getReservesAfterArbitrage(... */\n    tag_14:\n        /* \"UniswapV2_Chinese-master/v2-periphery/contracts/examples/ExampleComputeLiquidityValue.sol\":1943:1960  uint256 _reserveA */\n      0x00\n        /* \"UniswapV2_Chinese-master/v2-periphery/contracts/examples/ExampleComputeLiquidityValue.sol\":1962:1979  uint256 _reserveB */\n      dup1\n        /* \"UniswapV2_Chinese-master/v2-periphery/contracts/examples/ExampleComputeLiquidityValue.sol\":2141:2142  0 */\n      0x00\n        /* \"UniswapV2_Chinese-master/v2-periphery/contracts/examples/ExampleComputeLiquidityValue.sol\":2130:2138  reserveA */\n      dup5\n        /* \"UniswapV2_Chinese-master/v2-periphery/contracts/examples/ExampleComputeLiquidityValue.sol\":2130:2142  reserveA > 0 */\n      gt\n        /* \"UniswapV2_Chinese-master/v2-periphery/contracts/examples/ExampleComputeLiquidityValue.sol\":2130:2158  reserveA > 0 && reserveB > 0 */\n      dup1\n      iszero\n      tag_36\n      jumpi\n      pop\n        /* \"UniswapV2_Chinese-master/v2-periphery/contracts/examples/ExampleComputeLiquidityValue.sol\":2157:2158  0 */\n      0x00\n        /* \"UniswapV2_Chinese-master/v2-periphery/contracts/examples/ExampleComputeLiquidityValue.sol\":2146:2154  reserveB */\n      dup4\n        /* \"UniswapV2_Chinese-master/v2-periphery/contracts/examples/ExampleComputeLiquidityValue.sol\":2146:2158  reserveB > 0 */\n      gt\n        /* \"UniswapV2_Chinese-master/v2-periphery/contracts/examples/ExampleComputeLiquidityValue.sol\":2130:2158  reserveA > 0 && reserveB > 0 */\n    tag_36:\n        /* \"UniswapV2_Chinese-master/v2-periphery/contracts/examples/ExampleComputeLiquidityValue.sol\":2122:2208  require(reserveA > 0 && reserveB > 0, 'UniswapV2ArbitrageLibrary: ZERO_PAIR_RESERVES') */\n      tag_37\n      jumpi\n      mload(0x40)\n      shl(0xe5, 0x461bcd)\n      dup2\n      mstore\n      0x04\n      add\n      dup1\n      dup1\n      0x20\n      add\n      dup3\n      dup2\n      sub\n      dup3\n      mstore\n      0x2d\n      dup2\n      mstore\n      0x20\n      add\n      dup1\n      data_10beb334245c0cd5eca15d36999db839d4cd8bb2d2b8454908c5c4cc957da0ca\n      0x2d\n      swap2\n      codecopy\n      0x40\n      add\n      swap2\n      pop\n      pop\n      mload(0x40)\n      dup1\n      swap2\n      sub\n      swap1\n      revert\n    tag_37:\n        /* \"UniswapV2_Chinese-master/v2-periphery/contracts/examples/ExampleComputeLiquidityValue.sol\":2275:2284  bool aToB */\n      0x00\n        /* \"UniswapV2_Chinese-master/v2-periphery/contracts/examples/ExampleComputeLiquidityValue.sol\":2286:2302  uint256 amountIn */\n      dup1\n        /* \"UniswapV2_Chinese-master/v2-periphery/contracts/examples/ExampleComputeLiquidityValue.sol\":2306:2476  UniswapV2LiquidityMathLibrary.computeProfitMaximizingTrade(... */\n      tag_38\n        /* \"UniswapV2_Chinese-master/v2-periphery/contracts/examples/ExampleComputeLiquidityValue.sol\":2378:2393  truePriceTokenA */\n      dup9\n        /* \"UniswapV2_Chinese-master/v2-periphery/contracts/examples/ExampleComputeLiquidityValue.sol\":2407:2422  truePriceTokenB */\n      dup9\n        /* \"UniswapV2_Chinese-master/v2-periphery/contracts/examples/ExampleComputeLiquidityValue.sol\":2436:2444  reserveA */\n      dup9\n        /* \"UniswapV2_Chinese-master/v2-periphery/contracts/examples/ExampleComputeLiquidityValue.sol\":2458:2466  reserveB */\n      dup9\n        /* \"UniswapV2_Chinese-master/v2-periphery/contracts/examples/ExampleComputeLiquidityValue.sol\":2306:2364  UniswapV2LiquidityMathLibrary.computeProfitMaximizingTrade */\n      tag_39\n        /* \"UniswapV2_Chinese-master/v2-periphery/contracts/examples/ExampleComputeLiquidityValue.sol\":2306:2476  UniswapV2LiquidityMathLibrary.computeProfitMaximizingTrade(... */\n      jump\t// in\n    tag_38:\n        /* \"UniswapV2_Chinese-master/v2-periphery/contracts/examples/ExampleComputeLiquidityValue.sol\":2274:2476  (bool aToB, uint256 amountIn) = UniswapV2LiquidityMathLibrary.computeProfitMaximizingTrade(... */\n      swap2\n      pop\n      swap2\n      pop\n        /* \"UniswapV2_Chinese-master/v2-periphery/contracts/examples/ExampleComputeLiquidityValue.sol\":2491:2499  amountIn */\n      dup1\n        /* \"UniswapV2_Chinese-master/v2-periphery/contracts/examples/ExampleComputeLiquidityValue.sol\":2503:2504  0 */\n      0x00\n        /* \"UniswapV2_Chinese-master/v2-periphery/contracts/examples/ExampleComputeLiquidityValue.sol\":2491:2504  amountIn == 0 */\n      eq\n        /* \"UniswapV2_Chinese-master/v2-periphery/contracts/examples/ExampleComputeLiquidityValue.sol\":2487:2558  if (amountIn == 0) {... */\n      iszero\n      tag_40\n      jumpi\n        /* \"UniswapV2_Chinese-master/v2-periphery/contracts/examples/ExampleComputeLiquidityValue.sol\":2528:2536  reserveA */\n      dup6\n        /* \"UniswapV2_Chinese-master/v2-periphery/contracts/examples/ExampleComputeLiquidityValue.sol\":2538:2546  reserveB */\n      dup6\n        /* \"UniswapV2_Chinese-master/v2-periphery/contracts/examples/ExampleComputeLiquidityValue.sol\":2520:2547  return (reserveA, reserveB) */\n      swap4\n      pop\n      swap4\n      pop\n      pop\n      pop\n      jump(tag_35)\n        /* \"UniswapV2_Chinese-master/v2-periphery/contracts/examples/ExampleComputeLiquidityValue.sol\":2487:2558  if (amountIn == 0) {... */\n    tag_40:\n        /* \"UniswapV2_Chinese-master/v2-periphery/contracts/examples/ExampleComputeLiquidityValue.sol\":2616:2620  aToB */\n      dup2\n        /* \"UniswapV2_Chinese-master/v2-periphery/contracts/examples/ExampleComputeLiquidityValue.sol\":2612:3005  if (aToB) {... */\n      iszero\n      tag_41\n      jumpi\n        /* \"UniswapV2_Chinese-master/v2-periphery/contracts/examples/ExampleComputeLiquidityValue.sol\":2636:2650  uint amountOut */\n      0x00\n        /* \"UniswapV2_Chinese-master/v2-periphery/contracts/examples/ExampleComputeLiquidityValue.sol\":2653:2712  UniswapV2Library.getAmountOut(amountIn, reserveA, reserveB) */\n      tag_42\n        /* \"UniswapV2_Chinese-master/v2-periphery/contracts/examples/ExampleComputeLiquidityValue.sol\":2683:2691  amountIn */\n      dup3\n        /* \"UniswapV2_Chinese-master/v2-periphery/contracts/examples/ExampleComputeLiquidityValue.sol\":2693:2701  reserveA */\n      dup9\n        /* \"UniswapV2_Chinese-master/v2-periphery/contracts/examples/ExampleComputeLiquidityValue.sol\":2703:2711  reserveB */\n      dup9\n        /* \"UniswapV2_Chinese-master/v2-periphery/contracts/examples/ExampleComputeLiquidityValue.sol\":2653:2682  UniswapV2Library.getAmountOut */\n      tag_43\n        /* \"UniswapV2_Chinese-master/v2-periphery/contracts/examples/ExampleComputeLiquidityValue.sol\":2653:2712  UniswapV2Library.getAmountOut(amountIn, reserveA, reserveB) */\n      jump\t// in\n    tag_42:\n        /* \"UniswapV2_Chinese-master/v2-periphery/contracts/examples/ExampleComputeLiquidityValue.sol\":2738:2755  reserveA+amountIn */\n      dup8\n      dup4\n      add\n      swap6\n      pop\n        /* \"UniswapV2_Chinese-master/v2-periphery/contracts/examples/ExampleComputeLiquidityValue.sol\":2781:2799  reserveB-amountOut */\n      dup7\n      sub\n      swap4\n      pop\n        /* \"UniswapV2_Chinese-master/v2-periphery/contracts/examples/ExampleComputeLiquidityValue.sol\":2612:3005  if (aToB) {... */\n      tag_44\n      swap1\n      pop\n      jump\n    tag_41:\n        /* \"UniswapV2_Chinese-master/v2-periphery/contracts/examples/ExampleComputeLiquidityValue.sol\":2830:2844  uint amountOut */\n      0x00\n        /* \"UniswapV2_Chinese-master/v2-periphery/contracts/examples/ExampleComputeLiquidityValue.sol\":2847:2906  UniswapV2Library.getAmountOut(amountIn, reserveB, reserveA) */\n      tag_45\n        /* \"UniswapV2_Chinese-master/v2-periphery/contracts/examples/ExampleComputeLiquidityValue.sol\":2877:2885  amountIn */\n      dup3\n        /* \"UniswapV2_Chinese-master/v2-periphery/contracts/examples/ExampleComputeLiquidityValue.sol\":2887:2895  reserveB */\n      dup8\n        /* \"UniswapV2_Chinese-master/v2-periphery/contracts/examples/ExampleComputeLiquidityValue.sol\":2897:2905  reserveA */\n      dup10\n        /* \"UniswapV2_Chinese-master/v2-periphery/contracts/examples/ExampleComputeLiquidityValue.sol\":2847:2876  UniswapV2Library.getAmountOut */\n      tag_43\n        /* \"UniswapV2_Chinese-master/v2-periphery/contracts/examples/ExampleComputeLiquidityValue.sol\":2847:2906  UniswapV2Library.getAmountOut(amountIn, reserveB, reserveA) */\n      jump\t// in\n    tag_45:\n        /* \"UniswapV2_Chinese-master/v2-periphery/contracts/examples/ExampleComputeLiquidityValue.sol\":2975:2994  reserveA -amountOut */\n      dup8\n      sub\n      swap5\n      pop\n      pop\n        /* \"UniswapV2_Chinese-master/v2-periphery/contracts/examples/ExampleComputeLiquidityValue.sol\":2931:2949  reserveB +amountIn */\n      dup5\n      dup2\n      add\n      swap3\n      pop\n        /* \"UniswapV2_Chinese-master/v2-periphery/contracts/examples/ExampleComputeLiquidityValue.sol\":2612:3005  if (aToB) {... */\n    tag_44:\n        /* \"UniswapV2_Chinese-master/v2-periphery/contracts/examples/ExampleComputeLiquidityValue.sol\":1759:3011  function getReservesAfterArbitrage(... */\n      pop\n      pop\n    tag_35:\n      swap5\n      pop\n      swap5\n      swap3\n      pop\n      pop\n      pop\n      jump\t// out\n        /* \"UniswapV2_Chinese-master/v2-periphery/contracts/examples/ExampleComputeLiquidityValue.sol\":4815:5355  function getLiquidityValueAfterArbitrageToPrice(... */\n    tag_17:\n        /* \"UniswapV2_Chinese-master/v2-periphery/contracts/examples/ExampleComputeLiquidityValue.sol\":5048:5068  uint256 tokenAAmount */\n      0x00\n        /* \"UniswapV2_Chinese-master/v2-periphery/contracts/examples/ExampleComputeLiquidityValue.sol\":5078:5098  uint256 tokenBAmount */\n      dup1\n        /* \"UniswapV2_Chinese-master/v2-periphery/contracts/examples/ExampleComputeLiquidityValue.sol\":5122:5348  UniswapV2LiquidityMathLibrary.getLiquidityValueAfterArbitrageToPrice(... */\n      tag_47\n        /* \"UniswapV2_Chinese-master/v2-periphery/contracts/examples/ExampleComputeLiquidityValue.sol\":5204:5211  factory */\n      immutable(\"0x9c2c9f4d8409fa4d6fe2a06869e9740854d67207dd241ab564cc1f1f3dcdc081\")\n        /* \"UniswapV2_Chinese-master/v2-periphery/contracts/examples/ExampleComputeLiquidityValue.sol\":5225:5231  tokenA */\n      dup9\n        /* \"UniswapV2_Chinese-master/v2-periphery/contracts/examples/ExampleComputeLiquidityValue.sol\":5245:5251  tokenB */\n      dup9\n        /* \"UniswapV2_Chinese-master/v2-periphery/contracts/examples/ExampleComputeLiquidityValue.sol\":5265:5280  truePriceTokenA */\n      dup9\n        /* \"UniswapV2_Chinese-master/v2-periphery/contracts/examples/ExampleComputeLiquidityValue.sol\":5294:5309  truePriceTokenB */\n      dup9\n        /* \"UniswapV2_Chinese-master/v2-periphery/contracts/examples/ExampleComputeLiquidityValue.sol\":5323:5338  liquidityAmount */\n      dup9\n        /* \"UniswapV2_Chinese-master/v2-periphery/contracts/examples/ExampleComputeLiquidityValue.sol\":5122:5190  UniswapV2LiquidityMathLibrary.getLiquidityValueAfterArbitrageToPrice */\n      tag_48\n        /* \"UniswapV2_Chinese-master/v2-periphery/contracts/examples/ExampleComputeLiquidityValue.sol\":5122:5348  UniswapV2LiquidityMathLibrary.getLiquidityValueAfterArbitrageToPrice(... */\n      jump\t// in\n    tag_47:\n        /* \"UniswapV2_Chinese-master/v2-periphery/contracts/examples/ExampleComputeLiquidityValue.sol\":5115:5348  return UniswapV2LiquidityMathLibrary.getLiquidityValueAfterArbitrageToPrice(... */\n      swap2\n      pop\n      swap2\n      pop\n        /* \"UniswapV2_Chinese-master/v2-periphery/contracts/examples/ExampleComputeLiquidityValue.sol\":4815:5355  function getLiquidityValueAfterArbitrageToPrice(... */\n    tag_46:\n      swap6\n      pop\n      swap6\n      swap4\n      pop\n      pop\n      pop\n      pop\n      jump\t// out\n        /* \"UniswapV2_Chinese-master/v2-periphery/contracts/examples/ExampleComputeLiquidityValue.sol\":5428:6038  function getGasCostOfGetLiquidityValueAfterArbitrageToPrice(... */\n    tag_20:\n        /* \"UniswapV2_Chinese-master/v2-periphery/contracts/examples/ExampleComputeLiquidityValue.sol\":5673:5680  uint256 */\n      0x00\n        /* \"UniswapV2_Chinese-master/v2-periphery/contracts/examples/ExampleComputeLiquidityValue.sol\":5697:5711  uint gasBefore */\n      dup1\n        /* \"UniswapV2_Chinese-master/v2-periphery/contracts/examples/ExampleComputeLiquidityValue.sol\":5714:5723  gasleft() */\n      gas\n        /* \"UniswapV2_Chinese-master/v2-periphery/contracts/examples/ExampleComputeLiquidityValue.sol\":5697:5723  uint gasBefore = gasleft() */\n      swap1\n      pop\n        /* \"UniswapV2_Chinese-master/v2-periphery/contracts/examples/ExampleComputeLiquidityValue.sol\":5733:5959  UniswapV2LiquidityMathLibrary.getLiquidityValueAfterArbitrageToPrice(... */\n      tag_50\n        /* \"UniswapV2_Chinese-master/v2-periphery/contracts/examples/ExampleComputeLiquidityValue.sol\":5815:5822  factory */\n      immutable(\"0x9c2c9f4d8409fa4d6fe2a06869e9740854d67207dd241ab564cc1f1f3dcdc081\")\n        /* \"UniswapV2_Chinese-master/v2-periphery/contracts/examples/ExampleComputeLiquidityValue.sol\":5836:5842  tokenA */\n      dup9\n        /* \"UniswapV2_Chinese-master/v2-periphery/contracts/examples/ExampleComputeLiquidityValue.sol\":5856:5862  tokenB */\n      dup9\n        /* \"UniswapV2_Chinese-master/v2-periphery/contracts/examples/ExampleComputeLiquidityValue.sol\":5876:5891  truePriceTokenA */\n      dup9\n        /* \"UniswapV2_Chinese-master/v2-periphery/contracts/examples/ExampleComputeLiquidityValue.sol\":5905:5920  truePriceTokenB */\n      dup9\n        /* \"UniswapV2_Chinese-master/v2-periphery/contracts/examples/ExampleComputeLiquidityValue.sol\":5934:5949  liquidityAmount */\n      dup9\n        /* \"UniswapV2_Chinese-master/v2-periphery/contracts/examples/ExampleComputeLiquidityValue.sol\":5733:5801  UniswapV2LiquidityMathLibrary.getLiquidityValueAfterArbitrageToPrice */\n      tag_48\n        /* \"UniswapV2_Chinese-master/v2-periphery/contracts/examples/ExampleComputeLiquidityValue.sol\":5733:5959  UniswapV2LiquidityMathLibrary.getLiquidityValueAfterArbitrageToPrice(... */\n      jump\t// in\n    tag_50:\n      pop\n      pop\n        /* \"UniswapV2_Chinese-master/v2-periphery/contracts/examples/ExampleComputeLiquidityValue.sol\":5969:5982  uint gasAfter */\n      0x00\n        /* \"UniswapV2_Chinese-master/v2-periphery/contracts/examples/ExampleComputeLiquidityValue.sol\":5985:5994  gasleft() */\n      gas\n        /* \"UniswapV2_Chinese-master/v2-periphery/contracts/examples/ExampleComputeLiquidityValue.sol\":6011:6031  gasBefore - gasAfter */\n      swap1\n      swap2\n      sub\n      swap8\n        /* \"UniswapV2_Chinese-master/v2-periphery/contracts/examples/ExampleComputeLiquidityValue.sol\":5428:6038  function getGasCostOfGetLiquidityValueAfterArbitrageToPrice(... */\n      swap7\n      pop\n      pop\n      pop\n      pop\n      pop\n      pop\n      pop\n      jump\t// out\n        /* \"UniswapV2_Chinese-master/v2-periphery/contracts/examples/ExampleComputeLiquidityValue.sol\":236:268  address public immutable factory */\n    tag_22:\n      immutable(\"0x9c2c9f4d8409fa4d6fe2a06869e9740854d67207dd241ab564cc1f1f3dcdc081\")\n      dup2\n      jump\t// out\n        /* \"UniswapV2_Chinese-master/v2-periphery/contracts/examples/ExampleComputeLiquidityValue.sol\":4355:4729  function getLiquidityValue(... */\n    tag_25:\n        /* \"UniswapV2_Chinese-master/v2-periphery/contracts/examples/ExampleComputeLiquidityValue.sol\":4501:4521  uint256 tokenAAmount */\n      0x00\n        /* \"UniswapV2_Chinese-master/v2-periphery/contracts/examples/ExampleComputeLiquidityValue.sol\":4531:4551  uint256 tokenBAmount */\n      dup1\n        /* \"UniswapV2_Chinese-master/v2-periphery/contracts/examples/ExampleComputeLiquidityValue.sol\":4575:4722  UniswapV2LiquidityMathLibrary.getLiquidityValue(... */\n      tag_52\n        /* \"UniswapV2_Chinese-master/v2-periphery/contracts/examples/ExampleComputeLiquidityValue.sol\":4636:4643  factory */\n      immutable(\"0x9c2c9f4d8409fa4d6fe2a06869e9740854d67207dd241ab564cc1f1f3dcdc081\")\n        /* \"UniswapV2_Chinese-master/v2-periphery/contracts/examples/ExampleComputeLiquidityValue.sol\":4657:4663  tokenA */\n      dup7\n        /* \"UniswapV2_Chinese-master/v2-periphery/contracts/examples/ExampleComputeLiquidityValue.sol\":4677:4683  tokenB */\n      dup7\n        /* \"UniswapV2_Chinese-master/v2-periphery/contracts/examples/ExampleComputeLiquidityValue.sol\":4697:4712  liquidityAmount */\n      dup7\n        /* \"UniswapV2_Chinese-master/v2-periphery/contracts/examples/ExampleComputeLiquidityValue.sol\":4575:4622  UniswapV2LiquidityMathLibrary.getLiquidityValue */\n      tag_53\n        /* \"UniswapV2_Chinese-master/v2-periphery/contracts/examples/ExampleComputeLiquidityValue.sol\":4575:4722  UniswapV2LiquidityMathLibrary.getLiquidityValue(... */\n      jump\t// in\n    tag_52:\n        /* \"UniswapV2_Chinese-master/v2-periphery/contracts/examples/ExampleComputeLiquidityValue.sol\":4568:4722  return UniswapV2LiquidityMathLibrary.getLiquidityValue(... */\n      swap2\n      pop\n      swap2\n      pop\n        /* \"UniswapV2_Chinese-master/v2-periphery/contracts/examples/ExampleComputeLiquidityValue.sol\":4355:4729  function getLiquidityValue(... */\n      swap4\n      pop\n      swap4\n      swap2\n      pop\n      pop\n      jump\t// out\n        /* \"UniswapV2_Chinese-master/v2-periphery/contracts/examples/ExampleComputeLiquidityValue.sol\":1311:1723  function computeProfitMaximizingTrade2(... */\n    tag_28:\n        /* \"UniswapV2_Chinese-master/v2-periphery/contracts/examples/ExampleComputeLiquidityValue.sol\":1499:1508  bool aToB */\n      0x00\n        /* \"UniswapV2_Chinese-master/v2-periphery/contracts/examples/ExampleComputeLiquidityValue.sol\":1510:1526  uint256 amountIn */\n      dup1\n        /* \"UniswapV2_Chinese-master/v2-periphery/contracts/examples/ExampleComputeLiquidityValue.sol\":1545:1716  UniswapV2LiquidityMathLibrary.computeProfitMaximizingTrade2(... */\n      tag_55\n        /* \"UniswapV2_Chinese-master/v2-periphery/contracts/examples/ExampleComputeLiquidityValue.sol\":1618:1633  truePriceTokenA */\n      dup7\n        /* \"UniswapV2_Chinese-master/v2-periphery/contracts/examples/ExampleComputeLiquidityValue.sol\":1647:1662  truePriceTokenB */\n      dup7\n        /* \"UniswapV2_Chinese-master/v2-periphery/contracts/examples/ExampleComputeLiquidityValue.sol\":1676:1684  reserveA */\n      dup7\n        /* \"UniswapV2_Chinese-master/v2-periphery/contracts/examples/ExampleComputeLiquidityValue.sol\":1698:1706  reserveB */\n      dup7\n        /* \"UniswapV2_Chinese-master/v2-periphery/contracts/examples/ExampleComputeLiquidityValue.sol\":1545:1604  UniswapV2LiquidityMathLibrary.computeProfitMaximizingTrade2 */\n      tag_56\n        /* \"UniswapV2_Chinese-master/v2-periphery/contracts/examples/ExampleComputeLiquidityValue.sol\":1545:1716  UniswapV2LiquidityMathLibrary.computeProfitMaximizingTrade2(... */\n      jump\t// in\n    tag_55:\n        /* \"UniswapV2_Chinese-master/v2-periphery/contracts/examples/ExampleComputeLiquidityValue.sol\":1538:1716  return UniswapV2LiquidityMathLibrary.computeProfitMaximizingTrade2(... */\n      swap2\n      pop\n      swap2\n      pop\n        /* \"UniswapV2_Chinese-master/v2-periphery/contracts/examples/ExampleComputeLiquidityValue.sol\":1311:1723  function computeProfitMaximizingTrade2(... */\n      swap5\n      pop\n      swap5\n      swap3\n      pop\n      pop\n      pop\n      jump\t// out\n        /* \"UniswapV2_Chinese-master/v2-periphery/contracts/examples/ExampleComputeLiquidityValue.sol\":3032:4288  function getReservesAfterArbitrage2(... */\n    tag_31:\n        /* \"UniswapV2_Chinese-master/v2-periphery/contracts/examples/ExampleComputeLiquidityValue.sol\":3217:3234  uint256 _reserveA */\n      0x00\n        /* \"UniswapV2_Chinese-master/v2-periphery/contracts/examples/ExampleComputeLiquidityValue.sol\":3236:3253  uint256 _reserveB */\n      dup1\n        /* \"UniswapV2_Chinese-master/v2-periphery/contracts/examples/ExampleComputeLiquidityValue.sol\":3416:3417  0 */\n      0x00\n        /* \"UniswapV2_Chinese-master/v2-periphery/contracts/examples/ExampleComputeLiquidityValue.sol\":3405:3413  reserveA */\n      dup5\n        /* \"UniswapV2_Chinese-master/v2-periphery/contracts/examples/ExampleComputeLiquidityValue.sol\":3405:3417  reserveA > 0 */\n      gt\n        /* \"UniswapV2_Chinese-master/v2-periphery/contracts/examples/ExampleComputeLiquidityValue.sol\":3405:3433  reserveA > 0 && reserveB > 0 */\n      dup1\n      iszero\n      tag_58\n      jumpi\n      pop\n        /* \"UniswapV2_Chinese-master/v2-periphery/contracts/examples/ExampleComputeLiquidityValue.sol\":3432:3433  0 */\n      0x00\n        /* \"UniswapV2_Chinese-master/v2-periphery/contracts/examples/ExampleComputeLiquidityValue.sol\":3421:3429  reserveB */\n      dup4\n        /* \"UniswapV2_Chinese-master/v2-periphery/contracts/examples/ExampleComputeLiquidityValue.sol\":3421:3433  reserveB > 0 */\n      gt\n        /* \"UniswapV2_Chinese-master/v2-periphery/contracts/examples/ExampleComputeLiquidityValue.sol\":3405:3433  reserveA > 0 && reserveB > 0 */\n    tag_58:\n        /* \"UniswapV2_Chinese-master/v2-periphery/contracts/examples/ExampleComputeLiquidityValue.sol\":3397:3483  require(reserveA > 0 && reserveB > 0, 'UniswapV2ArbitrageLibrary: ZERO_PAIR_RESERVES') */\n      tag_59\n      jumpi\n      mload(0x40)\n      shl(0xe5, 0x461bcd)\n      dup2\n      mstore\n      0x04\n      add\n      dup1\n      dup1\n      0x20\n      add\n      dup3\n      dup2\n      sub\n      dup3\n      mstore\n      0x2d\n      dup2\n      mstore\n      0x20\n      add\n      dup1\n      data_10beb334245c0cd5eca15d36999db839d4cd8bb2d2b8454908c5c4cc957da0ca\n      0x2d\n      swap2\n      codecopy\n      0x40\n      add\n      swap2\n      pop\n      pop\n      mload(0x40)\n      dup1\n      swap2\n      sub\n      swap1\n      revert\n    tag_59:\n        /* \"UniswapV2_Chinese-master/v2-periphery/contracts/examples/ExampleComputeLiquidityValue.sol\":3551:3560  bool aToB */\n      0x00\n        /* \"UniswapV2_Chinese-master/v2-periphery/contracts/examples/ExampleComputeLiquidityValue.sol\":3562:3578  uint256 amountIn */\n      dup1\n        /* \"UniswapV2_Chinese-master/v2-periphery/contracts/examples/ExampleComputeLiquidityValue.sol\":3582:3753  UniswapV2LiquidityMathLibrary.computeProfitMaximizingTrade2(... */\n      tag_38\n        /* \"UniswapV2_Chinese-master/v2-periphery/contracts/examples/ExampleComputeLiquidityValue.sol\":3655:3670  truePriceTokenA */\n      dup9\n        /* \"UniswapV2_Chinese-master/v2-periphery/contracts/examples/ExampleComputeLiquidityValue.sol\":3684:3699  truePriceTokenB */\n      dup9\n        /* \"UniswapV2_Chinese-master/v2-periphery/contracts/examples/ExampleComputeLiquidityValue.sol\":3713:3721  reserveA */\n      dup9\n        /* \"UniswapV2_Chinese-master/v2-periphery/contracts/examples/ExampleComputeLiquidityValue.sol\":3735:3743  reserveB */\n      dup9\n        /* \"UniswapV2_Chinese-master/v2-periphery/contracts/examples/ExampleComputeLiquidityValue.sol\":3582:3641  UniswapV2LiquidityMathLibrary.computeProfitMaximizingTrade2 */\n      tag_56\n        /* \"UniswapV2_Chinese-master/v2-periphery/contracts/examples/ExampleComputeLiquidityValue.sol\":3582:3753  UniswapV2LiquidityMathLibrary.computeProfitMaximizingTrade2(... */\n      jump\t// in\n        /* \"UniswapV2_Chinese-master/v2-periphery/contracts/examples/ExampleComputeLiquidityValue.sol\":893:1303  function computeProfitMaximizingTrade(... */\n    tag_34:\n        /* \"UniswapV2_Chinese-master/v2-periphery/contracts/examples/ExampleComputeLiquidityValue.sol\":1080:1089  bool aToB */\n      0x00\n        /* \"UniswapV2_Chinese-master/v2-periphery/contracts/examples/ExampleComputeLiquidityValue.sol\":1091:1107  uint256 amountIn */\n      dup1\n        /* \"UniswapV2_Chinese-master/v2-periphery/contracts/examples/ExampleComputeLiquidityValue.sol\":1126:1296  UniswapV2LiquidityMathLibrary.computeProfitMaximizingTrade(... */\n      tag_55\n        /* \"UniswapV2_Chinese-master/v2-periphery/contracts/examples/ExampleComputeLiquidityValue.sol\":1198:1213  truePriceTokenA */\n      dup7\n        /* \"UniswapV2_Chinese-master/v2-periphery/contracts/examples/ExampleComputeLiquidityValue.sol\":1227:1242  truePriceTokenB */\n      dup7\n        /* \"UniswapV2_Chinese-master/v2-periphery/contracts/examples/ExampleComputeLiquidityValue.sol\":1256:1264  reserveA */\n      dup7\n        /* \"UniswapV2_Chinese-master/v2-periphery/contracts/examples/ExampleComputeLiquidityValue.sol\":1278:1286  reserveB */\n      dup7\n        /* \"UniswapV2_Chinese-master/v2-periphery/contracts/libraries/UniswapV2LiquidityMathLibrary.sol\":627:1510  function computeProfitMaximizingTrade(... */\n    tag_39:\n        /* \"UniswapV2_Chinese-master/v2-periphery/contracts/libraries/UniswapV2LiquidityMathLibrary.sol\":812:821  bool aToB */\n      0x00\n        /* \"UniswapV2_Chinese-master/v2-periphery/contracts/libraries/UniswapV2LiquidityMathLibrary.sol\":823:839  uint256 amountIn */\n      dup1\n        /* \"UniswapV2_Chinese-master/v2-periphery/contracts/libraries/UniswapV2LiquidityMathLibrary.sol\":913:928  truePriceTokenA */\n      dup6\n        /* \"UniswapV2_Chinese-master/v2-periphery/contracts/libraries/UniswapV2LiquidityMathLibrary.sol\":858:910  FullMath.mulDiv(reserveA, truePriceTokenB, reserveB) */\n      tag_69\n        /* \"UniswapV2_Chinese-master/v2-periphery/contracts/libraries/UniswapV2LiquidityMathLibrary.sol\":874:882  reserveA */\n      dup6\n        /* \"UniswapV2_Chinese-master/v2-periphery/contracts/libraries/UniswapV2LiquidityMathLibrary.sol\":884:899  truePriceTokenB */\n      dup8\n        /* \"UniswapV2_Chinese-master/v2-periphery/contracts/libraries/UniswapV2LiquidityMathLibrary.sol\":901:909  reserveB */\n      dup7\n        /* \"UniswapV2_Chinese-master/v2-periphery/contracts/libraries/UniswapV2LiquidityMathLibrary.sol\":858:873  FullMath.mulDiv */\n      tag_70\n        /* \"UniswapV2_Chinese-master/v2-periphery/contracts/libraries/UniswapV2LiquidityMathLibrary.sol\":858:910  FullMath.mulDiv(reserveA, truePriceTokenB, reserveB) */\n      jump\t// in\n    tag_69:\n        /* \"UniswapV2_Chinese-master/v2-periphery/contracts/libraries/UniswapV2LiquidityMathLibrary.sol\":858:928  FullMath.mulDiv(reserveA, truePriceTokenB, reserveB) < truePriceTokenA */\n      lt\n      swap2\n      pop\n        /* \"UniswapV2_Chinese-master/v2-periphery/contracts/libraries/UniswapV2LiquidityMathLibrary.sol\":939:956  uint256 invariant */\n      0x00\n        /* \"UniswapV2_Chinese-master/v2-periphery/contracts/libraries/UniswapV2LiquidityMathLibrary.sol\":959:981  reserveA.mul(reserveB) */\n      tag_71\n        /* \"UniswapV2_Chinese-master/v2-periphery/contracts/libraries/UniswapV2LiquidityMathLibrary.sol\":959:967  reserveA */\n      dup6\n        /* \"UniswapV2_Chinese-master/v2-periphery/contracts/libraries/UniswapV2LiquidityMathLibrary.sol\":972:980  reserveB */\n      dup6\n        /* \"UniswapV2_Chinese-master/v2-periphery/contracts/libraries/UniswapV2LiquidityMathLibrary.sol\":959:981  reserveA.mul(reserveB) */\n      0xffffffff\n        /* \"UniswapV2_Chinese-master/v2-periphery/contracts/libraries/UniswapV2LiquidityMathLibrary.sol\":959:971  reserveA.mul */\n      tag_72\n        /* \"UniswapV2_Chinese-master/v2-periphery/contracts/libraries/UniswapV2LiquidityMathLibrary.sol\":959:981  reserveA.mul(reserveB) */\n      and\n      jump\t// in\n    tag_71:\n        /* \"UniswapV2_Chinese-master/v2-periphery/contracts/libraries/UniswapV2LiquidityMathLibrary.sol\":939:981  uint256 invariant = reserveA.mul(reserveB) */\n      swap1\n      pop\n        /* \"UniswapV2_Chinese-master/v2-periphery/contracts/libraries/UniswapV2LiquidityMathLibrary.sol\":992:1008  uint256 leftSide */\n      0x00\n        /* \"UniswapV2_Chinese-master/v2-periphery/contracts/libraries/UniswapV2LiquidityMathLibrary.sol\":1011:1243  Babylonian.sqrt(... */\n      tag_73\n        /* \"UniswapV2_Chinese-master/v2-periphery/contracts/libraries/UniswapV2LiquidityMathLibrary.sol\":1040:1233  FullMath.mulDiv(... */\n      tag_74\n        /* \"UniswapV2_Chinese-master/v2-periphery/contracts/libraries/UniswapV2LiquidityMathLibrary.sol\":1073:1092  invariant.mul(1000) */\n      tag_75\n        /* \"UniswapV2_Chinese-master/v2-periphery/contracts/libraries/UniswapV2LiquidityMathLibrary.sol\":939:981  uint256 invariant = reserveA.mul(reserveB) */\n      dup5\n        /* \"UniswapV2_Chinese-master/v2-periphery/contracts/libraries/UniswapV2LiquidityMathLibrary.sol\":1087:1091  1000 */\n      0x03e8\n        /* \"UniswapV2_Chinese-master/v2-periphery/contracts/libraries/UniswapV2LiquidityMathLibrary.sol\":1073:1092  invariant.mul(1000) */\n      0xffffffff\n        /* \"UniswapV2_Chinese-master/v2-periphery/contracts/libraries/UniswapV2LiquidityMathLibrary.sol\":1073:1086  invariant.mul */\n      tag_72\n        /* \"UniswapV2_Chinese-master/v2-periphery/contracts/libraries/UniswapV2LiquidityMathLibrary.sol\":1073:1092  invariant.mul(1000) */\n      and\n      jump\t// in\n    tag_75:\n        /* \"UniswapV2_Chinese-master/v2-periphery/contracts/libraries/UniswapV2LiquidityMathLibrary.sol\":1110:1114  aToB */\n      dup7\n        /* \"UniswapV2_Chinese-master/v2-periphery/contracts/libraries/UniswapV2LiquidityMathLibrary.sol\":1110:1150  aToB ? truePriceTokenA : truePriceTokenB */\n      tag_76\n      jumpi\n        /* \"UniswapV2_Chinese-master/v2-periphery/contracts/libraries/UniswapV2LiquidityMathLibrary.sol\":1135:1150  truePriceTokenB */\n      dup10\n        /* \"UniswapV2_Chinese-master/v2-periphery/contracts/libraries/UniswapV2LiquidityMathLibrary.sol\":1110:1150  aToB ? truePriceTokenA : truePriceTokenB */\n      jump(tag_77)\n    tag_76:\n        /* \"UniswapV2_Chinese-master/v2-periphery/contracts/libraries/UniswapV2LiquidityMathLibrary.sol\":1117:1132  truePriceTokenA */\n      dup11\n        /* \"UniswapV2_Chinese-master/v2-periphery/contracts/libraries/UniswapV2LiquidityMathLibrary.sol\":1110:1150  aToB ? truePriceTokenA : truePriceTokenB */\n    tag_77:\n        /* \"UniswapV2_Chinese-master/v2-periphery/contracts/libraries/UniswapV2LiquidityMathLibrary.sol\":1168:1219  (aToB ? truePriceTokenB : truePriceTokenA).mul(997) */\n      tag_78\n        /* \"UniswapV2_Chinese-master/v2-periphery/contracts/libraries/UniswapV2LiquidityMathLibrary.sol\":1215:1218  997 */\n      0x03e5\n        /* \"UniswapV2_Chinese-master/v2-periphery/contracts/libraries/UniswapV2LiquidityMathLibrary.sol\":1169:1173  aToB */\n      dup10\n        /* \"UniswapV2_Chinese-master/v2-periphery/contracts/libraries/UniswapV2LiquidityMathLibrary.sol\":1169:1209  aToB ? truePriceTokenB : truePriceTokenA */\n      tag_79\n      jumpi\n        /* \"UniswapV2_Chinese-master/v2-periphery/contracts/libraries/UniswapV2LiquidityMathLibrary.sol\":1194:1209  truePriceTokenA */\n      dup14\n        /* \"UniswapV2_Chinese-master/v2-periphery/contracts/libraries/UniswapV2LiquidityMathLibrary.sol\":1169:1209  aToB ? truePriceTokenB : truePriceTokenA */\n      jump(tag_80)\n    tag_79:\n        /* \"UniswapV2_Chinese-master/v2-periphery/contracts/libraries/UniswapV2LiquidityMathLibrary.sol\":1176:1191  truePriceTokenB */\n      dup13\n        /* \"UniswapV2_Chinese-master/v2-periphery/contracts/libraries/UniswapV2LiquidityMathLibrary.sol\":1169:1209  aToB ? truePriceTokenB : truePriceTokenA */\n    tag_80:\n        /* \"UniswapV2_Chinese-master/v2-periphery/contracts/libraries/UniswapV2LiquidityMathLibrary.sol\":1168:1214  (aToB ? truePriceTokenB : truePriceTokenA).mul */\n      swap1\n        /* \"UniswapV2_Chinese-master/v2-periphery/contracts/libraries/UniswapV2LiquidityMathLibrary.sol\":1168:1219  (aToB ? truePriceTokenB : truePriceTokenA).mul(997) */\n      0xffffffff\n        /* \"UniswapV2_Chinese-master/v2-periphery/contracts/libraries/UniswapV2LiquidityMathLibrary.sol\":1168:1214  (aToB ? truePriceTokenB : truePriceTokenA).mul */\n      tag_72\n        /* \"UniswapV2_Chinese-master/v2-periphery/contracts/libraries/UniswapV2LiquidityMathLibrary.sol\":1168:1219  (aToB ? truePriceTokenB : truePriceTokenA).mul(997) */\n      and\n      jump\t// in\n    tag_78:\n        /* \"UniswapV2_Chinese-master/v2-periphery/contracts/libraries/UniswapV2LiquidityMathLibrary.sol\":1040:1055  FullMath.mulDiv */\n      tag_70\n        /* \"UniswapV2_Chinese-master/v2-periphery/contracts/libraries/UniswapV2LiquidityMathLibrary.sol\":1040:1233  FullMath.mulDiv(... */\n      jump\t// in\n    tag_74:\n        /* \"UniswapV2_Chinese-master/v2-periphery/contracts/libraries/UniswapV2LiquidityMathLibrary.sol\":1011:1026  Babylonian.sqrt */\n      tag_81\n        /* \"UniswapV2_Chinese-master/v2-periphery/contracts/libraries/UniswapV2LiquidityMathLibrary.sol\":1011:1243  Babylonian.sqrt(... */\n      jump\t// in\n    tag_73:\n        /* \"UniswapV2_Chinese-master/v2-periphery/contracts/libraries/UniswapV2LiquidityMathLibrary.sol\":992:1243  uint256 leftSide = Babylonian.sqrt(... */\n      swap1\n      pop\n        /* \"UniswapV2_Chinese-master/v2-periphery/contracts/libraries/UniswapV2LiquidityMathLibrary.sol\":1253:1270  uint256 rightSide */\n      0x00\n        /* \"UniswapV2_Chinese-master/v2-periphery/contracts/libraries/UniswapV2LiquidityMathLibrary.sol\":1324:1327  997 */\n      0x03e5\n        /* \"UniswapV2_Chinese-master/v2-periphery/contracts/libraries/UniswapV2LiquidityMathLibrary.sol\":1274:1278  aToB */\n      dup6\n        /* \"UniswapV2_Chinese-master/v2-periphery/contracts/libraries/UniswapV2LiquidityMathLibrary.sol\":1274:1320  aToB ? reserveA.mul(1000) : reserveB.mul(1000) */\n      tag_82\n      jumpi\n        /* \"UniswapV2_Chinese-master/v2-periphery/contracts/libraries/UniswapV2LiquidityMathLibrary.sol\":1302:1320  reserveB.mul(1000) */\n      tag_83\n        /* \"UniswapV2_Chinese-master/v2-periphery/contracts/libraries/UniswapV2LiquidityMathLibrary.sol\":1302:1310  reserveB */\n      dup8\n        /* \"UniswapV2_Chinese-master/v2-periphery/contracts/libraries/UniswapV2LiquidityMathLibrary.sol\":1315:1319  1000 */\n      0x03e8\n        /* \"UniswapV2_Chinese-master/v2-periphery/contracts/libraries/UniswapV2LiquidityMathLibrary.sol\":1302:1320  reserveB.mul(1000) */\n      0xffffffff\n        /* \"UniswapV2_Chinese-master/v2-periphery/contracts/libraries/UniswapV2LiquidityMathLibrary.sol\":1302:1314  reserveB.mul */\n      tag_72\n        /* \"UniswapV2_Chinese-master/v2-periphery/contracts/libraries/UniswapV2LiquidityMathLibrary.sol\":1302:1320  reserveB.mul(1000) */\n      and\n      jump\t// in\n    tag_83:\n        /* \"UniswapV2_Chinese-master/v2-periphery/contracts/libraries/UniswapV2LiquidityMathLibrary.sol\":1274:1320  aToB ? reserveA.mul(1000) : reserveB.mul(1000) */\n      jump(tag_85)\n    tag_82:\n        /* \"UniswapV2_Chinese-master/v2-periphery/contracts/libraries/UniswapV2LiquidityMathLibrary.sol\":1281:1299  reserveA.mul(1000) */\n      tag_85\n        /* \"UniswapV2_Chinese-master/v2-periphery/contracts/libraries/UniswapV2LiquidityMathLibrary.sol\":1281:1289  reserveA */\n      dup9\n        /* \"UniswapV2_Chinese-master/v2-periphery/contracts/libraries/UniswapV2LiquidityMathLibrary.sol\":1294:1298  1000 */\n      0x03e8\n        /* \"UniswapV2_Chinese-master/v2-periphery/contracts/libraries/UniswapV2LiquidityMathLibrary.sol\":1281:1299  reserveA.mul(1000) */\n      0xffffffff\n        /* \"UniswapV2_Chinese-master/v2-periphery/contracts/libraries/UniswapV2LiquidityMathLibrary.sol\":1281:1293  reserveA.mul */\n      tag_72\n        /* \"UniswapV2_Chinese-master/v2-periphery/contracts/libraries/UniswapV2LiquidityMathLibrary.sol\":1281:1299  reserveA.mul(1000) */\n      and\n      jump\t// in\n    tag_85:\n        /* \"UniswapV2_Chinese-master/v2-periphery/contracts/libraries/UniswapV2LiquidityMathLibrary.sol\":1273:1327  (aToB ? reserveA.mul(1000) : reserveB.mul(1000)) / 997 */\n      dup2\n      tag_86\n      jumpi\n      invalid\n    tag_86:\n      div\n        /* \"UniswapV2_Chinese-master/v2-periphery/contracts/libraries/UniswapV2LiquidityMathLibrary.sol\":1253:1327  uint256 rightSide = (aToB ? reserveA.mul(1000) : reserveB.mul(1000)) / 997 */\n      swap1\n      pop\n        /* \"UniswapV2_Chinese-master/v2-periphery/contracts/libraries/UniswapV2LiquidityMathLibrary.sol\":1353:1362  rightSide */\n      dup1\n        /* \"UniswapV2_Chinese-master/v2-periphery/contracts/libraries/UniswapV2LiquidityMathLibrary.sol\":1342:1350  leftSide */\n      dup3\n        /* \"UniswapV2_Chinese-master/v2-periphery/contracts/libraries/UniswapV2LiquidityMathLibrary.sol\":1342:1362  leftSide < rightSide */\n      lt\n        /* \"UniswapV2_Chinese-master/v2-periphery/contracts/libraries/UniswapV2LiquidityMathLibrary.sol\":1338:1381  if (leftSide < rightSide) return (false, 0) */\n      iszero\n      tag_87\n      jumpi\n      pop\n        /* \"UniswapV2_Chinese-master/v2-periphery/contracts/libraries/UniswapV2LiquidityMathLibrary.sol\":1372:1377  false */\n      0x00\n      swap4\n      pop\n      dup4\n      swap3\n      pop\n        /* \"UniswapV2_Chinese-master/v2-periphery/contracts/libraries/UniswapV2LiquidityMathLibrary.sol\":1364:1381  return (false, 0) */\n      tag_35\n      swap2\n      pop\n      pop\n      jump\n        /* \"UniswapV2_Chinese-master/v2-periphery/contracts/libraries/UniswapV2LiquidityMathLibrary.sol\":1338:1381  if (leftSide < rightSide) return (false, 0) */\n    tag_87:\n        /* \"UniswapV2_Chinese-master/v2-periphery/contracts/libraries/UniswapV2LiquidityMathLibrary.sol\":1480:1503  leftSide.sub(rightSide) */\n      tag_88\n        /* \"UniswapV2_Chinese-master/v2-periphery/contracts/libraries/UniswapV2LiquidityMathLibrary.sol\":1480:1488  leftSide */\n      dup3\n        /* \"UniswapV2_Chinese-master/v2-periphery/contracts/libraries/UniswapV2LiquidityMathLibrary.sol\":1493:1502  rightSide */\n      dup3\n        /* \"UniswapV2_Chinese-master/v2-periphery/contracts/libraries/UniswapV2LiquidityMathLibrary.sol\":1480:1503  leftSide.sub(rightSide) */\n      0xffffffff\n        /* \"UniswapV2_Chinese-master/v2-periphery/contracts/libraries/UniswapV2LiquidityMathLibrary.sol\":1480:1492  leftSide.sub */\n      tag_89\n        /* \"UniswapV2_Chinese-master/v2-periphery/contracts/libraries/UniswapV2LiquidityMathLibrary.sol\":1480:1503  leftSide.sub(rightSide) */\n      and\n      jump\t// in\n    tag_88:\n        /* \"UniswapV2_Chinese-master/v2-periphery/contracts/libraries/UniswapV2LiquidityMathLibrary.sol\":1469:1503  amountIn = leftSide.sub(rightSide) */\n      swap4\n      pop\n        /* \"UniswapV2_Chinese-master/v2-periphery/contracts/libraries/UniswapV2LiquidityMathLibrary.sol\":627:1510  function computeProfitMaximizingTrade(... */\n      pop\n      pop\n      pop\n      swap5\n      pop\n      swap5\n      swap3\n      pop\n      pop\n      pop\n      jump\t// out\n        /* \"UniswapV2_Chinese-master/v2-periphery/contracts/libraries/UniswapV2Library.sol\":2031:2637  function getAmountOut(uint amountIn, uint reserveIn, uint reserveOut) internal pure returns (uint amountOut) {... */\n    tag_43:\n        /* \"UniswapV2_Chinese-master/v2-periphery/contracts/libraries/UniswapV2Library.sol\":2124:2138  uint amountOut */\n      0x00\n        /* \"UniswapV2_Chinese-master/v2-periphery/contracts/libraries/UniswapV2Library.sol\":2169:2170  0 */\n      dup1\n        /* \"UniswapV2_Chinese-master/v2-periphery/contracts/libraries/UniswapV2Library.sol\":2158:2166  amountIn */\n      dup5\n        /* \"UniswapV2_Chinese-master/v2-periphery/contracts/libraries/UniswapV2Library.sol\":2158:2170  amountIn > 0 */\n      gt\n        /* \"UniswapV2_Chinese-master/v2-periphery/contracts/libraries/UniswapV2Library.sol\":2150:2218  require(amountIn > 0, 'UniswapV2Library: INSUFFICIENT_INPUT_AMOUNT') */\n      tag_91\n      jumpi\n      mload(0x40)\n      shl(0xe5, 0x461bcd)\n      dup2\n      mstore\n      0x04\n      add\n      dup1\n      dup1\n      0x20\n      add\n      dup3\n      dup2\n      sub\n      dup3\n      mstore\n      0x2b\n      dup2\n      mstore\n      0x20\n      add\n      dup1\n      data_ec21b006eb37ef20d0f4abcabd34de6854fa68af48294244e0263dc05c1dbbae\n      0x2b\n      swap2\n      codecopy\n      0x40\n      add\n      swap2\n      pop\n      pop\n      mload(0x40)\n      dup1\n      swap2\n      sub\n      swap1\n      revert\n    tag_91:\n        /* \"UniswapV2_Chinese-master/v2-periphery/contracts/libraries/UniswapV2Library.sol\":2248:2249  0 */\n      0x00\n        /* \"UniswapV2_Chinese-master/v2-periphery/contracts/libraries/UniswapV2Library.sol\":2236:2245  reserveIn */\n      dup4\n        /* \"UniswapV2_Chinese-master/v2-periphery/contracts/libraries/UniswapV2Library.sol\":2236:2249  reserveIn > 0 */\n      gt\n        /* \"UniswapV2_Chinese-master/v2-periphery/contracts/libraries/UniswapV2Library.sol\":2236:2267  reserveIn > 0 && reserveOut > 0 */\n      dup1\n      iszero\n      tag_92\n      jumpi\n      pop\n        /* \"UniswapV2_Chinese-master/v2-periphery/contracts/libraries/UniswapV2Library.sol\":2266:2267  0 */\n      0x00\n        /* \"UniswapV2_Chinese-master/v2-periphery/contracts/libraries/UniswapV2Library.sol\":2253:2263  reserveOut */\n      dup3\n        /* \"UniswapV2_Chinese-master/v2-periphery/contracts/libraries/UniswapV2Library.sol\":2253:2267  reserveOut > 0 */\n      gt\n        /* \"UniswapV2_Chinese-master/v2-periphery/contracts/libraries/UniswapV2Library.sol\":2236:2267  reserveIn > 0 && reserveOut > 0 */\n    tag_92:\n        /* \"UniswapV2_Chinese-master/v2-periphery/contracts/libraries/UniswapV2Library.sol\":2228:2312  require(reserveIn > 0 && reserveOut > 0, 'UniswapV2Library: INSUFFICIENT_LIQUIDITY') */\n      tag_93\n      jumpi\n      mload(0x40)\n      shl(0xe5, 0x461bcd)\n      dup2\n      mstore\n      0x04\n      add\n      dup1\n      dup1\n      0x20\n      add\n      dup3\n      dup2\n      sub\n      dup3\n      mstore\n      0x28\n      dup2\n      mstore\n      0x20\n      add\n      dup1\n      data_7e8d6b265173dbbd87b3b9e2bf4238bea6caf2b2bbeb63f859a738aec9e761c8\n      0x28\n      swap2\n      codecopy\n      0x40\n      add\n      swap2\n      pop\n      pop\n      mload(0x40)\n      dup1\n      swap2\n      sub\n      swap1\n      revert\n    tag_93:\n        /* \"UniswapV2_Chinese-master/v2-periphery/contracts/libraries/UniswapV2Library.sol\":2322:2342  uint amountInWithFee */\n      0x00\n        /* \"UniswapV2_Chinese-master/v2-periphery/contracts/libraries/UniswapV2Library.sol\":2345:2362  amountIn.mul(997) */\n      tag_94\n        /* \"UniswapV2_Chinese-master/v2-periphery/contracts/libraries/UniswapV2Library.sol\":2345:2353  amountIn */\n      dup6\n        /* \"UniswapV2_Chinese-master/v2-periphery/contracts/libraries/UniswapV2Library.sol\":2358:2361  997 */\n      0x03e5\n        /* \"UniswapV2_Chinese-master/v2-periphery/contracts/libraries/UniswapV2Library.sol\":2345:2362  amountIn.mul(997) */\n      0xffffffff\n        /* \"UniswapV2_Chinese-master/v2-periphery/contracts/libraries/UniswapV2Library.sol\":2345:2357  amountIn.mul */\n      tag_72\n        /* \"UniswapV2_Chinese-master/v2-periphery/contracts/libraries/UniswapV2Library.sol\":2345:2362  amountIn.mul(997) */\n      and\n      jump\t// in\n    tag_94:\n        /* \"UniswapV2_Chinese-master/v2-periphery/contracts/libraries/UniswapV2Library.sol\":2322:2362  uint amountInWithFee = amountIn.mul(997) */\n      swap1\n      pop\n        /* \"UniswapV2_Chinese-master/v2-periphery/contracts/libraries/UniswapV2Library.sol\":2372:2386  uint numerator */\n      0x00\n        /* \"UniswapV2_Chinese-master/v2-periphery/contracts/libraries/UniswapV2Library.sol\":2389:2420  amountInWithFee.mul(reserveOut) */\n      tag_95\n        /* \"UniswapV2_Chinese-master/v2-periphery/contracts/libraries/UniswapV2Library.sol\":2322:2362  uint amountInWithFee = amountIn.mul(997) */\n      dup3\n        /* \"UniswapV2_Chinese-master/v2-periphery/contracts/libraries/UniswapV2Library.sol\":2409:2419  reserveOut */\n      dup6\n        /* \"UniswapV2_Chinese-master/v2-periphery/contracts/libraries/UniswapV2Library.sol\":2389:2420  amountInWithFee.mul(reserveOut) */\n      0xffffffff\n        /* \"UniswapV2_Chinese-master/v2-periphery/contracts/libraries/UniswapV2Library.sol\":2389:2408  amountInWithFee.mul */\n      tag_72\n        /* \"UniswapV2_Chinese-master/v2-periphery/contracts/libraries/UniswapV2Library.sol\":2389:2420  amountInWithFee.mul(reserveOut) */\n      and\n      jump\t// in\n    tag_95:\n        /* \"UniswapV2_Chinese-master/v2-periphery/contracts/libraries/UniswapV2Library.sol\":2372:2420  uint numerator = amountInWithFee.mul(reserveOut) */\n      swap1\n      pop\n        /* \"UniswapV2_Chinese-master/v2-periphery/contracts/libraries/UniswapV2Library.sol\":2430:2446  uint denominator */\n      0x00\n        /* \"UniswapV2_Chinese-master/v2-periphery/contracts/libraries/UniswapV2Library.sol\":2449:2489  reserveIn.mul(1000).add(amountInWithFee) */\n      tag_96\n        /* \"UniswapV2_Chinese-master/v2-periphery/contracts/libraries/UniswapV2Library.sol\":2473:2488  amountInWithFee */\n      dup4\n        /* \"UniswapV2_Chinese-master/v2-periphery/contracts/libraries/UniswapV2Library.sol\":2449:2468  reserveIn.mul(1000) */\n      tag_97\n        /* \"UniswapV2_Chinese-master/v2-periphery/contracts/libraries/UniswapV2Library.sol\":2449:2458  reserveIn */\n      dup9\n        /* \"UniswapV2_Chinese-master/v2-periphery/contracts/libraries/UniswapV2Library.sol\":2463:2467  1000 */\n      0x03e8\n        /* \"UniswapV2_Chinese-master/v2-periphery/contracts/libraries/UniswapV2Library.sol\":2449:2468  reserveIn.mul(1000) */\n      0xffffffff\n        /* \"UniswapV2_Chinese-master/v2-periphery/contracts/libraries/UniswapV2Library.sol\":2449:2462  reserveIn.mul */\n      tag_72\n        /* \"UniswapV2_Chinese-master/v2-periphery/contracts/libraries/UniswapV2Library.sol\":2449:2468  reserveIn.mul(1000) */\n      and\n      jump\t// in\n    tag_97:\n        /* \"UniswapV2_Chinese-master/v2-periphery/contracts/libraries/UniswapV2Library.sol\":2449:2472  reserveIn.mul(1000).add */\n      swap1\n        /* \"UniswapV2_Chinese-master/v2-periphery/contracts/libraries/UniswapV2Library.sol\":2449:2489  reserveIn.mul(1000).add(amountInWithFee) */\n      0xffffffff\n        /* \"UniswapV2_Chinese-master/v2-periphery/contracts/libraries/UniswapV2Library.sol\":2449:2472  reserveIn.mul(1000).add */\n      tag_98\n        /* \"UniswapV2_Chinese-master/v2-periphery/contracts/libraries/UniswapV2Library.sol\":2449:2489  reserveIn.mul(1000).add(amountInWithFee) */\n      and\n      jump\t// in\n    tag_96:\n        /* \"UniswapV2_Chinese-master/v2-periphery/contracts/libraries/UniswapV2Library.sol\":2430:2489  uint denominator = reserveIn.mul(1000).add(amountInWithFee) */\n      swap1\n      pop\n        /* \"UniswapV2_Chinese-master/v2-periphery/contracts/libraries/UniswapV2Library.sol\":2619:2630  denominator */\n      dup1\n        /* \"UniswapV2_Chinese-master/v2-periphery/contracts/libraries/UniswapV2Library.sol\":2607:2616  numerator */\n      dup3\n        /* \"UniswapV2_Chinese-master/v2-periphery/contracts/libraries/UniswapV2Library.sol\":2607:2630  numerator / denominator */\n      dup2\n      tag_99\n      jumpi\n      invalid\n    tag_99:\n      div\n      swap8\n        /* \"UniswapV2_Chinese-master/v2-periphery/contracts/libraries/UniswapV2Library.sol\":2031:2637  function getAmountOut(uint amountIn, uint reserveIn, uint reserveOut) internal pure returns (uint amountOut) {... */\n      swap7\n      pop\n      pop\n      pop\n      pop\n      pop\n      pop\n      pop\n      jump\t// out\n        /* \"UniswapV2_Chinese-master/v2-periphery/contracts/libraries/UniswapV2LiquidityMathLibrary.sol\":5893:6918  function getLiquidityValueAfterArbitrageToPrice(... */\n    tag_48:\n        /* \"UniswapV2_Chinese-master/v2-periphery/contracts/libraries/UniswapV2LiquidityMathLibrary.sol\":6142:6162  uint256 tokenAAmount */\n      0x00\n        /* \"UniswapV2_Chinese-master/v2-periphery/contracts/libraries/UniswapV2LiquidityMathLibrary.sol\":6164:6184  uint256 tokenBAmount */\n      dup1\n        /* \"UniswapV2_Chinese-master/v2-periphery/contracts/libraries/UniswapV2LiquidityMathLibrary.sol\":6196:6206  bool feeOn */\n      0x00\n        /* \"UniswapV2_Chinese-master/v2-periphery/contracts/libraries/UniswapV2LiquidityMathLibrary.sol\":6255:6256  0 */\n      dup1\n      sub(shl(0xa0, 0x01), 0x01)\n        /* \"UniswapV2_Chinese-master/v2-periphery/contracts/libraries/UniswapV2LiquidityMathLibrary.sol\":6209:6257  IUniswapV2Factory(factory).feeTo() != address(0) */\n      and\n        /* \"UniswapV2_Chinese-master/v2-periphery/contracts/libraries/UniswapV2LiquidityMathLibrary.sol\":6227:6234  factory */\n      dup10\n      sub(shl(0xa0, 0x01), 0x01)\n        /* \"UniswapV2_Chinese-master/v2-periphery/contracts/libraries/UniswapV2LiquidityMathLibrary.sol\":6209:6241  IUniswapV2Factory(factory).feeTo */\n      and\n      0x017e7e58\n        /* \"UniswapV2_Chinese-master/v2-periphery/contracts/libraries/UniswapV2LiquidityMathLibrary.sol\":6209:6243  IUniswapV2Factory(factory).feeTo() */\n      mload(0x40)\n      dup2\n      0xffffffff\n      and\n      0xe0\n      shl\n      dup2\n      mstore\n      0x04\n      add\n      0x20\n      mload(0x40)\n      dup1\n      dup4\n      sub\n      dup2\n      dup7\n      dup1\n      extcodesize\n      iszero\n        /* \"--CODEGEN--\":5:14   */\n      dup1\n        /* \"--CODEGEN--\":2:4   */\n      iszero\n      tag_101\n      jumpi\n        /* \"--CODEGEN--\":27:28   */\n      0x00\n        /* \"--CODEGEN--\":24:25   */\n      dup1\n        /* \"--CODEGEN--\":17:29   */\n      revert\n        /* \"--CODEGEN--\":2:4   */\n    tag_101:\n        /* \"UniswapV2_Chinese-master/v2-periphery/contracts/libraries/UniswapV2LiquidityMathLibrary.sol\":6209:6243  IUniswapV2Factory(factory).feeTo() */\n      pop\n      gas\n      staticcall\n      iszero\n        /* \"--CODEGEN--\":8:17   */\n      dup1\n        /* \"--CODEGEN--\":5:7   */\n      iszero\n      tag_103\n      jumpi\n        /* \"--CODEGEN--\":45:61   */\n      returndatasize\n        /* \"--CODEGEN--\":42:43   */\n      0x00\n        /* \"--CODEGEN--\":39:40   */\n      dup1\n        /* \"--CODEGEN--\":24:62   */\n      returndatacopy\n        /* \"--CODEGEN--\":77:93   */\n      returndatasize\n        /* \"--CODEGEN--\":74:75   */\n      0x00\n        /* \"--CODEGEN--\":67:94   */\n      revert\n        /* \"--CODEGEN--\":5:7   */\n    tag_103:\n        /* \"UniswapV2_Chinese-master/v2-periphery/contracts/libraries/UniswapV2LiquidityMathLibrary.sol\":6209:6243  IUniswapV2Factory(factory).feeTo() */\n      pop\n      pop\n      pop\n      pop\n      mload(0x40)\n      returndatasize\n        /* \"--CODEGEN--\":15:17   */\n      0x20\n        /* \"--CODEGEN--\":10:13   */\n      dup2\n        /* \"--CODEGEN--\":7:18   */\n      lt\n        /* \"--CODEGEN--\":4:6   */\n      iszero\n      tag_104\n      jumpi\n        /* \"--CODEGEN--\":31:32   */\n      0x00\n        /* \"--CODEGEN--\":28:29   */\n      dup1\n        /* \"--CODEGEN--\":21:33   */\n      revert\n        /* \"--CODEGEN--\":4:6   */\n    tag_104:\n      pop\n        /* \"UniswapV2_Chinese-master/v2-periphery/contracts/libraries/UniswapV2LiquidityMathLibrary.sol\":6209:6243  IUniswapV2Factory(factory).feeTo() */\n      mload\n      sub(shl(0xa0, 0x01), 0x01)\n        /* \"UniswapV2_Chinese-master/v2-periphery/contracts/libraries/UniswapV2LiquidityMathLibrary.sol\":6209:6257  IUniswapV2Factory(factory).feeTo() != address(0) */\n      and\n      eq\n      iszero\n      swap1\n      pop\n        /* \"UniswapV2_Chinese-master/v2-periphery/contracts/libraries/UniswapV2LiquidityMathLibrary.sol\":6267:6286  IUniswapV2Pair pair */\n      0x00\n        /* \"UniswapV2_Chinese-master/v2-periphery/contracts/libraries/UniswapV2LiquidityMathLibrary.sol\":6304:6353  UniswapV2Library.pairFor(factory, tokenA, tokenB) */\n      tag_105\n        /* \"UniswapV2_Chinese-master/v2-periphery/contracts/libraries/UniswapV2LiquidityMathLibrary.sol\":6329:6336  factory */\n      dup11\n        /* \"UniswapV2_Chinese-master/v2-periphery/contracts/libraries/UniswapV2LiquidityMathLibrary.sol\":6338:6344  tokenA */\n      dup11\n        /* \"UniswapV2_Chinese-master/v2-periphery/contracts/libraries/UniswapV2LiquidityMathLibrary.sol\":6346:6352  tokenB */\n      dup11\n        /* \"UniswapV2_Chinese-master/v2-periphery/contracts/libraries/UniswapV2LiquidityMathLibrary.sol\":6304:6328  UniswapV2Library.pairFor */\n      tag_106\n        /* \"UniswapV2_Chinese-master/v2-periphery/contracts/libraries/UniswapV2LiquidityMathLibrary.sol\":6304:6353  UniswapV2Library.pairFor(factory, tokenA, tokenB) */\n      jump\t// in\n    tag_105:\n        /* \"UniswapV2_Chinese-master/v2-periphery/contracts/libraries/UniswapV2LiquidityMathLibrary.sol\":6267:6354  IUniswapV2Pair pair = IUniswapV2Pair(UniswapV2Library.pairFor(factory, tokenA, tokenB)) */\n      swap1\n      pop\n        /* \"UniswapV2_Chinese-master/v2-periphery/contracts/libraries/UniswapV2LiquidityMathLibrary.sol\":6364:6374  uint kLast */\n      0x00\n        /* \"UniswapV2_Chinese-master/v2-periphery/contracts/libraries/UniswapV2LiquidityMathLibrary.sol\":6377:6382  feeOn */\n      dup3\n        /* \"UniswapV2_Chinese-master/v2-periphery/contracts/libraries/UniswapV2LiquidityMathLibrary.sol\":6377:6401  feeOn ? pair.kLast() : 0 */\n      tag_107\n      jumpi\n        /* \"UniswapV2_Chinese-master/v2-periphery/contracts/libraries/UniswapV2LiquidityMathLibrary.sol\":6400:6401  0 */\n      0x00\n        /* \"UniswapV2_Chinese-master/v2-periphery/contracts/libraries/UniswapV2LiquidityMathLibrary.sol\":6377:6401  feeOn ? pair.kLast() : 0 */\n      jump(tag_108)\n    tag_107:\n        /* \"UniswapV2_Chinese-master/v2-periphery/contracts/libraries/UniswapV2LiquidityMathLibrary.sol\":6385:6389  pair */\n      dup2\n      sub(shl(0xa0, 0x01), 0x01)\n        /* \"UniswapV2_Chinese-master/v2-periphery/contracts/libraries/UniswapV2LiquidityMathLibrary.sol\":6385:6395  pair.kLast */\n      and\n      0x7464fc3d\n        /* \"UniswapV2_Chinese-master/v2-periphery/contracts/libraries/UniswapV2LiquidityMathLibrary.sol\":6385:6397  pair.kLast() */\n      mload(0x40)\n      dup2\n      0xffffffff\n      and\n      0xe0\n      shl\n      dup2\n      mstore\n      0x04\n      add\n      0x20\n      mload(0x40)\n      dup1\n      dup4\n      sub\n      dup2\n      dup7\n      dup1\n      extcodesize\n      iszero\n        /* \"--CODEGEN--\":5:14   */\n      dup1\n        /* \"--CODEGEN--\":2:4   */\n      iszero\n      tag_109\n      jumpi\n        /* \"--CODEGEN--\":27:28   */\n      0x00\n        /* \"--CODEGEN--\":24:25   */\n      dup1\n        /* \"--CODEGEN--\":17:29   */\n      revert\n        /* \"--CODEGEN--\":2:4   */\n    tag_109:\n        /* \"UniswapV2_Chinese-master/v2-periphery/contracts/libraries/UniswapV2LiquidityMathLibrary.sol\":6385:6397  pair.kLast() */\n      pop\n      gas\n      staticcall\n      iszero\n        /* \"--CODEGEN--\":8:17   */\n      dup1\n        /* \"--CODEGEN--\":5:7   */\n      iszero\n      tag_111\n      jumpi\n        /* \"--CODEGEN--\":45:61   */\n      returndatasize\n        /* \"--CODEGEN--\":42:43   */\n      0x00\n        /* \"--CODEGEN--\":39:40   */\n      dup1\n        /* \"--CODEGEN--\":24:62   */\n      returndatacopy\n        /* \"--CODEGEN--\":77:93   */\n      returndatasize\n        /* \"--CODEGEN--\":74:75   */\n      0x00\n        /* \"--CODEGEN--\":67:94   */\n      revert\n        /* \"--CODEGEN--\":5:7   */\n    tag_111:\n        /* \"UniswapV2_Chinese-master/v2-periphery/contracts/libraries/UniswapV2LiquidityMathLibrary.sol\":6385:6397  pair.kLast() */\n      pop\n      pop\n      pop\n      pop\n      mload(0x40)\n      returndatasize\n        /* \"--CODEGEN--\":15:17   */\n      0x20\n        /* \"--CODEGEN--\":10:13   */\n      dup2\n        /* \"--CODEGEN--\":7:18   */\n      lt\n        /* \"--CODEGEN--\":4:6   */\n      iszero\n      tag_112\n      jumpi\n        /* \"--CODEGEN--\":31:32   */\n      0x00\n        /* \"--CODEGEN--\":28:29   */\n      dup1\n        /* \"--CODEGEN--\":21:33   */\n      revert\n        /* \"--CODEGEN--\":4:6   */\n    tag_112:\n      pop\n        /* \"UniswapV2_Chinese-master/v2-periphery/contracts/libraries/UniswapV2LiquidityMathLibrary.sol\":6385:6397  pair.kLast() */\n      mload\n        /* \"UniswapV2_Chinese-master/v2-periphery/contracts/libraries/UniswapV2LiquidityMathLibrary.sol\":6377:6401  feeOn ? pair.kLast() : 0 */\n    tag_108:\n        /* \"UniswapV2_Chinese-master/v2-periphery/contracts/libraries/UniswapV2LiquidityMathLibrary.sol\":6364:6401  uint kLast = feeOn ? pair.kLast() : 0 */\n      swap1\n      pop\n        /* \"UniswapV2_Chinese-master/v2-periphery/contracts/libraries/UniswapV2LiquidityMathLibrary.sol\":6411:6427  uint totalSupply */\n      0x00\n        /* \"UniswapV2_Chinese-master/v2-periphery/contracts/libraries/UniswapV2LiquidityMathLibrary.sol\":6430:6434  pair */\n      dup3\n      sub(shl(0xa0, 0x01), 0x01)\n        /* \"UniswapV2_Chinese-master/v2-periphery/contracts/libraries/UniswapV2LiquidityMathLibrary.sol\":6430:6446  pair.totalSupply */\n      and\n      0x18160ddd\n        /* \"UniswapV2_Chinese-master/v2-periphery/contracts/libraries/UniswapV2LiquidityMathLibrary.sol\":6430:6448  pair.totalSupply() */\n      mload(0x40)\n      dup2\n      0xffffffff\n      and\n      0xe0\n      shl\n      dup2\n      mstore\n      0x04\n      add\n      0x20\n      mload(0x40)\n      dup1\n      dup4\n      sub\n      dup2\n      dup7\n      dup1\n      extcodesize\n      iszero\n        /* \"--CODEGEN--\":5:14   */\n      dup1\n        /* \"--CODEGEN--\":2:4   */\n      iszero\n      tag_113\n      jumpi\n        /* \"--CODEGEN--\":27:28   */\n      0x00\n        /* \"--CODEGEN--\":24:25   */\n      dup1\n        /* \"--CODEGEN--\":17:29   */\n      revert\n        /* \"--CODEGEN--\":2:4   */\n    tag_113:\n        /* \"UniswapV2_Chinese-master/v2-periphery/contracts/libraries/UniswapV2LiquidityMathLibrary.sol\":6430:6448  pair.totalSupply() */\n      pop\n      gas\n      staticcall\n      iszero\n        /* \"--CODEGEN--\":8:17   */\n      dup1\n        /* \"--CODEGEN--\":5:7   */\n      iszero\n      tag_115\n      jumpi\n        /* \"--CODEGEN--\":45:61   */\n      returndatasize\n        /* \"--CODEGEN--\":42:43   */\n      0x00\n        /* \"--CODEGEN--\":39:40   */\n      dup1\n        /* \"--CODEGEN--\":24:62   */\n      returndatacopy\n        /* \"--CODEGEN--\":77:93   */\n      returndatasize\n        /* \"--CODEGEN--\":74:75   */\n      0x00\n        /* \"--CODEGEN--\":67:94   */\n      revert\n        /* \"--CODEGEN--\":5:7   */\n    tag_115:\n        /* \"UniswapV2_Chinese-master/v2-periphery/contracts/libraries/UniswapV2LiquidityMathLibrary.sol\":6430:6448  pair.totalSupply() */\n      pop\n      pop\n      pop\n      pop\n      mload(0x40)\n      returndatasize\n        /* \"--CODEGEN--\":15:17   */\n      0x20\n        /* \"--CODEGEN--\":10:13   */\n      dup2\n        /* \"--CODEGEN--\":7:18   */\n      lt\n        /* \"--CODEGEN--\":4:6   */\n      iszero\n      tag_116\n      jumpi\n        /* \"--CODEGEN--\":31:32   */\n      0x00\n        /* \"--CODEGEN--\":28:29   */\n      dup1\n        /* \"--CODEGEN--\":21:33   */\n      revert\n        /* \"--CODEGEN--\":4:6   */\n    tag_116:\n      pop\n        /* \"UniswapV2_Chinese-master/v2-periphery/contracts/libraries/UniswapV2LiquidityMathLibrary.sol\":6430:6448  pair.totalSupply() */\n      mload\n      swap1\n      pop\n        /* \"UniswapV2_Chinese-master/v2-periphery/contracts/libraries/UniswapV2LiquidityMathLibrary.sol\":6509:6539  totalSupply >= liquidityAmount */\n      dup7\n      dup2\n      lt\n      dup1\n      iszero\n      swap1\n        /* \"UniswapV2_Chinese-master/v2-periphery/contracts/libraries/UniswapV2LiquidityMathLibrary.sol\":6509:6562  totalSupply >= liquidityAmount && liquidityAmount > 0 */\n      tag_117\n      jumpi\n      pop\n        /* \"UniswapV2_Chinese-master/v2-periphery/contracts/libraries/UniswapV2LiquidityMathLibrary.sol\":6561:6562  0 */\n      0x00\n        /* \"UniswapV2_Chinese-master/v2-periphery/contracts/libraries/UniswapV2LiquidityMathLibrary.sol\":6543:6558  liquidityAmount */\n      dup8\n        /* \"UniswapV2_Chinese-master/v2-periphery/contracts/libraries/UniswapV2LiquidityMathLibrary.sol\":6543:6562  liquidityAmount > 0 */\n      gt\n        /* \"UniswapV2_Chinese-master/v2-periphery/contracts/libraries/UniswapV2LiquidityMathLibrary.sol\":6509:6562  totalSupply >= liquidityAmount && liquidityAmount > 0 */\n    tag_117:\n        /* \"UniswapV2_Chinese-master/v2-periphery/contracts/libraries/UniswapV2LiquidityMathLibrary.sol\":6501:6606  require(totalSupply >= liquidityAmount && liquidityAmount > 0, 'ComputeLiquidityValue: LIQUIDITY_AMOUNT') */\n      tag_118\n      jumpi\n      mload(0x40)\n      shl(0xe5, 0x461bcd)\n      dup2\n      mstore\n      0x04\n      add\n      dup1\n      dup1\n      0x20\n      add\n      dup3\n      dup2\n      sub\n      dup3\n      mstore\n      0x27\n      dup2\n      mstore\n      0x20\n      add\n      dup1\n      data_eba3c4b4bce1b370b996e883c442849cfe288700c2faa2de6af84d237654e6b8\n      0x27\n      swap2\n      codecopy\n      0x40\n      add\n      swap2\n      pop\n      pop\n      mload(0x40)\n      dup1\n      swap2\n      sub\n      swap1\n      revert\n    tag_118:\n        /* \"UniswapV2_Chinese-master/v2-periphery/contracts/libraries/UniswapV2LiquidityMathLibrary.sol\":6618:6632  uint reservesA */\n      0x00\n        /* \"UniswapV2_Chinese-master/v2-periphery/contracts/libraries/UniswapV2LiquidityMathLibrary.sol\":6634:6648  uint reservesB */\n      dup1\n        /* \"UniswapV2_Chinese-master/v2-periphery/contracts/libraries/UniswapV2LiquidityMathLibrary.sol\":6652:6806  getReservesAfterArbitrage(... */\n      tag_119\n        /* \"UniswapV2_Chinese-master/v2-periphery/contracts/libraries/UniswapV2LiquidityMathLibrary.sol\":6691:6698  factory */\n      dup15\n        /* \"UniswapV2_Chinese-master/v2-periphery/contracts/libraries/UniswapV2LiquidityMathLibrary.sol\":6712:6718  tokenA */\n      dup15\n        /* \"UniswapV2_Chinese-master/v2-periphery/contracts/libraries/UniswapV2LiquidityMathLibrary.sol\":6732:6738  tokenB */\n      dup15\n        /* \"UniswapV2_Chinese-master/v2-periphery/contracts/libraries/UniswapV2LiquidityMathLibrary.sol\":6752:6767  truePriceTokenA */\n      dup15\n        /* \"UniswapV2_Chinese-master/v2-periphery/contracts/libraries/UniswapV2LiquidityMathLibrary.sol\":6781:6796  truePriceTokenB */\n      dup15\n        /* \"UniswapV2_Chinese-master/v2-periphery/contracts/libraries/UniswapV2LiquidityMathLibrary.sol\":6652:6677  getReservesAfterArbitrage */\n      tag_120\n        /* \"UniswapV2_Chinese-master/v2-periphery/contracts/libraries/UniswapV2LiquidityMathLibrary.sol\":6652:6806  getReservesAfterArbitrage(... */\n      jump\t// in\n    tag_119:\n        /* \"UniswapV2_Chinese-master/v2-periphery/contracts/libraries/UniswapV2LiquidityMathLibrary.sol\":6617:6806  (uint reservesA, uint reservesB) = getReservesAfterArbitrage(... */\n      swap2\n      pop\n      swap2\n      pop\n        /* \"UniswapV2_Chinese-master/v2-periphery/contracts/libraries/UniswapV2LiquidityMathLibrary.sol\":6824:6911  computeLiquidityValue(reservesA, reservesB, totalSupply, liquidityAmount, feeOn, kLast) */\n      tag_121\n        /* \"UniswapV2_Chinese-master/v2-periphery/contracts/libraries/UniswapV2LiquidityMathLibrary.sol\":6846:6855  reservesA */\n      dup3\n        /* \"UniswapV2_Chinese-master/v2-periphery/contracts/libraries/UniswapV2LiquidityMathLibrary.sol\":6857:6866  reservesB */\n      dup3\n        /* \"UniswapV2_Chinese-master/v2-periphery/contracts/libraries/UniswapV2LiquidityMathLibrary.sol\":6868:6879  totalSupply */\n      dup6\n        /* \"UniswapV2_Chinese-master/v2-periphery/contracts/libraries/UniswapV2LiquidityMathLibrary.sol\":6881:6896  liquidityAmount */\n      dup13\n        /* \"UniswapV2_Chinese-master/v2-periphery/contracts/libraries/UniswapV2LiquidityMathLibrary.sol\":6898:6903  feeOn */\n      dup11\n        /* \"UniswapV2_Chinese-master/v2-periphery/contracts/libraries/UniswapV2LiquidityMathLibrary.sol\":6905:6910  kLast */\n      dup10\n        /* \"UniswapV2_Chinese-master/v2-periphery/contracts/libraries/UniswapV2LiquidityMathLibrary.sol\":6824:6845  computeLiquidityValue */\n      tag_122\n        /* \"UniswapV2_Chinese-master/v2-periphery/contracts/libraries/UniswapV2LiquidityMathLibrary.sol\":6824:6911  computeLiquidityValue(reservesA, reservesB, totalSupply, liquidityAmount, feeOn, kLast) */\n      jump\t// in\n    tag_121:\n        /* \"UniswapV2_Chinese-master/v2-periphery/contracts/libraries/UniswapV2LiquidityMathLibrary.sol\":6817:6911  return computeLiquidityValue(reservesA, reservesB, totalSupply, liquidityAmount, feeOn, kLast) */\n      swap8\n      pop\n      swap8\n      pop\n      pop\n      pop\n      pop\n      pop\n      pop\n      pop\n        /* \"UniswapV2_Chinese-master/v2-periphery/contracts/libraries/UniswapV2LiquidityMathLibrary.sol\":5893:6918  function getLiquidityValueAfterArbitrageToPrice(... */\n      swap7\n      pop\n      swap7\n      swap5\n      pop\n      pop\n      pop\n      pop\n      pop\n      jump\t// out\n        /* \"UniswapV2_Chinese-master/v2-periphery/contracts/libraries/UniswapV2LiquidityMathLibrary.sol\":4989:5672  function getLiquidityValue(... */\n    tag_53:\n        /* \"UniswapV2_Chinese-master/v2-periphery/contracts/libraries/UniswapV2LiquidityMathLibrary.sol\":5151:5171  uint256 tokenAAmount */\n      0x00\n        /* \"UniswapV2_Chinese-master/v2-periphery/contracts/libraries/UniswapV2LiquidityMathLibrary.sol\":5173:5193  uint256 tokenBAmount */\n      dup1\n        /* \"UniswapV2_Chinese-master/v2-periphery/contracts/libraries/UniswapV2LiquidityMathLibrary.sol\":5206:5223  uint256 reservesA */\n      0x00\n        /* \"UniswapV2_Chinese-master/v2-periphery/contracts/libraries/UniswapV2LiquidityMathLibrary.sol\":5225:5242  uint256 reservesB */\n      dup1\n        /* \"UniswapV2_Chinese-master/v2-periphery/contracts/libraries/UniswapV2LiquidityMathLibrary.sol\":5246:5299  UniswapV2Library.getReserves(factory, tokenA, tokenB) */\n      tag_124\n        /* \"UniswapV2_Chinese-master/v2-periphery/contracts/libraries/UniswapV2LiquidityMathLibrary.sol\":5275:5282  factory */\n      dup9\n        /* \"UniswapV2_Chinese-master/v2-periphery/contracts/libraries/UniswapV2LiquidityMathLibrary.sol\":5284:5290  tokenA */\n      dup9\n        /* \"UniswapV2_Chinese-master/v2-periphery/contracts/libraries/UniswapV2LiquidityMathLibrary.sol\":5292:5298  tokenB */\n      dup9\n        /* \"UniswapV2_Chinese-master/v2-periphery/contracts/libraries/UniswapV2LiquidityMathLibrary.sol\":5246:5274  UniswapV2Library.getReserves */\n      tag_125\n        /* \"UniswapV2_Chinese-master/v2-periphery/contracts/libraries/UniswapV2LiquidityMathLibrary.sol\":5246:5299  UniswapV2Library.getReserves(factory, tokenA, tokenB) */\n      jump\t// in\n    tag_124:\n        /* \"UniswapV2_Chinese-master/v2-periphery/contracts/libraries/UniswapV2LiquidityMathLibrary.sol\":5205:5299  (uint256 reservesA, uint256 reservesB) = UniswapV2Library.getReserves(factory, tokenA, tokenB) */\n      swap2\n      pop\n      swap2\n      pop\n        /* \"UniswapV2_Chinese-master/v2-periphery/contracts/libraries/UniswapV2LiquidityMathLibrary.sol\":5309:5328  IUniswapV2Pair pair */\n      0x00\n        /* \"UniswapV2_Chinese-master/v2-periphery/contracts/libraries/UniswapV2LiquidityMathLibrary.sol\":5346:5395  UniswapV2Library.pairFor(factory, tokenA, tokenB) */\n      tag_126\n        /* \"UniswapV2_Chinese-master/v2-periphery/contracts/libraries/UniswapV2LiquidityMathLibrary.sol\":5371:5378  factory */\n      dup10\n        /* \"UniswapV2_Chinese-master/v2-periphery/contracts/libraries/UniswapV2LiquidityMathLibrary.sol\":5380:5386  tokenA */\n      dup10\n        /* \"UniswapV2_Chinese-master/v2-periphery/contracts/libraries/UniswapV2LiquidityMathLibrary.sol\":5388:5394  tokenB */\n      dup10\n        /* \"UniswapV2_Chinese-master/v2-periphery/contracts/libraries/UniswapV2LiquidityMathLibrary.sol\":5346:5370  UniswapV2Library.pairFor */\n      tag_106\n        /* \"UniswapV2_Chinese-master/v2-periphery/contracts/libraries/UniswapV2LiquidityMathLibrary.sol\":5346:5395  UniswapV2Library.pairFor(factory, tokenA, tokenB) */\n      jump\t// in\n    tag_126:\n        /* \"UniswapV2_Chinese-master/v2-periphery/contracts/libraries/UniswapV2LiquidityMathLibrary.sol\":5309:5396  IUniswapV2Pair pair = IUniswapV2Pair(UniswapV2Library.pairFor(factory, tokenA, tokenB)) */\n      swap1\n      pop\n        /* \"UniswapV2_Chinese-master/v2-periphery/contracts/libraries/UniswapV2LiquidityMathLibrary.sol\":5406:5416  bool feeOn */\n      0x00\n        /* \"UniswapV2_Chinese-master/v2-periphery/contracts/libraries/UniswapV2LiquidityMathLibrary.sol\":5465:5466  0 */\n      dup1\n      sub(shl(0xa0, 0x01), 0x01)\n        /* \"UniswapV2_Chinese-master/v2-periphery/contracts/libraries/UniswapV2LiquidityMathLibrary.sol\":5419:5467  IUniswapV2Factory(factory).feeTo() != address(0) */\n      and\n        /* \"UniswapV2_Chinese-master/v2-periphery/contracts/libraries/UniswapV2LiquidityMathLibrary.sol\":5437:5444  factory */\n      dup11\n      sub(shl(0xa0, 0x01), 0x01)\n        /* \"UniswapV2_Chinese-master/v2-periphery/contracts/libraries/UniswapV2LiquidityMathLibrary.sol\":5419:5451  IUniswapV2Factory(factory).feeTo */\n      and\n      0x017e7e58\n        /* \"UniswapV2_Chinese-master/v2-periphery/contracts/libraries/UniswapV2LiquidityMathLibrary.sol\":5419:5453  IUniswapV2Factory(factory).feeTo() */\n      mload(0x40)\n      dup2\n      0xffffffff\n      and\n      0xe0\n      shl\n      dup2\n      mstore\n      0x04\n      add\n      0x20\n      mload(0x40)\n      dup1\n      dup4\n      sub\n      dup2\n      dup7\n      dup1\n      extcodesize\n      iszero\n        /* \"--CODEGEN--\":5:14   */\n      dup1\n        /* \"--CODEGEN--\":2:4   */\n      iszero\n      tag_127\n      jumpi\n        /* \"--CODEGEN--\":27:28   */\n      0x00\n        /* \"--CODEGEN--\":24:25   */\n      dup1\n        /* \"--CODEGEN--\":17:29   */\n      revert\n        /* \"--CODEGEN--\":2:4   */\n    tag_127:\n        /* \"UniswapV2_Chinese-master/v2-periphery/contracts/libraries/UniswapV2LiquidityMathLibrary.sol\":5419:5453  IUniswapV2Factory(factory).feeTo() */\n      pop\n      gas\n      staticcall\n      iszero\n        /* \"--CODEGEN--\":8:17   */\n      dup1\n        /* \"--CODEGEN--\":5:7   */\n      iszero\n      tag_129\n      jumpi\n        /* \"--CODEGEN--\":45:61   */\n      returndatasize\n        /* \"--CODEGEN--\":42:43   */\n      0x00\n        /* \"--CODEGEN--\":39:40   */\n      dup1\n        /* \"--CODEGEN--\":24:62   */\n      returndatacopy\n        /* \"--CODEGEN--\":77:93   */\n      returndatasize\n        /* \"--CODEGEN--\":74:75   */\n      0x00\n        /* \"--CODEGEN--\":67:94   */\n      revert\n        /* \"--CODEGEN--\":5:7   */\n    tag_129:\n        /* \"UniswapV2_Chinese-master/v2-periphery/contracts/libraries/UniswapV2LiquidityMathLibrary.sol\":5419:5453  IUniswapV2Factory(factory).feeTo() */\n      pop\n      pop\n      pop\n      pop\n      mload(0x40)\n      returndatasize\n        /* \"--CODEGEN--\":15:17   */\n      0x20\n        /* \"--CODEGEN--\":10:13   */\n      dup2\n        /* \"--CODEGEN--\":7:18   */\n      lt\n        /* \"--CODEGEN--\":4:6   */\n      iszero\n      tag_130\n      jumpi\n        /* \"--CODEGEN--\":31:32   */\n      0x00\n        /* \"--CODEGEN--\":28:29   */\n      dup1\n        /* \"--CODEGEN--\":21:33   */\n      revert\n        /* \"--CODEGEN--\":4:6   */\n    tag_130:\n      pop\n        /* \"UniswapV2_Chinese-master/v2-periphery/contracts/libraries/UniswapV2LiquidityMathLibrary.sol\":5419:5453  IUniswapV2Factory(factory).feeTo() */\n      mload\n      sub(shl(0xa0, 0x01), 0x01)\n        /* \"UniswapV2_Chinese-master/v2-periphery/contracts/libraries/UniswapV2LiquidityMathLibrary.sol\":5419:5467  IUniswapV2Factory(factory).feeTo() != address(0) */\n      and\n      eq\n      iszero\n      swap1\n      pop\n        /* \"UniswapV2_Chinese-master/v2-periphery/contracts/libraries/UniswapV2LiquidityMathLibrary.sol\":5477:5487  uint kLast */\n      0x00\n        /* \"UniswapV2_Chinese-master/v2-periphery/contracts/libraries/UniswapV2LiquidityMathLibrary.sol\":5419:5467  IUniswapV2Factory(factory).feeTo() != address(0) */\n      dup2\n        /* \"UniswapV2_Chinese-master/v2-periphery/contracts/libraries/UniswapV2LiquidityMathLibrary.sol\":5490:5514  feeOn ? pair.kLast() : 0 */\n      tag_131\n      jumpi\n        /* \"UniswapV2_Chinese-master/v2-periphery/contracts/libraries/UniswapV2LiquidityMathLibrary.sol\":5513:5514  0 */\n      0x00\n        /* \"UniswapV2_Chinese-master/v2-periphery/contracts/libraries/UniswapV2LiquidityMathLibrary.sol\":5490:5514  feeOn ? pair.kLast() : 0 */\n      jump(tag_132)\n    tag_131:\n        /* \"UniswapV2_Chinese-master/v2-periphery/contracts/libraries/UniswapV2LiquidityMathLibrary.sol\":5498:5502  pair */\n      dup3\n      sub(shl(0xa0, 0x01), 0x01)\n        /* \"UniswapV2_Chinese-master/v2-periphery/contracts/libraries/UniswapV2LiquidityMathLibrary.sol\":5498:5508  pair.kLast */\n      and\n      0x7464fc3d\n        /* \"UniswapV2_Chinese-master/v2-periphery/contracts/libraries/UniswapV2LiquidityMathLibrary.sol\":5498:5510  pair.kLast() */\n      mload(0x40)\n      dup2\n      0xffffffff\n      and\n      0xe0\n      shl\n      dup2\n      mstore\n      0x04\n      add\n      0x20\n      mload(0x40)\n      dup1\n      dup4\n      sub\n      dup2\n      dup7\n      dup1\n      extcodesize\n      iszero\n        /* \"--CODEGEN--\":5:14   */\n      dup1\n        /* \"--CODEGEN--\":2:4   */\n      iszero\n      tag_133\n      jumpi\n        /* \"--CODEGEN--\":27:28   */\n      0x00\n        /* \"--CODEGEN--\":24:25   */\n      dup1\n        /* \"--CODEGEN--\":17:29   */\n      revert\n        /* \"--CODEGEN--\":2:4   */\n    tag_133:\n        /* \"UniswapV2_Chinese-master/v2-periphery/contracts/libraries/UniswapV2LiquidityMathLibrary.sol\":5498:5510  pair.kLast() */\n      pop\n      gas\n      staticcall\n      iszero\n        /* \"--CODEGEN--\":8:17   */\n      dup1\n        /* \"--CODEGEN--\":5:7   */\n      iszero\n      tag_135\n      jumpi\n        /* \"--CODEGEN--\":45:61   */\n      returndatasize\n        /* \"--CODEGEN--\":42:43   */\n      0x00\n        /* \"--CODEGEN--\":39:40   */\n      dup1\n        /* \"--CODEGEN--\":24:62   */\n      returndatacopy\n        /* \"--CODEGEN--\":77:93   */\n      returndatasize\n        /* \"--CODEGEN--\":74:75   */\n      0x00\n        /* \"--CODEGEN--\":67:94   */\n      revert\n        /* \"--CODEGEN--\":5:7   */\n    tag_135:\n        /* \"UniswapV2_Chinese-master/v2-periphery/contracts/libraries/UniswapV2LiquidityMathLibrary.sol\":5498:5510  pair.kLast() */\n      pop\n      pop\n      pop\n      pop\n      mload(0x40)\n      returndatasize\n        /* \"--CODEGEN--\":15:17   */\n      0x20\n        /* \"--CODEGEN--\":10:13   */\n      dup2\n        /* \"--CODEGEN--\":7:18   */\n      lt\n        /* \"--CODEGEN--\":4:6   */\n      iszero\n      tag_136\n      jumpi\n        /* \"--CODEGEN--\":31:32   */\n      0x00\n        /* \"--CODEGEN--\":28:29   */\n      dup1\n        /* \"--CODEGEN--\":21:33   */\n      revert\n        /* \"--CODEGEN--\":4:6   */\n    tag_136:\n      pop\n        /* \"UniswapV2_Chinese-master/v2-periphery/contracts/libraries/UniswapV2LiquidityMathLibrary.sol\":5498:5510  pair.kLast() */\n      mload\n        /* \"UniswapV2_Chinese-master/v2-periphery/contracts/libraries/UniswapV2LiquidityMathLibrary.sol\":5490:5514  feeOn ? pair.kLast() : 0 */\n    tag_132:\n        /* \"UniswapV2_Chinese-master/v2-periphery/contracts/libraries/UniswapV2LiquidityMathLibrary.sol\":5477:5514  uint kLast = feeOn ? pair.kLast() : 0 */\n      swap1\n      pop\n        /* \"UniswapV2_Chinese-master/v2-periphery/contracts/libraries/UniswapV2LiquidityMathLibrary.sol\":5524:5540  uint totalSupply */\n      0x00\n        /* \"UniswapV2_Chinese-master/v2-periphery/contracts/libraries/UniswapV2LiquidityMathLibrary.sol\":5543:5547  pair */\n      dup4\n      sub(shl(0xa0, 0x01), 0x01)\n        /* \"UniswapV2_Chinese-master/v2-periphery/contracts/libraries/UniswapV2LiquidityMathLibrary.sol\":5543:5559  pair.totalSupply */\n      and\n      0x18160ddd\n        /* \"UniswapV2_Chinese-master/v2-periphery/contracts/libraries/UniswapV2LiquidityMathLibrary.sol\":5543:5561  pair.totalSupply() */\n      mload(0x40)\n      dup2\n      0xffffffff\n      and\n      0xe0\n      shl\n      dup2\n      mstore\n      0x04\n      add\n      0x20\n      mload(0x40)\n      dup1\n      dup4\n      sub\n      dup2\n      dup7\n      dup1\n      extcodesize\n      iszero\n        /* \"--CODEGEN--\":5:14   */\n      dup1\n        /* \"--CODEGEN--\":2:4   */\n      iszero\n      tag_137\n      jumpi\n        /* \"--CODEGEN--\":27:28   */\n      0x00\n        /* \"--CODEGEN--\":24:25   */\n      dup1\n        /* \"--CODEGEN--\":17:29   */\n      revert\n        /* \"--CODEGEN--\":2:4   */\n    tag_137:\n        /* \"UniswapV2_Chinese-master/v2-periphery/contracts/libraries/UniswapV2LiquidityMathLibrary.sol\":5543:5561  pair.totalSupply() */\n      pop\n      gas\n      staticcall\n      iszero\n        /* \"--CODEGEN--\":8:17   */\n      dup1\n        /* \"--CODEGEN--\":5:7   */\n      iszero\n      tag_139\n      jumpi\n        /* \"--CODEGEN--\":45:61   */\n      returndatasize\n        /* \"--CODEGEN--\":42:43   */\n      0x00\n        /* \"--CODEGEN--\":39:40   */\n      dup1\n        /* \"--CODEGEN--\":24:62   */\n      returndatacopy\n        /* \"--CODEGEN--\":77:93   */\n      returndatasize\n        /* \"--CODEGEN--\":74:75   */\n      0x00\n        /* \"--CODEGEN--\":67:94   */\n      revert\n        /* \"--CODEGEN--\":5:7   */\n    tag_139:\n        /* \"UniswapV2_Chinese-master/v2-periphery/contracts/libraries/UniswapV2LiquidityMathLibrary.sol\":5543:5561  pair.totalSupply() */\n      pop\n      pop\n      pop\n      pop\n      mload(0x40)\n      returndatasize\n        /* \"--CODEGEN--\":15:17   */\n      0x20\n        /* \"--CODEGEN--\":10:13   */\n      dup2\n        /* \"--CODEGEN--\":7:18   */\n      lt\n        /* \"--CODEGEN--\":4:6   */\n      iszero\n      tag_140\n      jumpi\n        /* \"--CODEGEN--\":31:32   */\n      0x00\n        /* \"--CODEGEN--\":28:29   */\n      dup1\n        /* \"--CODEGEN--\":21:33   */\n      revert\n        /* \"--CODEGEN--\":4:6   */\n    tag_140:\n      pop\n        /* \"UniswapV2_Chinese-master/v2-periphery/contracts/libraries/UniswapV2LiquidityMathLibrary.sol\":5543:5561  pair.totalSupply() */\n      mload\n      swap1\n      pop\n        /* \"UniswapV2_Chinese-master/v2-periphery/contracts/libraries/UniswapV2LiquidityMathLibrary.sol\":5578:5665  computeLiquidityValue(reservesA, reservesB, totalSupply, liquidityAmount, feeOn, kLast) */\n      tag_141\n        /* \"UniswapV2_Chinese-master/v2-periphery/contracts/libraries/UniswapV2LiquidityMathLibrary.sol\":5600:5609  reservesA */\n      dup7\n        /* \"UniswapV2_Chinese-master/v2-periphery/contracts/libraries/UniswapV2LiquidityMathLibrary.sol\":5611:5620  reservesB */\n      dup7\n        /* \"UniswapV2_Chinese-master/v2-periphery/contracts/libraries/UniswapV2LiquidityMathLibrary.sol\":5543:5561  pair.totalSupply() */\n      dup4\n        /* \"UniswapV2_Chinese-master/v2-periphery/contracts/libraries/UniswapV2LiquidityMathLibrary.sol\":5635:5650  liquidityAmount */\n      dup13\n        /* \"UniswapV2_Chinese-master/v2-periphery/contracts/libraries/UniswapV2LiquidityMathLibrary.sol\":5652:5657  feeOn */\n      dup8\n        /* \"UniswapV2_Chinese-master/v2-periphery/contracts/libraries/UniswapV2LiquidityMathLibrary.sol\":5659:5664  kLast */\n      dup8\n        /* \"UniswapV2_Chinese-master/v2-periphery/contracts/libraries/UniswapV2LiquidityMathLibrary.sol\":5578:5599  computeLiquidityValue */\n      tag_122\n        /* \"UniswapV2_Chinese-master/v2-periphery/contracts/libraries/UniswapV2LiquidityMathLibrary.sol\":5578:5665  computeLiquidityValue(reservesA, reservesB, totalSupply, liquidityAmount, feeOn, kLast) */\n      jump\t// in\n    tag_141:\n        /* \"UniswapV2_Chinese-master/v2-periphery/contracts/libraries/UniswapV2LiquidityMathLibrary.sol\":5571:5665  return computeLiquidityValue(reservesA, reservesB, totalSupply, liquidityAmount, feeOn, kLast) */\n      swap8\n      pop\n      swap8\n      pop\n      pop\n      pop\n      pop\n      pop\n      pop\n      pop\n        /* \"UniswapV2_Chinese-master/v2-periphery/contracts/libraries/UniswapV2LiquidityMathLibrary.sol\":4989:5672  function getLiquidityValue(... */\n      swap5\n      pop\n      swap5\n      swap3\n      pop\n      pop\n      pop\n      jump\t// out\n        /* \"UniswapV2_Chinese-master/v2-periphery/contracts/libraries/UniswapV2LiquidityMathLibrary.sol\":1580:2476  function computeProfitMaximizingTrade2(... */\n    tag_56:\n        /* \"UniswapV2_Chinese-master/v2-periphery/contracts/libraries/UniswapV2LiquidityMathLibrary.sol\":1766:1775  bool aToB */\n      0x00\n        /* \"UniswapV2_Chinese-master/v2-periphery/contracts/libraries/UniswapV2LiquidityMathLibrary.sol\":1777:1793  uint256 amountIn */\n      dup1\n        /* \"UniswapV2_Chinese-master/v2-periphery/contracts/libraries/UniswapV2LiquidityMathLibrary.sol\":1867:1882  truePriceTokenA */\n      dup6\n        /* \"UniswapV2_Chinese-master/v2-periphery/contracts/libraries/UniswapV2LiquidityMathLibrary.sol\":1812:1864  FullMath.mulDiv(reserveA, truePriceTokenB, reserveB) */\n      tag_143\n        /* \"UniswapV2_Chinese-master/v2-periphery/contracts/libraries/UniswapV2LiquidityMathLibrary.sol\":1828:1836  reserveA */\n      dup6\n        /* \"UniswapV2_Chinese-master/v2-periphery/contracts/libraries/UniswapV2LiquidityMathLibrary.sol\":1838:1853  truePriceTokenB */\n      dup8\n        /* \"UniswapV2_Chinese-master/v2-periphery/contracts/libraries/UniswapV2LiquidityMathLibrary.sol\":1855:1863  reserveB */\n      dup7\n        /* \"UniswapV2_Chinese-master/v2-periphery/contracts/libraries/UniswapV2LiquidityMathLibrary.sol\":1812:1827  FullMath.mulDiv */\n      tag_70\n        /* \"UniswapV2_Chinese-master/v2-periphery/contracts/libraries/UniswapV2LiquidityMathLibrary.sol\":1812:1864  FullMath.mulDiv(reserveA, truePriceTokenB, reserveB) */\n      jump\t// in\n    tag_143:\n        /* \"UniswapV2_Chinese-master/v2-periphery/contracts/libraries/UniswapV2LiquidityMathLibrary.sol\":1812:1882  FullMath.mulDiv(reserveA, truePriceTokenB, reserveB) < truePriceTokenA */\n      lt\n      swap2\n      pop\n        /* \"UniswapV2_Chinese-master/v2-periphery/contracts/libraries/UniswapV2LiquidityMathLibrary.sol\":1893:1910  uint256 invariant */\n      0x00\n        /* \"UniswapV2_Chinese-master/v2-periphery/contracts/libraries/UniswapV2LiquidityMathLibrary.sol\":1913:1935  reserveA.mul(reserveB) */\n      tag_144\n        /* \"UniswapV2_Chinese-master/v2-periphery/contracts/libraries/UniswapV2LiquidityMathLibrary.sol\":1913:1921  reserveA */\n      dup6\n        /* \"UniswapV2_Chinese-master/v2-periphery/contracts/libraries/UniswapV2LiquidityMathLibrary.sol\":1926:1934  reserveB */\n      dup6\n        /* \"UniswapV2_Chinese-master/v2-periphery/contracts/libraries/UniswapV2LiquidityMathLibrary.sol\":1913:1935  reserveA.mul(reserveB) */\n      0xffffffff\n        /* \"UniswapV2_Chinese-master/v2-periphery/contracts/libraries/UniswapV2LiquidityMathLibrary.sol\":1913:1925  reserveA.mul */\n      tag_72\n        /* \"UniswapV2_Chinese-master/v2-periphery/contracts/libraries/UniswapV2LiquidityMathLibrary.sol\":1913:1935  reserveA.mul(reserveB) */\n      and\n      jump\t// in\n    tag_144:\n        /* \"UniswapV2_Chinese-master/v2-periphery/contracts/libraries/UniswapV2LiquidityMathLibrary.sol\":1893:1935  uint256 invariant = reserveA.mul(reserveB) */\n      swap1\n      pop\n        /* \"UniswapV2_Chinese-master/v2-periphery/contracts/libraries/UniswapV2LiquidityMathLibrary.sol\":1946:1962  uint256 leftSide */\n      0x00\n        /* \"UniswapV2_Chinese-master/v2-periphery/contracts/libraries/UniswapV2LiquidityMathLibrary.sol\":1965:2209  Babylonian.sqrt(... */\n      tag_73\n        /* \"UniswapV2_Chinese-master/v2-periphery/contracts/libraries/UniswapV2LiquidityMathLibrary.sol\":1994:2199  FullMath.mulDiv(... */\n      tag_74\n        /* \"UniswapV2_Chinese-master/v2-periphery/contracts/libraries/UniswapV2LiquidityMathLibrary.sol\":2027:2049  invariant.mul(1000000) */\n      tag_147\n        /* \"UniswapV2_Chinese-master/v2-periphery/contracts/libraries/UniswapV2LiquidityMathLibrary.sol\":1893:1935  uint256 invariant = reserveA.mul(reserveB) */\n      dup5\n        /* \"UniswapV2_Chinese-master/v2-periphery/contracts/libraries/UniswapV2LiquidityMathLibrary.sol\":2041:2048  1000000 */\n      0x0f4240\n        /* \"UniswapV2_Chinese-master/v2-periphery/contracts/libraries/UniswapV2LiquidityMathLibrary.sol\":2027:2049  invariant.mul(1000000) */\n      0xffffffff\n        /* \"UniswapV2_Chinese-master/v2-periphery/contracts/libraries/UniswapV2LiquidityMathLibrary.sol\":2027:2040  invariant.mul */\n      tag_72\n        /* \"UniswapV2_Chinese-master/v2-periphery/contracts/libraries/UniswapV2LiquidityMathLibrary.sol\":2027:2049  invariant.mul(1000000) */\n      and\n      jump\t// in\n    tag_147:\n        /* \"UniswapV2_Chinese-master/v2-periphery/contracts/libraries/UniswapV2LiquidityMathLibrary.sol\":2067:2071  aToB */\n      dup7\n        /* \"UniswapV2_Chinese-master/v2-periphery/contracts/libraries/UniswapV2LiquidityMathLibrary.sol\":2067:2107  aToB ? truePriceTokenA : truePriceTokenB */\n      tag_148\n      jumpi\n        /* \"UniswapV2_Chinese-master/v2-periphery/contracts/libraries/UniswapV2LiquidityMathLibrary.sol\":2092:2107  truePriceTokenB */\n      dup10\n        /* \"UniswapV2_Chinese-master/v2-periphery/contracts/libraries/UniswapV2LiquidityMathLibrary.sol\":2067:2107  aToB ? truePriceTokenA : truePriceTokenB */\n      jump(tag_149)\n    tag_148:\n        /* \"UniswapV2_Chinese-master/v2-periphery/contracts/libraries/UniswapV2LiquidityMathLibrary.sol\":2074:2089  truePriceTokenA */\n      dup11\n        /* \"UniswapV2_Chinese-master/v2-periphery/contracts/libraries/UniswapV2LiquidityMathLibrary.sol\":2067:2107  aToB ? truePriceTokenA : truePriceTokenB */\n    tag_149:\n        /* \"UniswapV2_Chinese-master/v2-periphery/contracts/libraries/UniswapV2LiquidityMathLibrary.sol\":2125:2185  (aToB ? truePriceTokenB : truePriceTokenA).mul(997).mul(997) */\n      tag_78\n        /* \"UniswapV2_Chinese-master/v2-periphery/contracts/libraries/UniswapV2LiquidityMathLibrary.sol\":2181:2184  997 */\n      0x03e5\n        /* \"UniswapV2_Chinese-master/v2-periphery/contracts/libraries/UniswapV2LiquidityMathLibrary.sol\":2125:2176  (aToB ? truePriceTokenB : truePriceTokenA).mul(997) */\n      tag_80\n        /* \"UniswapV2_Chinese-master/v2-periphery/contracts/libraries/UniswapV2LiquidityMathLibrary.sol\":2172:2175  997 */\n      0x03e5\n        /* \"UniswapV2_Chinese-master/v2-periphery/contracts/libraries/UniswapV2LiquidityMathLibrary.sol\":2126:2130  aToB */\n      dup12\n        /* \"UniswapV2_Chinese-master/v2-periphery/contracts/libraries/UniswapV2LiquidityMathLibrary.sol\":2126:2166  aToB ? truePriceTokenB : truePriceTokenA */\n      tag_152\n      jumpi\n        /* \"UniswapV2_Chinese-master/v2-periphery/contracts/libraries/UniswapV2LiquidityMathLibrary.sol\":2151:2166  truePriceTokenA */\n      dup16\n        /* \"UniswapV2_Chinese-master/v2-periphery/contracts/libraries/UniswapV2LiquidityMathLibrary.sol\":2126:2166  aToB ? truePriceTokenB : truePriceTokenA */\n      jump(tag_80)\n    tag_152:\n        /* \"UniswapV2_Chinese-master/v2-periphery/contracts/libraries/UniswapV2LiquidityMathLibrary.sol\":2133:2148  truePriceTokenB */\n      dup15\n        /* \"UniswapV2_Chinese-master/v2-periphery/contracts/libraries/UniswapV2LiquidityMathLibrary.sol\":2125:2171  (aToB ? truePriceTokenB : truePriceTokenA).mul */\n      swap1\n        /* \"UniswapV2_Chinese-master/v2-periphery/contracts/libraries/UniswapV2LiquidityMathLibrary.sol\":2125:2176  (aToB ? truePriceTokenB : truePriceTokenA).mul(997) */\n      0xffffffff\n        /* \"UniswapV2_Chinese-master/v2-periphery/contracts/libraries/UniswapV2LiquidityMathLibrary.sol\":2125:2171  (aToB ? truePriceTokenB : truePriceTokenA).mul */\n      tag_72\n        /* \"UniswapV2_Chinese-master/v2-periphery/contracts/libraries/UniswapV2LiquidityMathLibrary.sol\":2125:2176  (aToB ? truePriceTokenB : truePriceTokenA).mul(997) */\n      and\n      jump\t// in\n        /* \"@uniswap/lib/contracts/libraries/FullMath.sol\":897:1270  function mulDiv(... */\n    tag_70:\n        /* \"@uniswap/lib/contracts/libraries/FullMath.sol\":999:1006  uint256 */\n      0x00\n        /* \"@uniswap/lib/contracts/libraries/FullMath.sol\":1019:1028  uint256 l */\n      dup1\n        /* \"@uniswap/lib/contracts/libraries/FullMath.sol\":1030:1039  uint256 h */\n      0x00\n        /* \"@uniswap/lib/contracts/libraries/FullMath.sol\":1043:1056  fullMul(x, y) */\n      tag_162\n        /* \"@uniswap/lib/contracts/libraries/FullMath.sol\":1051:1052  x */\n      dup7\n        /* \"@uniswap/lib/contracts/libraries/FullMath.sol\":1054:1055  y */\n      dup7\n        /* \"@uniswap/lib/contracts/libraries/FullMath.sol\":1043:1050  fullMul */\n      tag_163\n        /* \"@uniswap/lib/contracts/libraries/FullMath.sol\":1043:1056  fullMul(x, y) */\n      jump\t// in\n    tag_162:\n        /* \"@uniswap/lib/contracts/libraries/FullMath.sol\":1018:1056  (uint256 l, uint256 h) = fullMul(x, y) */\n      swap2\n      pop\n      swap2\n      pop\n        /* \"@uniswap/lib/contracts/libraries/FullMath.sol\":1067:1077  uint256 mm */\n      0x00\n        /* \"@uniswap/lib/contracts/libraries/FullMath.sol\":1093:1094  d */\n      dup5\n        /* \"@uniswap/lib/contracts/libraries/FullMath.sol\":1080:1095  mulmod(x, y, d) */\n      dup1\n      tag_164\n      jumpi\n      invalid\n    tag_164:\n        /* \"@uniswap/lib/contracts/libraries/FullMath.sol\":1090:1091  y */\n      dup7\n        /* \"@uniswap/lib/contracts/libraries/FullMath.sol\":1087:1088  x */\n      dup9\n        /* \"@uniswap/lib/contracts/libraries/FullMath.sol\":1080:1095  mulmod(x, y, d) */\n      mulmod\n        /* \"@uniswap/lib/contracts/libraries/FullMath.sol\":1067:1095  uint256 mm = mulmod(x, y, d) */\n      swap1\n      pop\n        /* \"@uniswap/lib/contracts/libraries/FullMath.sol\":1114:1115  l */\n      dup3\n        /* \"@uniswap/lib/contracts/libraries/FullMath.sol\":1109:1111  mm */\n      dup2\n        /* \"@uniswap/lib/contracts/libraries/FullMath.sol\":1109:1115  mm > l */\n      gt\n        /* \"@uniswap/lib/contracts/libraries/FullMath.sol\":1105:1123  if (mm > l) h -= 1 */\n      iszero\n      tag_165\n      jumpi\n        /* \"@uniswap/lib/contracts/libraries/FullMath.sol\":1122:1123  1 */\n      0x01\n        /* \"@uniswap/lib/contracts/libraries/FullMath.sol\":1117:1123  h -= 1 */\n      dup3\n      sub\n      swap2\n      pop\n        /* \"@uniswap/lib/contracts/libraries/FullMath.sol\":1105:1123  if (mm > l) h -= 1 */\n    tag_165:\n        /* \"@uniswap/lib/contracts/libraries/FullMath.sol\":1133:1140  l -= mm */\n      swap2\n      dup3\n      swap1\n      sub\n      swap2\n        /* \"@uniswap/lib/contracts/libraries/FullMath.sol\":1155:1161  h == 0 */\n      dup2\n        /* \"@uniswap/lib/contracts/libraries/FullMath.sol\":1151:1175  if (h == 0) return l / d */\n      tag_166\n      jumpi\n        /* \"@uniswap/lib/contracts/libraries/FullMath.sol\":1174:1175  d */\n      dup5\n        /* \"@uniswap/lib/contracts/libraries/FullMath.sol\":1170:1171  l */\n      dup4\n        /* \"@uniswap/lib/contracts/libraries/FullMath.sol\":1170:1175  l / d */\n      dup2\n      tag_167\n      jumpi\n      invalid\n    tag_167:\n      div\n        /* \"@uniswap/lib/contracts/libraries/FullMath.sol\":1163:1175  return l / d */\n      swap4\n      pop\n      pop\n      pop\n      pop\n      jump(tag_161)\n        /* \"@uniswap/lib/contracts/libraries/FullMath.sol\":1151:1175  if (h == 0) return l / d */\n    tag_166:\n        /* \"@uniswap/lib/contracts/libraries/FullMath.sol\":1198:1199  d */\n      dup5\n        /* \"@uniswap/lib/contracts/libraries/FullMath.sol\":1194:1195  h */\n      dup3\n        /* \"@uniswap/lib/contracts/libraries/FullMath.sol\":1194:1199  h < d */\n      lt\n        /* \"@uniswap/lib/contracts/libraries/FullMath.sol\":1186:1230  require(h < d, 'FullMath: FULLDIV_OVERFLOW') */\n      tag_168\n      jumpi\n      0x40\n      dup1\n      mload\n      shl(0xe5, 0x461bcd)\n      dup2\n      mstore\n      0x20\n      0x04\n      dup3\n      add\n      mstore\n      0x1a\n      0x24\n      dup3\n      add\n      mstore\n      0x46756c6c4d6174683a2046554c4c4449565f4f564552464c4f57000000000000\n      0x44\n      dup3\n      add\n      mstore\n      swap1\n      mload\n      swap1\n      dup2\n      swap1\n      sub\n      0x64\n      add\n      swap1\n      revert\n    tag_168:\n        /* \"@uniswap/lib/contracts/libraries/FullMath.sol\":1247:1263  fullDiv(l, h, d) */\n      tag_169\n        /* \"@uniswap/lib/contracts/libraries/FullMath.sol\":1255:1256  l */\n      dup4\n        /* \"@uniswap/lib/contracts/libraries/FullMath.sol\":1258:1259  h */\n      dup4\n        /* \"@uniswap/lib/contracts/libraries/FullMath.sol\":1261:1262  d */\n      dup8\n        /* \"@uniswap/lib/contracts/libraries/FullMath.sol\":1247:1254  fullDiv */\n      tag_170\n        /* \"@uniswap/lib/contracts/libraries/FullMath.sol\":1247:1263  fullDiv(l, h, d) */\n      jump\t// in\n    tag_169:\n        /* \"@uniswap/lib/contracts/libraries/FullMath.sol\":1240:1263  return fullDiv(l, h, d) */\n      swap4\n      pop\n      pop\n      pop\n      pop\n        /* \"@uniswap/lib/contracts/libraries/FullMath.sol\":897:1270  function mulDiv(... */\n    tag_161:\n      swap4\n      swap3\n      pop\n      pop\n      pop\n      jump\t// out\n        /* \"UniswapV2_Chinese-master/v2-periphery/contracts/libraries/SafeMath.sol\":417:557  function mul(uint x, uint y) internal pure returns (uint z) {... */\n    tag_72:\n        /* \"UniswapV2_Chinese-master/v2-periphery/contracts/libraries/SafeMath.sol\":469:475  uint z */\n      0x00\n        /* \"UniswapV2_Chinese-master/v2-periphery/contracts/libraries/SafeMath.sol\":495:501  y == 0 */\n      dup2\n      iszero\n      dup1\n        /* \"UniswapV2_Chinese-master/v2-periphery/contracts/libraries/SafeMath.sol\":495:525  y == 0 || (z = x * y) / y == x */\n      tag_172\n      jumpi\n      pop\n      pop\n        /* \"UniswapV2_Chinese-master/v2-periphery/contracts/libraries/SafeMath.sol\":510:515  x * y */\n      dup1\n      dup3\n      mul\n        /* \"UniswapV2_Chinese-master/v2-periphery/contracts/libraries/SafeMath.sol\":524:525  x */\n      dup3\n        /* \"UniswapV2_Chinese-master/v2-periphery/contracts/libraries/SafeMath.sol\":519:520  y */\n      dup3\n        /* \"UniswapV2_Chinese-master/v2-periphery/contracts/libraries/SafeMath.sol\":510:515  x * y */\n      dup3\n        /* \"UniswapV2_Chinese-master/v2-periphery/contracts/libraries/SafeMath.sol\":519:520  y */\n      dup2\n        /* \"UniswapV2_Chinese-master/v2-periphery/contracts/libraries/SafeMath.sol\":505:520  (z = x * y) / y */\n      tag_173\n      jumpi\n      invalid\n    tag_173:\n      div\n        /* \"UniswapV2_Chinese-master/v2-periphery/contracts/libraries/SafeMath.sol\":505:525  (z = x * y) / y == x */\n      eq\n        /* \"UniswapV2_Chinese-master/v2-periphery/contracts/libraries/SafeMath.sol\":495:525  y == 0 || (z = x * y) / y == x */\n    tag_172:\n        /* \"UniswapV2_Chinese-master/v2-periphery/contracts/libraries/SafeMath.sol\":487:550  require(y == 0 || (z = x * y) / y == x, 'ds-math-mul-overflow') */\n      tag_174\n      jumpi\n      0x40\n      dup1\n      mload\n      shl(0xe5, 0x461bcd)\n      dup2\n      mstore\n      0x20\n      0x04\n      dup3\n      add\n      mstore\n      0x14\n      0x24\n      dup3\n      add\n      mstore\n      shl(0x60, 0x64732d6d6174682d6d756c2d6f766572666c6f77)\n      0x44\n      dup3\n      add\n      mstore\n      swap1\n      mload\n      swap1\n      dup2\n      swap1\n      sub\n      0x64\n      add\n      swap1\n      revert\n    tag_174:\n        /* \"UniswapV2_Chinese-master/v2-periphery/contracts/libraries/SafeMath.sol\":417:557  function mul(uint x, uint y) internal pure returns (uint z) {... */\n      swap3\n      swap2\n      pop\n      pop\n      jump\t// out\n        /* \"@uniswap/lib/contracts/libraries/Babylonian.sol\":382:1579  function sqrt(uint256 x) internal pure returns (uint256) {... */\n    tag_81:\n        /* \"@uniswap/lib/contracts/libraries/Babylonian.sol\":430:437  uint256 */\n      0x00\n        /* \"@uniswap/lib/contracts/libraries/Babylonian.sol\":453:459  x == 0 */\n      dup2\n        /* \"@uniswap/lib/contracts/libraries/Babylonian.sol\":449:469  if (x == 0) return 0 */\n      tag_176\n      jumpi\n      pop\n        /* \"@uniswap/lib/contracts/libraries/Babylonian.sol\":468:469  0 */\n      0x00\n        /* \"@uniswap/lib/contracts/libraries/Babylonian.sol\":461:469  return 0 */\n      jump(tag_175)\n        /* \"@uniswap/lib/contracts/libraries/Babylonian.sol\":449:469  if (x == 0) return 0 */\n    tag_176:\n        /* \"@uniswap/lib/contracts/libraries/Babylonian.sol\":644:645  x */\n      dup2\n        /* \"@uniswap/lib/contracts/libraries/Babylonian.sol\":667:668  1 */\n      0x01\n      shl(0x80, 0x01)\n        /* \"@uniswap/lib/contracts/libraries/Babylonian.sol\":682:723  xx >= 0x100000000000000000000000000000000 */\n      dup3\n      lt\n        /* \"@uniswap/lib/contracts/libraries/Babylonian.sol\":678:782  if (xx >= 0x100000000000000000000000000000000) {... */\n      tag_177\n      jumpi\n        /* \"@uniswap/lib/contracts/libraries/Babylonian.sol\":746:749  128 */\n      0x80\n        /* \"@uniswap/lib/contracts/libraries/Babylonian.sol\":739:749  xx >>= 128 */\n      swap2\n      swap1\n      swap2\n      shr\n      swap1\n        /* \"@uniswap/lib/contracts/libraries/Babylonian.sol\":769:771  64 */\n      0x40\n        /* \"@uniswap/lib/contracts/libraries/Babylonian.sol\":763:771  r <<= 64 */\n      shl\n        /* \"@uniswap/lib/contracts/libraries/Babylonian.sol\":678:782  if (xx >= 0x100000000000000000000000000000000) {... */\n    tag_177:\n        /* \"@uniswap/lib/contracts/libraries/Babylonian.sol\":801:820  0x10000000000000000 */\n      0x010000000000000000\n        /* \"@uniswap/lib/contracts/libraries/Babylonian.sol\":795:797  xx */\n      dup3\n        /* \"@uniswap/lib/contracts/libraries/Babylonian.sol\":795:820  xx >= 0x10000000000000000 */\n      lt\n        /* \"@uniswap/lib/contracts/libraries/Babylonian.sol\":791:878  if (xx >= 0x10000000000000000) {... */\n      tag_178\n      jumpi\n        /* \"@uniswap/lib/contracts/libraries/Babylonian.sol\":843:845  64 */\n      0x40\n        /* \"@uniswap/lib/contracts/libraries/Babylonian.sol\":836:845  xx >>= 64 */\n      swap2\n      swap1\n      swap2\n      shr\n      swap1\n        /* \"@uniswap/lib/contracts/libraries/Babylonian.sol\":865:867  32 */\n      0x20\n        /* \"@uniswap/lib/contracts/libraries/Babylonian.sol\":859:867  r <<= 32 */\n      shl\n        /* \"@uniswap/lib/contracts/libraries/Babylonian.sol\":791:878  if (xx >= 0x10000000000000000) {... */\n    tag_178:\n        /* \"@uniswap/lib/contracts/libraries/Babylonian.sol\":897:908  0x100000000 */\n      0x0100000000\n        /* \"@uniswap/lib/contracts/libraries/Babylonian.sol\":891:893  xx */\n      dup3\n        /* \"@uniswap/lib/contracts/libraries/Babylonian.sol\":891:908  xx >= 0x100000000 */\n      lt\n        /* \"@uniswap/lib/contracts/libraries/Babylonian.sol\":887:966  if (xx >= 0x100000000) {... */\n      tag_179\n      jumpi\n        /* \"@uniswap/lib/contracts/libraries/Babylonian.sol\":931:933  32 */\n      0x20\n        /* \"@uniswap/lib/contracts/libraries/Babylonian.sol\":924:933  xx >>= 32 */\n      swap2\n      swap1\n      swap2\n      shr\n      swap1\n        /* \"@uniswap/lib/contracts/libraries/Babylonian.sol\":953:955  16 */\n      0x10\n        /* \"@uniswap/lib/contracts/libraries/Babylonian.sol\":947:955  r <<= 16 */\n      shl\n        /* \"@uniswap/lib/contracts/libraries/Babylonian.sol\":887:966  if (xx >= 0x100000000) {... */\n    tag_179:\n        /* \"@uniswap/lib/contracts/libraries/Babylonian.sol\":985:992  0x10000 */\n      0x010000\n        /* \"@uniswap/lib/contracts/libraries/Babylonian.sol\":979:981  xx */\n      dup3\n        /* \"@uniswap/lib/contracts/libraries/Babylonian.sol\":979:992  xx >= 0x10000 */\n      lt\n        /* \"@uniswap/lib/contracts/libraries/Babylonian.sol\":975:1049  if (xx >= 0x10000) {... */\n      tag_180\n      jumpi\n        /* \"@uniswap/lib/contracts/libraries/Babylonian.sol\":1015:1017  16 */\n      0x10\n        /* \"@uniswap/lib/contracts/libraries/Babylonian.sol\":1008:1017  xx >>= 16 */\n      swap2\n      swap1\n      swap2\n      shr\n      swap1\n        /* \"@uniswap/lib/contracts/libraries/Babylonian.sol\":1037:1038  8 */\n      0x08\n        /* \"@uniswap/lib/contracts/libraries/Babylonian.sol\":1031:1038  r <<= 8 */\n      shl\n        /* \"@uniswap/lib/contracts/libraries/Babylonian.sol\":975:1049  if (xx >= 0x10000) {... */\n    tag_180:\n        /* \"@uniswap/lib/contracts/libraries/Babylonian.sol\":1068:1073  0x100 */\n      0x0100\n        /* \"@uniswap/lib/contracts/libraries/Babylonian.sol\":1062:1064  xx */\n      dup3\n        /* \"@uniswap/lib/contracts/libraries/Babylonian.sol\":1062:1073  xx >= 0x100 */\n      lt\n        /* \"@uniswap/lib/contracts/libraries/Babylonian.sol\":1058:1129  if (xx >= 0x100) {... */\n      tag_181\n      jumpi\n        /* \"@uniswap/lib/contracts/libraries/Babylonian.sol\":1096:1097  8 */\n      0x08\n        /* \"@uniswap/lib/contracts/libraries/Babylonian.sol\":1089:1097  xx >>= 8 */\n      swap2\n      swap1\n      swap2\n      shr\n      swap1\n        /* \"@uniswap/lib/contracts/libraries/Babylonian.sol\":1117:1118  4 */\n      0x04\n        /* \"@uniswap/lib/contracts/libraries/Babylonian.sol\":1111:1118  r <<= 4 */\n      shl\n        /* \"@uniswap/lib/contracts/libraries/Babylonian.sol\":1058:1129  if (xx >= 0x100) {... */\n    tag_181:\n        /* \"@uniswap/lib/contracts/libraries/Babylonian.sol\":1148:1152  0x10 */\n      0x10\n        /* \"@uniswap/lib/contracts/libraries/Babylonian.sol\":1142:1144  xx */\n      dup3\n        /* \"@uniswap/lib/contracts/libraries/Babylonian.sol\":1142:1152  xx >= 0x10 */\n      lt\n        /* \"@uniswap/lib/contracts/libraries/Babylonian.sol\":1138:1208  if (xx >= 0x10) {... */\n      tag_182\n      jumpi\n        /* \"@uniswap/lib/contracts/libraries/Babylonian.sol\":1175:1176  4 */\n      0x04\n        /* \"@uniswap/lib/contracts/libraries/Babylonian.sol\":1168:1176  xx >>= 4 */\n      swap2\n      swap1\n      swap2\n      shr\n      swap1\n        /* \"@uniswap/lib/contracts/libraries/Babylonian.sol\":1196:1197  2 */\n      0x02\n        /* \"@uniswap/lib/contracts/libraries/Babylonian.sol\":1190:1197  r <<= 2 */\n      shl\n        /* \"@uniswap/lib/contracts/libraries/Babylonian.sol\":1138:1208  if (xx >= 0x10) {... */\n    tag_182:\n        /* \"@uniswap/lib/contracts/libraries/Babylonian.sol\":1227:1230  0x8 */\n      0x08\n        /* \"@uniswap/lib/contracts/libraries/Babylonian.sol\":1221:1223  xx */\n      dup3\n        /* \"@uniswap/lib/contracts/libraries/Babylonian.sol\":1221:1230  xx >= 0x8 */\n      lt\n        /* \"@uniswap/lib/contracts/libraries/Babylonian.sol\":1217:1264  if (xx >= 0x8) {... */\n      tag_183\n      jumpi\n        /* \"@uniswap/lib/contracts/libraries/Babylonian.sol\":1252:1253  1 */\n      0x01\n        /* \"@uniswap/lib/contracts/libraries/Babylonian.sol\":1246:1253  r <<= 1 */\n      shl\n        /* \"@uniswap/lib/contracts/libraries/Babylonian.sol\":1217:1264  if (xx >= 0x8) {... */\n    tag_183:\n        /* \"@uniswap/lib/contracts/libraries/Babylonian.sol\":1292:1293  1 */\n      0x01\n        /* \"@uniswap/lib/contracts/libraries/Babylonian.sol\":1286:1287  r */\n      dup2\n        /* \"@uniswap/lib/contracts/libraries/Babylonian.sol\":1282:1283  x */\n      dup6\n        /* \"@uniswap/lib/contracts/libraries/Babylonian.sol\":1282:1287  x / r */\n      dup2\n      tag_184\n      jumpi\n      invalid\n    tag_184:\n      div\n        /* \"@uniswap/lib/contracts/libraries/Babylonian.sol\":1278:1279  r */\n      dup3\n        /* \"@uniswap/lib/contracts/libraries/Babylonian.sol\":1278:1287  r + x / r */\n      add\n        /* \"@uniswap/lib/contracts/libraries/Babylonian.sol\":1277:1293  (r + x / r) >> 1 */\n      swap1\n      shr\n        /* \"@uniswap/lib/contracts/libraries/Babylonian.sol\":1273:1293  r = (r + x / r) >> 1 */\n      swap1\n      pop\n        /* \"@uniswap/lib/contracts/libraries/Babylonian.sol\":1322:1323  1 */\n      0x01\n        /* \"@uniswap/lib/contracts/libraries/Babylonian.sol\":1316:1317  r */\n      dup2\n        /* \"@uniswap/lib/contracts/libraries/Babylonian.sol\":1312:1313  x */\n      dup6\n        /* \"@uniswap/lib/contracts/libraries/Babylonian.sol\":1312:1317  x / r */\n      dup2\n      tag_185\n      jumpi\n      invalid\n    tag_185:\n      div\n        /* \"@uniswap/lib/contracts/libraries/Babylonian.sol\":1308:1309  r */\n      dup3\n        /* \"@uniswap/lib/contracts/libraries/Babylonian.sol\":1308:1317  r + x / r */\n      add\n        /* \"@uniswap/lib/contracts/libraries/Babylonian.sol\":1307:1323  (r + x / r) >> 1 */\n      swap1\n      shr\n        /* \"@uniswap/lib/contracts/libraries/Babylonian.sol\":1303:1323  r = (r + x / r) >> 1 */\n      swap1\n      pop\n        /* \"@uniswap/lib/contracts/libraries/Babylonian.sol\":1352:1353  1 */\n      0x01\n        /* \"@uniswap/lib/contracts/libraries/Babylonian.sol\":1346:1347  r */\n      dup2\n        /* \"@uniswap/lib/contracts/libraries/Babylonian.sol\":1342:1343  x */\n      dup6\n        /* \"@uniswap/lib/contracts/libraries/Babylonian.sol\":1342:1347  x / r */\n      dup2\n      tag_186\n      jumpi\n      invalid\n    tag_186:\n      div\n        /* \"@uniswap/lib/contracts/libraries/Babylonian.sol\":1338:1339  r */\n      dup3\n        /* \"@uniswap/lib/contracts/libraries/Babylonian.sol\":1338:1347  r + x / r */\n      add\n        /* \"@uniswap/lib/contracts/libraries/Babylonian.sol\":1337:1353  (r + x / r) >> 1 */\n      swap1\n      shr\n        /* \"@uniswap/lib/contracts/libraries/Babylonian.sol\":1333:1353  r = (r + x / r) >> 1 */\n      swap1\n      pop\n        /* \"@uniswap/lib/contracts/libraries/Babylonian.sol\":1382:1383  1 */\n      0x01\n        /* \"@uniswap/lib/contracts/libraries/Babylonian.sol\":1376:1377  r */\n      dup2\n        /* \"@uniswap/lib/contracts/libraries/Babylonian.sol\":1372:1373  x */\n      dup6\n        /* \"@uniswap/lib/contracts/libraries/Babylonian.sol\":1372:1377  x / r */\n      dup2\n      tag_187\n      jumpi\n      invalid\n    tag_187:\n      div\n        /* \"@uniswap/lib/contracts/libraries/Babylonian.sol\":1368:1369  r */\n      dup3\n        /* \"@uniswap/lib/contracts/libraries/Babylonian.sol\":1368:1377  r + x / r */\n      add\n        /* \"@uniswap/lib/contracts/libraries/Babylonian.sol\":1367:1383  (r + x / r) >> 1 */\n      swap1\n      shr\n        /* \"@uniswap/lib/contracts/libraries/Babylonian.sol\":1363:1383  r = (r + x / r) >> 1 */\n      swap1\n      pop\n        /* \"@uniswap/lib/contracts/libraries/Babylonian.sol\":1412:1413  1 */\n      0x01\n        /* \"@uniswap/lib/contracts/libraries/Babylonian.sol\":1406:1407  r */\n      dup2\n        /* \"@uniswap/lib/contracts/libraries/Babylonian.sol\":1402:1403  x */\n      dup6\n        /* \"@uniswap/lib/contracts/libraries/Babylonian.sol\":1402:1407  x / r */\n      dup2\n      tag_188\n      jumpi\n      invalid\n    tag_188:\n      div\n        /* \"@uniswap/lib/contracts/libraries/Babylonian.sol\":1398:1399  r */\n      dup3\n        /* \"@uniswap/lib/contracts/libraries/Babylonian.sol\":1398:1407  r + x / r */\n      add\n        /* \"@uniswap/lib/contracts/libraries/Babylonian.sol\":1397:1413  (r + x / r) >> 1 */\n      swap1\n      shr\n        /* \"@uniswap/lib/contracts/libraries/Babylonian.sol\":1393:1413  r = (r + x / r) >> 1 */\n      swap1\n      pop\n        /* \"@uniswap/lib/contracts/libraries/Babylonian.sol\":1442:1443  1 */\n      0x01\n        /* \"@uniswap/lib/contracts/libraries/Babylonian.sol\":1436:1437  r */\n      dup2\n        /* \"@uniswap/lib/contracts/libraries/Babylonian.sol\":1432:1433  x */\n      dup6\n        /* \"@uniswap/lib/contracts/libraries/Babylonian.sol\":1432:1437  x / r */\n      dup2\n      tag_189\n      jumpi\n      invalid\n    tag_189:\n      div\n        /* \"@uniswap/lib/contracts/libraries/Babylonian.sol\":1428:1429  r */\n      dup3\n        /* \"@uniswap/lib/contracts/libraries/Babylonian.sol\":1428:1437  r + x / r */\n      add\n        /* \"@uniswap/lib/contracts/libraries/Babylonian.sol\":1427:1443  (r + x / r) >> 1 */\n      swap1\n      shr\n        /* \"@uniswap/lib/contracts/libraries/Babylonian.sol\":1423:1443  r = (r + x / r) >> 1 */\n      swap1\n      pop\n        /* \"@uniswap/lib/contracts/libraries/Babylonian.sol\":1472:1473  1 */\n      0x01\n        /* \"@uniswap/lib/contracts/libraries/Babylonian.sol\":1466:1467  r */\n      dup2\n        /* \"@uniswap/lib/contracts/libraries/Babylonian.sol\":1462:1463  x */\n      dup6\n        /* \"@uniswap/lib/contracts/libraries/Babylonian.sol\":1462:1467  x / r */\n      dup2\n      tag_190\n      jumpi\n      invalid\n    tag_190:\n      div\n        /* \"@uniswap/lib/contracts/libraries/Babylonian.sol\":1458:1459  r */\n      dup3\n        /* \"@uniswap/lib/contracts/libraries/Babylonian.sol\":1458:1467  r + x / r */\n      add\n        /* \"@uniswap/lib/contracts/libraries/Babylonian.sol\":1457:1473  (r + x / r) >> 1 */\n      swap1\n      shr\n        /* \"@uniswap/lib/contracts/libraries/Babylonian.sol\":1453:1473  r = (r + x / r) >> 1 */\n      swap1\n      pop\n        /* \"@uniswap/lib/contracts/libraries/Babylonian.sol\":1520:1530  uint256 r1 */\n      0x00\n        /* \"@uniswap/lib/contracts/libraries/Babylonian.sol\":1537:1538  r */\n      dup2\n        /* \"@uniswap/lib/contracts/libraries/Babylonian.sol\":1533:1534  x */\n      dup6\n        /* \"@uniswap/lib/contracts/libraries/Babylonian.sol\":1533:1538  x / r */\n      dup2\n      tag_191\n      jumpi\n      invalid\n    tag_191:\n      div\n        /* \"@uniswap/lib/contracts/libraries/Babylonian.sol\":1520:1538  uint256 r1 = x / r */\n      swap1\n      pop\n        /* \"@uniswap/lib/contracts/libraries/Babylonian.sol\":1560:1562  r1 */\n      dup1\n        /* \"@uniswap/lib/contracts/libraries/Babylonian.sol\":1556:1557  r */\n      dup3\n        /* \"@uniswap/lib/contracts/libraries/Babylonian.sol\":1556:1562  r < r1 */\n      lt\n        /* \"@uniswap/lib/contracts/libraries/Babylonian.sol\":1556:1571  r < r1 ? r : r1 */\n      tag_192\n      jumpi\n        /* \"@uniswap/lib/contracts/libraries/Babylonian.sol\":1569:1571  r1 */\n      dup1\n        /* \"@uniswap/lib/contracts/libraries/Babylonian.sol\":1556:1571  r < r1 ? r : r1 */\n      jump(tag_193)\n    tag_192:\n        /* \"@uniswap/lib/contracts/libraries/Babylonian.sol\":1565:1566  r */\n      dup2\n        /* \"@uniswap/lib/contracts/libraries/Babylonian.sol\":1556:1571  r < r1 ? r : r1 */\n    tag_193:\n        /* \"@uniswap/lib/contracts/libraries/Babylonian.sol\":1548:1572  return (r < r1 ? r : r1) */\n      swap4\n      pop\n      pop\n      pop\n      pop\n        /* \"@uniswap/lib/contracts/libraries/Babylonian.sol\":382:1579  function sqrt(uint256 x) internal pure returns (uint256) {... */\n    tag_175:\n      swap2\n      swap1\n      pop\n      jump\t// out\n        /* \"UniswapV2_Chinese-master/v2-periphery/contracts/libraries/SafeMath.sol\":284:411  function sub(uint x, uint y) internal pure returns (uint z) {... */\n    tag_89:\n        /* \"UniswapV2_Chinese-master/v2-periphery/contracts/libraries/SafeMath.sol\":367:372  x - y */\n      dup1\n      dup3\n      sub\n        /* \"UniswapV2_Chinese-master/v2-periphery/contracts/libraries/SafeMath.sol\":362:378  (z = x - y) <= x */\n      dup3\n      dup2\n      gt\n      iszero\n        /* \"UniswapV2_Chinese-master/v2-periphery/contracts/libraries/SafeMath.sol\":354:404  require((z = x - y) <= x, 'ds-math-sub-underflow') */\n      tag_174\n      jumpi\n      0x40\n      dup1\n      mload\n      shl(0xe5, 0x461bcd)\n      dup2\n      mstore\n      0x20\n      0x04\n      dup3\n      add\n      mstore\n      0x15\n      0x24\n      dup3\n      add\n      mstore\n      shl(0x58, 0x64732d6d6174682d7375622d756e646572666c6f77)\n      0x44\n      dup3\n      add\n      mstore\n      swap1\n      mload\n      swap1\n      dup2\n      swap1\n      sub\n      0x64\n      add\n      swap1\n      revert\n        /* \"UniswapV2_Chinese-master/v2-periphery/contracts/libraries/SafeMath.sol\":152:278  function add(uint x, uint y) internal pure returns (uint z) {... */\n    tag_98:\n        /* \"UniswapV2_Chinese-master/v2-periphery/contracts/libraries/SafeMath.sol\":235:240  x + y */\n      dup1\n      dup3\n      add\n        /* \"UniswapV2_Chinese-master/v2-periphery/contracts/libraries/SafeMath.sol\":230:246  (z = x + y) >= x */\n      dup3\n      dup2\n      lt\n      iszero\n        /* \"UniswapV2_Chinese-master/v2-periphery/contracts/libraries/SafeMath.sol\":222:271  require((z = x + y) >= x, 'ds-math-add-overflow') */\n      tag_174\n      jumpi\n      0x40\n      dup1\n      mload\n      shl(0xe5, 0x461bcd)\n      dup2\n      mstore\n      0x20\n      0x04\n      dup3\n      add\n      mstore\n      0x14\n      0x24\n      dup3\n      add\n      mstore\n      shl(0x60, 0x64732d6d6174682d6164642d6f766572666c6f77)\n      0x44\n      dup3\n      add\n      mstore\n      swap1\n      mload\n      swap1\n      dup2\n      swap1\n      sub\n      0x64\n      add\n      swap1\n      revert\n        /* \"UniswapV2_Chinese-master/v2-periphery/contracts/libraries/UniswapV2Library.sol\":647:1100  function pairFor(address factory, address tokenA, address tokenB) internal pure returns (address pair) {... */\n    tag_106:\n        /* \"UniswapV2_Chinese-master/v2-periphery/contracts/libraries/UniswapV2Library.sol\":736:748  address pair */\n      0x00\n        /* \"UniswapV2_Chinese-master/v2-periphery/contracts/libraries/UniswapV2Library.sol\":761:775  address token0 */\n      dup1\n        /* \"UniswapV2_Chinese-master/v2-periphery/contracts/libraries/UniswapV2Library.sol\":777:791  address token1 */\n      0x00\n        /* \"UniswapV2_Chinese-master/v2-periphery/contracts/libraries/UniswapV2Library.sol\":795:821  sortTokens(tokenA, tokenB) */\n      tag_199\n        /* \"UniswapV2_Chinese-master/v2-periphery/contracts/libraries/UniswapV2Library.sol\":806:812  tokenA */\n      dup6\n        /* \"UniswapV2_Chinese-master/v2-periphery/contracts/libraries/UniswapV2Library.sol\":814:820  tokenB */\n      dup6\n        /* \"UniswapV2_Chinese-master/v2-periphery/contracts/libraries/UniswapV2Library.sol\":795:805  sortTokens */\n      tag_200\n        /* \"UniswapV2_Chinese-master/v2-periphery/contracts/libraries/UniswapV2Library.sol\":795:821  sortTokens(tokenA, tokenB) */\n      jump\t// in\n    tag_199:\n        /* \"UniswapV2_Chinese-master/v2-periphery/contracts/libraries/UniswapV2Library.sol\":955:987  abi.encodePacked(token0, token1) */\n      0x40\n      dup1\n      mload\n      not(0xffffffffffffffffffffffff)\n      0x60\n      swap5\n      dup6\n      shl\n      dup2\n      and\n      0x20\n      dup1\n      dup5\n      add\n      swap2\n      swap1\n      swap2\n      mstore\n      swap4\n      dup6\n      shl\n      dup2\n      and\n      0x34\n      dup4\n      add\n      mstore\n      dup3\n      mload\n        /* \"--CODEGEN--\":22:54   */\n      0x28\n        /* \"--CODEGEN--\":26:47   */\n      dup2\n      dup5\n      sub\n        /* \"--CODEGEN--\":22:54   */\n      add\n        /* \"--CODEGEN--\":6:55   */\n      dup2\n      mstore\n        /* \"UniswapV2_Chinese-master/v2-periphery/contracts/libraries/UniswapV2Library.sol\":955:987  abi.encodePacked(token0, token1) */\n      0x48\n      dup4\n      add\n      dup5\n      mstore\n        /* \"UniswapV2_Chinese-master/v2-periphery/contracts/libraries/UniswapV2Library.sol\":945:988  keccak256(abi.encodePacked(token0, token1)) */\n      dup1\n      mload\n      swap1\n      dup6\n      add\n      keccak256\n      not(sub(shl(0xf8, 0x01), 0x01))\n        /* \"UniswapV2_Chinese-master/v2-periphery/contracts/libraries/UniswapV2Library.sol\":861:1090  abi.encodePacked(... */\n      0x68\n      dup5\n      add\n      mstore\n      swap11\n      swap1\n      swap5\n      shl\n      swap1\n      swap4\n      and\n      0x69\n      dup5\n      add\n      mstore\n      0x7d\n      dup4\n      add\n      swap9\n      swap1\n      swap9\n      mstore\n      0x96e8ac4277198ff8b6f785478aa9a39f403cb768dd02cbee326c3e7da348845f\n      0x9d\n      dup1\n      dup5\n      add\n      swap2\n      swap1\n      swap2\n      mstore\n      dup9\n      mload\n        /* \"--CODEGEN--\":26:47   */\n      dup1\n      dup5\n      sub\n        /* \"--CODEGEN--\":22:54   */\n      swap1\n      swap2\n      add\n        /* \"--CODEGEN--\":6:55   */\n      dup2\n      mstore\n        /* \"UniswapV2_Chinese-master/v2-periphery/contracts/libraries/UniswapV2Library.sol\":861:1090  abi.encodePacked(... */\n      0xbd\n      swap1\n      swap3\n      add\n      swap1\n      swap8\n      mstore\n        /* \"UniswapV2_Chinese-master/v2-periphery/contracts/libraries/UniswapV2Library.sol\":851:1091  keccak256(abi.encodePacked(... */\n      dup1\n      mload\n      swap7\n      add\n      swap6\n      swap1\n      swap6\n      keccak256\n      swap6\n        /* \"UniswapV2_Chinese-master/v2-periphery/contracts/libraries/UniswapV2Library.sol\":647:1100  function pairFor(address factory, address tokenA, address tokenB) internal pure returns (address pair) {... */\n      swap5\n      pop\n      pop\n      pop\n      pop\n      pop\n      jump\t// out\n        /* \"UniswapV2_Chinese-master/v2-periphery/contracts/libraries/UniswapV2LiquidityMathLibrary.sol\":2592:3792  function getReservesAfterArbitrage(... */\n    tag_120:\n        /* \"UniswapV2_Chinese-master/v2-periphery/contracts/libraries/UniswapV2LiquidityMathLibrary.sol\":2795:2811  uint256 reserveA */\n      0x00\n        /* \"UniswapV2_Chinese-master/v2-periphery/contracts/libraries/UniswapV2LiquidityMathLibrary.sol\":2813:2829  uint256 reserveB */\n      dup1\n        /* \"UniswapV2_Chinese-master/v2-periphery/contracts/libraries/UniswapV2LiquidityMathLibrary.sol\":2905:2958  UniswapV2Library.getReserves(factory, tokenA, tokenB) */\n      tag_202\n        /* \"UniswapV2_Chinese-master/v2-periphery/contracts/libraries/UniswapV2LiquidityMathLibrary.sol\":2934:2941  factory */\n      dup8\n        /* \"UniswapV2_Chinese-master/v2-periphery/contracts/libraries/UniswapV2LiquidityMathLibrary.sol\":2943:2949  tokenA */\n      dup8\n        /* \"UniswapV2_Chinese-master/v2-periphery/contracts/libraries/UniswapV2LiquidityMathLibrary.sol\":2951:2957  tokenB */\n      dup8\n        /* \"UniswapV2_Chinese-master/v2-periphery/contracts/libraries/UniswapV2LiquidityMathLibrary.sol\":2905:2933  UniswapV2Library.getReserves */\n      tag_125\n        /* \"UniswapV2_Chinese-master/v2-periphery/contracts/libraries/UniswapV2LiquidityMathLibrary.sol\":2905:2958  UniswapV2Library.getReserves(factory, tokenA, tokenB) */\n      jump\t// in\n    tag_202:\n        /* \"UniswapV2_Chinese-master/v2-periphery/contracts/libraries/UniswapV2LiquidityMathLibrary.sol\":2882:2958  (reserveA, reserveB) = UniswapV2Library.getReserves(factory, tokenA, tokenB) */\n      swap1\n      swap3\n      pop\n      swap1\n      pop\n        /* \"UniswapV2_Chinese-master/v2-periphery/contracts/libraries/UniswapV2LiquidityMathLibrary.sol\":2977:2989  reserveA > 0 */\n      dup2\n      iszero\n      dup1\n      iszero\n      swap1\n        /* \"UniswapV2_Chinese-master/v2-periphery/contracts/libraries/UniswapV2LiquidityMathLibrary.sol\":2977:3005  reserveA > 0 && reserveB > 0 */\n      tag_203\n      jumpi\n      pop\n        /* \"UniswapV2_Chinese-master/v2-periphery/contracts/libraries/UniswapV2LiquidityMathLibrary.sol\":3004:3005  0 */\n      0x00\n        /* \"UniswapV2_Chinese-master/v2-periphery/contracts/libraries/UniswapV2LiquidityMathLibrary.sol\":2993:3001  reserveB */\n      dup2\n        /* \"UniswapV2_Chinese-master/v2-periphery/contracts/libraries/UniswapV2LiquidityMathLibrary.sol\":2993:3005  reserveB > 0 */\n      gt\n        /* \"UniswapV2_Chinese-master/v2-periphery/contracts/libraries/UniswapV2LiquidityMathLibrary.sol\":2977:3005  reserveA > 0 && reserveB > 0 */\n    tag_203:\n        /* \"UniswapV2_Chinese-master/v2-periphery/contracts/libraries/UniswapV2LiquidityMathLibrary.sol\":2969:3055  require(reserveA > 0 && reserveB > 0, 'UniswapV2ArbitrageLibrary: ZERO_PAIR_RESERVES') */\n      tag_204\n      jumpi\n      mload(0x40)\n      shl(0xe5, 0x461bcd)\n      dup2\n      mstore\n      0x04\n      add\n      dup1\n      dup1\n      0x20\n      add\n      dup3\n      dup2\n      sub\n      dup3\n      mstore\n      0x2d\n      dup2\n      mstore\n      0x20\n      add\n      dup1\n      data_10beb334245c0cd5eca15d36999db839d4cd8bb2d2b8454908c5c4cc957da0ca\n      0x2d\n      swap2\n      codecopy\n      0x40\n      add\n      swap2\n      pop\n      pop\n      mload(0x40)\n      dup1\n      swap2\n      sub\n      swap1\n      revert\n    tag_204:\n        /* \"UniswapV2_Chinese-master/v2-periphery/contracts/libraries/UniswapV2LiquidityMathLibrary.sol\":3123:3132  bool aToB */\n      0x00\n        /* \"UniswapV2_Chinese-master/v2-periphery/contracts/libraries/UniswapV2LiquidityMathLibrary.sol\":3134:3150  uint256 amountIn */\n      dup1\n        /* \"UniswapV2_Chinese-master/v2-periphery/contracts/libraries/UniswapV2LiquidityMathLibrary.sol\":3154:3294  computeProfitMaximizingTrade(... */\n      tag_205\n        /* \"UniswapV2_Chinese-master/v2-periphery/contracts/libraries/UniswapV2LiquidityMathLibrary.sol\":3196:3211  truePriceTokenA */\n      dup7\n        /* \"UniswapV2_Chinese-master/v2-periphery/contracts/libraries/UniswapV2LiquidityMathLibrary.sol\":3225:3240  truePriceTokenB */\n      dup7\n        /* \"UniswapV2_Chinese-master/v2-periphery/contracts/libraries/UniswapV2LiquidityMathLibrary.sol\":3254:3262  reserveA */\n      dup7\n        /* \"UniswapV2_Chinese-master/v2-periphery/contracts/libraries/UniswapV2LiquidityMathLibrary.sol\":3276:3284  reserveB */\n      dup7\n        /* \"UniswapV2_Chinese-master/v2-periphery/contracts/libraries/UniswapV2LiquidityMathLibrary.sol\":3154:3182  computeProfitMaximizingTrade */\n      tag_39\n        /* \"UniswapV2_Chinese-master/v2-periphery/contracts/libraries/UniswapV2LiquidityMathLibrary.sol\":3154:3294  computeProfitMaximizingTrade(... */\n      jump\t// in\n    tag_205:\n        /* \"UniswapV2_Chinese-master/v2-periphery/contracts/libraries/UniswapV2LiquidityMathLibrary.sol\":3122:3294  (bool aToB, uint256 amountIn) = computeProfitMaximizingTrade(... */\n      swap2\n      pop\n      swap2\n      pop\n        /* \"UniswapV2_Chinese-master/v2-periphery/contracts/libraries/UniswapV2LiquidityMathLibrary.sol\":3309:3317  amountIn */\n      dup1\n        /* \"UniswapV2_Chinese-master/v2-periphery/contracts/libraries/UniswapV2LiquidityMathLibrary.sol\":3321:3322  0 */\n      0x00\n        /* \"UniswapV2_Chinese-master/v2-periphery/contracts/libraries/UniswapV2LiquidityMathLibrary.sol\":3309:3322  amountIn == 0 */\n      eq\n        /* \"UniswapV2_Chinese-master/v2-periphery/contracts/libraries/UniswapV2LiquidityMathLibrary.sol\":3305:3376  if (amountIn == 0) {... */\n      iszero\n      tag_206\n      jumpi\n      pop\n        /* \"UniswapV2_Chinese-master/v2-periphery/contracts/libraries/UniswapV2LiquidityMathLibrary.sol\":3338:3365  return (reserveA, reserveB) */\n      tag_46\n      swap1\n      pop\n      jump\n        /* \"UniswapV2_Chinese-master/v2-periphery/contracts/libraries/UniswapV2LiquidityMathLibrary.sol\":3305:3376  if (amountIn == 0) {... */\n    tag_206:\n        /* \"UniswapV2_Chinese-master/v2-periphery/contracts/libraries/UniswapV2LiquidityMathLibrary.sol\":3434:3438  aToB */\n      dup2\n        /* \"UniswapV2_Chinese-master/v2-periphery/contracts/libraries/UniswapV2LiquidityMathLibrary.sol\":3430:3786  if (aToB) {... */\n      iszero\n      tag_207\n      jumpi\n        /* \"UniswapV2_Chinese-master/v2-periphery/contracts/libraries/UniswapV2LiquidityMathLibrary.sol\":3454:3468  uint amountOut */\n      0x00\n        /* \"UniswapV2_Chinese-master/v2-periphery/contracts/libraries/UniswapV2LiquidityMathLibrary.sol\":3471:3530  UniswapV2Library.getAmountOut(amountIn, reserveA, reserveB) */\n      tag_208\n        /* \"UniswapV2_Chinese-master/v2-periphery/contracts/libraries/UniswapV2LiquidityMathLibrary.sol\":3501:3509  amountIn */\n      dup3\n        /* \"UniswapV2_Chinese-master/v2-periphery/contracts/libraries/UniswapV2LiquidityMathLibrary.sol\":3511:3519  reserveA */\n      dup7\n        /* \"UniswapV2_Chinese-master/v2-periphery/contracts/libraries/UniswapV2LiquidityMathLibrary.sol\":3521:3529  reserveB */\n      dup7\n        /* \"UniswapV2_Chinese-master/v2-periphery/contracts/libraries/UniswapV2LiquidityMathLibrary.sol\":3471:3500  UniswapV2Library.getAmountOut */\n      tag_43\n        /* \"UniswapV2_Chinese-master/v2-periphery/contracts/libraries/UniswapV2LiquidityMathLibrary.sol\":3471:3530  UniswapV2Library.getAmountOut(amountIn, reserveA, reserveB) */\n      jump\t// in\n    tag_208:\n        /* \"UniswapV2_Chinese-master/v2-periphery/contracts/libraries/UniswapV2LiquidityMathLibrary.sol\":3544:3564  reserveA += amountIn */\n      swap5\n      dup3\n      add\n      swap5\n        /* \"UniswapV2_Chinese-master/v2-periphery/contracts/libraries/UniswapV2LiquidityMathLibrary.sol\":3578:3599  reserveB -= amountOut */\n      swap1\n      swap4\n      sub\n      swap3\n      pop\n        /* \"UniswapV2_Chinese-master/v2-periphery/contracts/libraries/UniswapV2LiquidityMathLibrary.sol\":3430:3786  if (aToB) {... */\n      jump(tag_209)\n    tag_207:\n        /* \"UniswapV2_Chinese-master/v2-periphery/contracts/libraries/UniswapV2LiquidityMathLibrary.sol\":3630:3644  uint amountOut */\n      0x00\n        /* \"UniswapV2_Chinese-master/v2-periphery/contracts/libraries/UniswapV2LiquidityMathLibrary.sol\":3647:3706  UniswapV2Library.getAmountOut(amountIn, reserveB, reserveA) */\n      tag_210\n        /* \"UniswapV2_Chinese-master/v2-periphery/contracts/libraries/UniswapV2LiquidityMathLibrary.sol\":3677:3685  amountIn */\n      dup3\n        /* \"UniswapV2_Chinese-master/v2-periphery/contracts/libraries/UniswapV2LiquidityMathLibrary.sol\":3687:3695  reserveB */\n      dup6\n        /* \"UniswapV2_Chinese-master/v2-periphery/contracts/libraries/UniswapV2LiquidityMathLibrary.sol\":3697:3705  reserveA */\n      dup8\n        /* \"UniswapV2_Chinese-master/v2-periphery/contracts/libraries/UniswapV2LiquidityMathLibrary.sol\":3647:3676  UniswapV2Library.getAmountOut */\n      tag_43\n        /* \"UniswapV2_Chinese-master/v2-periphery/contracts/libraries/UniswapV2LiquidityMathLibrary.sol\":3647:3706  UniswapV2Library.getAmountOut(amountIn, reserveB, reserveA) */\n      jump\t// in\n    tag_210:\n        /* \"UniswapV2_Chinese-master/v2-periphery/contracts/libraries/UniswapV2LiquidityMathLibrary.sol\":3754:3775  reserveA -= amountOut */\n      swap1\n      swap5\n      sub\n      swap4\n      pop\n        /* \"UniswapV2_Chinese-master/v2-periphery/contracts/libraries/UniswapV2LiquidityMathLibrary.sol\":3720:3740  reserveB += amountIn */\n      swap2\n      dup3\n      add\n      swap2\n        /* \"UniswapV2_Chinese-master/v2-periphery/contracts/libraries/UniswapV2LiquidityMathLibrary.sol\":3430:3786  if (aToB) {... */\n    tag_209:\n        /* \"UniswapV2_Chinese-master/v2-periphery/contracts/libraries/UniswapV2LiquidityMathLibrary.sol\":2592:3792  function getReservesAfterArbitrage(... */\n      pop\n      pop\n      swap6\n      pop\n      swap6\n      swap4\n      pop\n      pop\n      pop\n      pop\n      jump\t// out\n        /* \"UniswapV2_Chinese-master/v2-periphery/contracts/libraries/UniswapV2LiquidityMathLibrary.sol\":3853:4763  function computeLiquidityValue(... */\n    tag_122:\n        /* \"UniswapV2_Chinese-master/v2-periphery/contracts/libraries/UniswapV2LiquidityMathLibrary.sol\":4069:4089  uint256 tokenAAmount */\n      0x00\n        /* \"UniswapV2_Chinese-master/v2-periphery/contracts/libraries/UniswapV2LiquidityMathLibrary.sol\":4091:4111  uint256 tokenBAmount */\n      dup1\n        /* \"UniswapV2_Chinese-master/v2-periphery/contracts/libraries/UniswapV2LiquidityMathLibrary.sol\":4127:4132  feeOn */\n      dup4\n        /* \"UniswapV2_Chinese-master/v2-periphery/contracts/libraries/UniswapV2LiquidityMathLibrary.sol\":4127:4145  feeOn && kLast > 0 */\n      dup1\n      iszero\n      tag_212\n      jumpi\n      pop\n        /* \"UniswapV2_Chinese-master/v2-periphery/contracts/libraries/UniswapV2LiquidityMathLibrary.sol\":4144:4145  0 */\n      0x00\n        /* \"UniswapV2_Chinese-master/v2-periphery/contracts/libraries/UniswapV2LiquidityMathLibrary.sol\":4136:4141  kLast */\n      dup4\n        /* \"UniswapV2_Chinese-master/v2-periphery/contracts/libraries/UniswapV2LiquidityMathLibrary.sol\":4136:4145  kLast > 0 */\n      gt\n        /* \"UniswapV2_Chinese-master/v2-periphery/contracts/libraries/UniswapV2LiquidityMathLibrary.sol\":4127:4145  feeOn && kLast > 0 */\n    tag_212:\n        /* \"UniswapV2_Chinese-master/v2-periphery/contracts/libraries/UniswapV2LiquidityMathLibrary.sol\":4123:4648  if (feeOn && kLast > 0) {... */\n      iszero\n      tag_213\n      jumpi\n        /* \"UniswapV2_Chinese-master/v2-periphery/contracts/libraries/UniswapV2LiquidityMathLibrary.sol\":4161:4171  uint rootK */\n      0x00\n        /* \"UniswapV2_Chinese-master/v2-periphery/contracts/libraries/UniswapV2LiquidityMathLibrary.sol\":4174:4215  Babylonian.sqrt(reservesA.mul(reservesB)) */\n      tag_214\n        /* \"UniswapV2_Chinese-master/v2-periphery/contracts/libraries/UniswapV2LiquidityMathLibrary.sol\":4190:4214  reservesA.mul(reservesB) */\n      tag_74\n        /* \"UniswapV2_Chinese-master/v2-periphery/contracts/libraries/UniswapV2LiquidityMathLibrary.sol\":4190:4199  reservesA */\n      dup11\n        /* \"UniswapV2_Chinese-master/v2-periphery/contracts/libraries/UniswapV2LiquidityMathLibrary.sol\":4204:4213  reservesB */\n      dup11\n        /* \"UniswapV2_Chinese-master/v2-periphery/contracts/libraries/UniswapV2LiquidityMathLibrary.sol\":4190:4214  reservesA.mul(reservesB) */\n      0xffffffff\n        /* \"UniswapV2_Chinese-master/v2-periphery/contracts/libraries/UniswapV2LiquidityMathLibrary.sol\":4190:4203  reservesA.mul */\n      tag_72\n        /* \"UniswapV2_Chinese-master/v2-periphery/contracts/libraries/UniswapV2LiquidityMathLibrary.sol\":4190:4214  reservesA.mul(reservesB) */\n      and\n      jump\t// in\n        /* \"UniswapV2_Chinese-master/v2-periphery/contracts/libraries/UniswapV2LiquidityMathLibrary.sol\":4174:4215  Babylonian.sqrt(reservesA.mul(reservesB)) */\n    tag_214:\n        /* \"UniswapV2_Chinese-master/v2-periphery/contracts/libraries/UniswapV2LiquidityMathLibrary.sol\":4161:4215  uint rootK = Babylonian.sqrt(reservesA.mul(reservesB)) */\n      swap1\n      pop\n        /* \"UniswapV2_Chinese-master/v2-periphery/contracts/libraries/UniswapV2LiquidityMathLibrary.sol\":4229:4243  uint rootKLast */\n      0x00\n        /* \"UniswapV2_Chinese-master/v2-periphery/contracts/libraries/UniswapV2LiquidityMathLibrary.sol\":4246:4268  Babylonian.sqrt(kLast) */\n      tag_216\n        /* \"UniswapV2_Chinese-master/v2-periphery/contracts/libraries/UniswapV2LiquidityMathLibrary.sol\":4262:4267  kLast */\n      dup6\n        /* \"UniswapV2_Chinese-master/v2-periphery/contracts/libraries/UniswapV2LiquidityMathLibrary.sol\":4246:4261  Babylonian.sqrt */\n      tag_81\n        /* \"UniswapV2_Chinese-master/v2-periphery/contracts/libraries/UniswapV2LiquidityMathLibrary.sol\":4246:4268  Babylonian.sqrt(kLast) */\n      jump\t// in\n    tag_216:\n        /* \"UniswapV2_Chinese-master/v2-periphery/contracts/libraries/UniswapV2LiquidityMathLibrary.sol\":4229:4268  uint rootKLast = Babylonian.sqrt(kLast) */\n      swap1\n      pop\n        /* \"UniswapV2_Chinese-master/v2-periphery/contracts/libraries/UniswapV2LiquidityMathLibrary.sol\":4294:4303  rootKLast */\n      dup1\n        /* \"UniswapV2_Chinese-master/v2-periphery/contracts/libraries/UniswapV2LiquidityMathLibrary.sol\":4286:4291  rootK */\n      dup3\n        /* \"UniswapV2_Chinese-master/v2-periphery/contracts/libraries/UniswapV2LiquidityMathLibrary.sol\":4286:4303  rootK > rootKLast */\n      gt\n        /* \"UniswapV2_Chinese-master/v2-periphery/contracts/libraries/UniswapV2LiquidityMathLibrary.sol\":4282:4638  if (rootK > rootKLast) {... */\n      iszero\n      tag_217\n      jumpi\n        /* \"UniswapV2_Chinese-master/v2-periphery/contracts/libraries/UniswapV2LiquidityMathLibrary.sol\":4341:4352  totalSupply */\n      dup8\n        /* \"UniswapV2_Chinese-master/v2-periphery/contracts/libraries/UniswapV2LiquidityMathLibrary.sol\":4323:4338  uint numerator1 */\n      0x00\n        /* \"UniswapV2_Chinese-master/v2-periphery/contracts/libraries/UniswapV2LiquidityMathLibrary.sol\":4388:4408  rootK.sub(rootKLast) */\n      tag_218\n        /* \"UniswapV2_Chinese-master/v2-periphery/contracts/libraries/UniswapV2LiquidityMathLibrary.sol\":4388:4393  rootK */\n      dup5\n        /* \"UniswapV2_Chinese-master/v2-periphery/contracts/libraries/UniswapV2LiquidityMathLibrary.sol\":4398:4407  rootKLast */\n      dup5\n        /* \"UniswapV2_Chinese-master/v2-periphery/contracts/libraries/UniswapV2LiquidityMathLibrary.sol\":4388:4408  rootK.sub(rootKLast) */\n      0xffffffff\n        /* \"UniswapV2_Chinese-master/v2-periphery/contracts/libraries/UniswapV2LiquidityMathLibrary.sol\":4388:4397  rootK.sub */\n      tag_89\n        /* \"UniswapV2_Chinese-master/v2-periphery/contracts/libraries/UniswapV2LiquidityMathLibrary.sol\":4388:4408  rootK.sub(rootKLast) */\n      and\n      jump\t// in\n    tag_218:\n        /* \"UniswapV2_Chinese-master/v2-periphery/contracts/libraries/UniswapV2LiquidityMathLibrary.sol\":4370:4408  uint numerator2 = rootK.sub(rootKLast) */\n      swap1\n      pop\n        /* \"UniswapV2_Chinese-master/v2-periphery/contracts/libraries/UniswapV2LiquidityMathLibrary.sol\":4426:4442  uint denominator */\n      0x00\n        /* \"UniswapV2_Chinese-master/v2-periphery/contracts/libraries/UniswapV2LiquidityMathLibrary.sol\":4445:4472  rootK.mul(5).add(rootKLast) */\n      tag_219\n        /* \"UniswapV2_Chinese-master/v2-periphery/contracts/libraries/UniswapV2LiquidityMathLibrary.sol\":4462:4471  rootKLast */\n      dup5\n        /* \"UniswapV2_Chinese-master/v2-periphery/contracts/libraries/UniswapV2LiquidityMathLibrary.sol\":4445:4457  rootK.mul(5) */\n      tag_97\n        /* \"UniswapV2_Chinese-master/v2-periphery/contracts/libraries/UniswapV2LiquidityMathLibrary.sol\":4445:4450  rootK */\n      dup8\n        /* \"UniswapV2_Chinese-master/v2-periphery/contracts/libraries/UniswapV2LiquidityMathLibrary.sol\":4455:4456  5 */\n      0x05\n        /* \"UniswapV2_Chinese-master/v2-periphery/contracts/libraries/UniswapV2LiquidityMathLibrary.sol\":4445:4457  rootK.mul(5) */\n      0xffffffff\n        /* \"UniswapV2_Chinese-master/v2-periphery/contracts/libraries/UniswapV2LiquidityMathLibrary.sol\":4445:4454  rootK.mul */\n      tag_72\n        /* \"UniswapV2_Chinese-master/v2-periphery/contracts/libraries/UniswapV2LiquidityMathLibrary.sol\":4445:4457  rootK.mul(5) */\n      and\n      jump\t// in\n        /* \"UniswapV2_Chinese-master/v2-periphery/contracts/libraries/UniswapV2LiquidityMathLibrary.sol\":4445:4472  rootK.mul(5).add(rootKLast) */\n    tag_219:\n        /* \"UniswapV2_Chinese-master/v2-periphery/contracts/libraries/UniswapV2LiquidityMathLibrary.sol\":4426:4472  uint denominator = rootK.mul(5).add(rootKLast) */\n      swap1\n      pop\n        /* \"UniswapV2_Chinese-master/v2-periphery/contracts/libraries/UniswapV2LiquidityMathLibrary.sol\":4490:4507  uint feeLiquidity */\n      0x00\n        /* \"UniswapV2_Chinese-master/v2-periphery/contracts/libraries/UniswapV2LiquidityMathLibrary.sol\":4510:4562  FullMath.mulDiv(numerator1, numerator2, denominator) */\n      tag_221\n        /* \"UniswapV2_Chinese-master/v2-periphery/contracts/libraries/UniswapV2LiquidityMathLibrary.sol\":4526:4536  numerator1 */\n      dup5\n        /* \"UniswapV2_Chinese-master/v2-periphery/contracts/libraries/UniswapV2LiquidityMathLibrary.sol\":4538:4548  numerator2 */\n      dup5\n        /* \"UniswapV2_Chinese-master/v2-periphery/contracts/libraries/UniswapV2LiquidityMathLibrary.sol\":4550:4561  denominator */\n      dup5\n        /* \"UniswapV2_Chinese-master/v2-periphery/contracts/libraries/UniswapV2LiquidityMathLibrary.sol\":4510:4525  FullMath.mulDiv */\n      tag_70\n        /* \"UniswapV2_Chinese-master/v2-periphery/contracts/libraries/UniswapV2LiquidityMathLibrary.sol\":4510:4562  FullMath.mulDiv(numerator1, numerator2, denominator) */\n      jump\t// in\n    tag_221:\n        /* \"UniswapV2_Chinese-master/v2-periphery/contracts/libraries/UniswapV2LiquidityMathLibrary.sol\":4490:4562  uint feeLiquidity = FullMath.mulDiv(numerator1, numerator2, denominator) */\n      swap1\n      pop\n        /* \"UniswapV2_Chinese-master/v2-periphery/contracts/libraries/UniswapV2LiquidityMathLibrary.sol\":4594:4623  totalSupply.add(feeLiquidity) */\n      tag_222\n        /* \"UniswapV2_Chinese-master/v2-periphery/contracts/libraries/UniswapV2LiquidityMathLibrary.sol\":4594:4605  totalSupply */\n      dup13\n        /* \"UniswapV2_Chinese-master/v2-periphery/contracts/libraries/UniswapV2LiquidityMathLibrary.sol\":4490:4562  uint feeLiquidity = FullMath.mulDiv(numerator1, numerator2, denominator) */\n      dup3\n        /* \"UniswapV2_Chinese-master/v2-periphery/contracts/libraries/UniswapV2LiquidityMathLibrary.sol\":4594:4623  totalSupply.add(feeLiquidity) */\n      0xffffffff\n        /* \"UniswapV2_Chinese-master/v2-periphery/contracts/libraries/UniswapV2LiquidityMathLibrary.sol\":4594:4609  totalSupply.add */\n      tag_98\n        /* \"UniswapV2_Chinese-master/v2-periphery/contracts/libraries/UniswapV2LiquidityMathLibrary.sol\":4594:4623  totalSupply.add(feeLiquidity) */\n      and\n      jump\t// in\n    tag_222:\n        /* \"UniswapV2_Chinese-master/v2-periphery/contracts/libraries/UniswapV2LiquidityMathLibrary.sol\":4580:4623  totalSupply = totalSupply.add(feeLiquidity) */\n      swap12\n      pop\n        /* \"UniswapV2_Chinese-master/v2-periphery/contracts/libraries/UniswapV2LiquidityMathLibrary.sol\":4282:4638  if (rootK > rootKLast) {... */\n      pop\n      pop\n      pop\n      pop\n    tag_217:\n        /* \"UniswapV2_Chinese-master/v2-periphery/contracts/libraries/UniswapV2LiquidityMathLibrary.sol\":4123:4648  if (feeOn && kLast > 0) {... */\n      pop\n      pop\n    tag_213:\n        /* \"UniswapV2_Chinese-master/v2-periphery/contracts/libraries/UniswapV2LiquidityMathLibrary.sol\":4698:4709  totalSupply */\n      dup6\n        /* \"UniswapV2_Chinese-master/v2-periphery/contracts/libraries/UniswapV2LiquidityMathLibrary.sol\":4665:4695  reservesA.mul(liquidityAmount) */\n      tag_223\n        /* \"UniswapV2_Chinese-master/v2-periphery/contracts/libraries/UniswapV2LiquidityMathLibrary.sol\":4665:4674  reservesA */\n      dup10\n        /* \"UniswapV2_Chinese-master/v2-periphery/contracts/libraries/UniswapV2LiquidityMathLibrary.sol\":4679:4694  liquidityAmount */\n      dup8\n        /* \"UniswapV2_Chinese-master/v2-periphery/contracts/libraries/UniswapV2LiquidityMathLibrary.sol\":4665:4695  reservesA.mul(liquidityAmount) */\n      0xffffffff\n        /* \"UniswapV2_Chinese-master/v2-periphery/contracts/libraries/UniswapV2LiquidityMathLibrary.sol\":4665:4678  reservesA.mul */\n      tag_72\n        /* \"UniswapV2_Chinese-master/v2-periphery/contracts/libraries/UniswapV2LiquidityMathLibrary.sol\":4665:4695  reservesA.mul(liquidityAmount) */\n      and\n      jump\t// in\n    tag_223:\n        /* \"UniswapV2_Chinese-master/v2-periphery/contracts/libraries/UniswapV2LiquidityMathLibrary.sol\":4665:4709  reservesA.mul(liquidityAmount) / totalSupply */\n      dup2\n      tag_224\n      jumpi\n      invalid\n    tag_224:\n      div\n        /* \"UniswapV2_Chinese-master/v2-periphery/contracts/libraries/UniswapV2LiquidityMathLibrary.sol\":4744:4755  totalSupply */\n      dup7\n        /* \"UniswapV2_Chinese-master/v2-periphery/contracts/libraries/UniswapV2LiquidityMathLibrary.sol\":4711:4741  reservesB.mul(liquidityAmount) */\n      tag_225\n        /* \"UniswapV2_Chinese-master/v2-periphery/contracts/libraries/UniswapV2LiquidityMathLibrary.sol\":4711:4720  reservesB */\n      dup10\n        /* \"UniswapV2_Chinese-master/v2-periphery/contracts/libraries/UniswapV2LiquidityMathLibrary.sol\":4725:4740  liquidityAmount */\n      dup9\n        /* \"UniswapV2_Chinese-master/v2-periphery/contracts/libraries/UniswapV2LiquidityMathLibrary.sol\":4711:4741  reservesB.mul(liquidityAmount) */\n      0xffffffff\n        /* \"UniswapV2_Chinese-master/v2-periphery/contracts/libraries/UniswapV2LiquidityMathLibrary.sol\":4711:4724  reservesB.mul */\n      tag_72\n        /* \"UniswapV2_Chinese-master/v2-periphery/contracts/libraries/UniswapV2LiquidityMathLibrary.sol\":4711:4741  reservesB.mul(liquidityAmount) */\n      and\n      jump\t// in\n    tag_225:\n        /* \"UniswapV2_Chinese-master/v2-periphery/contracts/libraries/UniswapV2LiquidityMathLibrary.sol\":4711:4755  reservesB.mul(liquidityAmount) / totalSupply */\n      dup2\n      tag_226\n      jumpi\n      invalid\n    tag_226:\n      div\n        /* \"UniswapV2_Chinese-master/v2-periphery/contracts/libraries/UniswapV2LiquidityMathLibrary.sol\":4657:4756  return (reservesA.mul(liquidityAmount) / totalSupply, reservesB.mul(liquidityAmount) / totalSupply) */\n      swap2\n      pop\n      swap2\n      pop\n        /* \"UniswapV2_Chinese-master/v2-periphery/contracts/libraries/UniswapV2LiquidityMathLibrary.sol\":3853:4763  function computeLiquidityValue(... */\n      swap7\n      pop\n      swap7\n      swap5\n      pop\n      pop\n      pop\n      pop\n      pop\n      jump\t// out\n        /* \"UniswapV2_Chinese-master/v2-periphery/contracts/libraries/UniswapV2Library.sol\":1149:1536  function getReserves(address factory, address tokenA, address tokenB) internal view returns (uint reserveA, uint reserveB) {... */\n    tag_125:\n        /* \"UniswapV2_Chinese-master/v2-periphery/contracts/libraries/UniswapV2Library.sol\":1242:1255  uint reserveA */\n      0x00\n        /* \"UniswapV2_Chinese-master/v2-periphery/contracts/libraries/UniswapV2Library.sol\":1257:1270  uint reserveB */\n      dup1\n        /* \"UniswapV2_Chinese-master/v2-periphery/contracts/libraries/UniswapV2Library.sol\":1283:1297  address token0 */\n      0x00\n        /* \"UniswapV2_Chinese-master/v2-periphery/contracts/libraries/UniswapV2Library.sol\":1302:1328  sortTokens(tokenA, tokenB) */\n      tag_228\n        /* \"UniswapV2_Chinese-master/v2-periphery/contracts/libraries/UniswapV2Library.sol\":1313:1319  tokenA */\n      dup6\n        /* \"UniswapV2_Chinese-master/v2-periphery/contracts/libraries/UniswapV2Library.sol\":1321:1327  tokenB */\n      dup6\n        /* \"UniswapV2_Chinese-master/v2-periphery/contracts/libraries/UniswapV2Library.sol\":1302:1312  sortTokens */\n      tag_200\n        /* \"UniswapV2_Chinese-master/v2-periphery/contracts/libraries/UniswapV2Library.sol\":1302:1328  sortTokens(tokenA, tokenB) */\n      jump\t// in\n    tag_228:\n        /* \"UniswapV2_Chinese-master/v2-periphery/contracts/libraries/UniswapV2Library.sol\":1282:1328  (address token0,) = sortTokens(tokenA, tokenB) */\n      pop\n      swap1\n      pop\n        /* \"UniswapV2_Chinese-master/v2-periphery/contracts/libraries/UniswapV2Library.sol\":1339:1352  uint reserve0 */\n      0x00\n        /* \"UniswapV2_Chinese-master/v2-periphery/contracts/libraries/UniswapV2Library.sol\":1354:1367  uint reserve1 */\n      dup1\n        /* \"UniswapV2_Chinese-master/v2-periphery/contracts/libraries/UniswapV2Library.sol\":1387:1419  pairFor(factory, tokenA, tokenB) */\n      tag_229\n        /* \"UniswapV2_Chinese-master/v2-periphery/contracts/libraries/UniswapV2Library.sol\":1395:1402  factory */\n      dup9\n        /* \"UniswapV2_Chinese-master/v2-periphery/contracts/libraries/UniswapV2Library.sol\":1404:1410  tokenA */\n      dup9\n        /* \"UniswapV2_Chinese-master/v2-periphery/contracts/libraries/UniswapV2Library.sol\":1412:1418  tokenB */\n      dup9\n        /* \"UniswapV2_Chinese-master/v2-periphery/contracts/libraries/UniswapV2Library.sol\":1387:1394  pairFor */\n      tag_106\n        /* \"UniswapV2_Chinese-master/v2-periphery/contracts/libraries/UniswapV2Library.sol\":1387:1419  pairFor(factory, tokenA, tokenB) */\n      jump\t// in\n    tag_229:\n      sub(shl(0xa0, 0x01), 0x01)\n        /* \"UniswapV2_Chinese-master/v2-periphery/contracts/libraries/UniswapV2Library.sol\":1372:1432  IUniswapV2Pair(pairFor(factory, tokenA, tokenB)).getReserves */\n      and\n      0x0902f1ac\n        /* \"UniswapV2_Chinese-master/v2-periphery/contracts/libraries/UniswapV2Library.sol\":1372:1434  IUniswapV2Pair(pairFor(factory, tokenA, tokenB)).getReserves() */\n      mload(0x40)\n      dup2\n      0xffffffff\n      and\n      0xe0\n      shl\n      dup2\n      mstore\n      0x04\n      add\n      0x60\n      mload(0x40)\n      dup1\n      dup4\n      sub\n      dup2\n      dup7\n      dup1\n      extcodesize\n      iszero\n        /* \"--CODEGEN--\":5:14   */\n      dup1\n        /* \"--CODEGEN--\":2:4   */\n      iszero\n      tag_230\n      jumpi\n        /* \"--CODEGEN--\":27:28   */\n      0x00\n        /* \"--CODEGEN--\":24:25   */\n      dup1\n        /* \"--CODEGEN--\":17:29   */\n      revert\n        /* \"--CODEGEN--\":2:4   */\n    tag_230:\n        /* \"UniswapV2_Chinese-master/v2-periphery/contracts/libraries/UniswapV2Library.sol\":1372:1434  IUniswapV2Pair(pairFor(factory, tokenA, tokenB)).getReserves() */\n      pop\n      gas\n      staticcall\n      iszero\n        /* \"--CODEGEN--\":8:17   */\n      dup1\n        /* \"--CODEGEN--\":5:7   */\n      iszero\n      tag_232\n      jumpi\n        /* \"--CODEGEN--\":45:61   */\n      returndatasize\n        /* \"--CODEGEN--\":42:43   */\n      0x00\n        /* \"--CODEGEN--\":39:40   */\n      dup1\n        /* \"--CODEGEN--\":24:62   */\n      returndatacopy\n        /* \"--CODEGEN--\":77:93   */\n      returndatasize\n        /* \"--CODEGEN--\":74:75   */\n      0x00\n        /* \"--CODEGEN--\":67:94   */\n      revert\n        /* \"--CODEGEN--\":5:7   */\n    tag_232:\n        /* \"UniswapV2_Chinese-master/v2-periphery/contracts/libraries/UniswapV2Library.sol\":1372:1434  IUniswapV2Pair(pairFor(factory, tokenA, tokenB)).getReserves() */\n      pop\n      pop\n      pop\n      pop\n      mload(0x40)\n      returndatasize\n        /* \"--CODEGEN--\":15:17   */\n      0x60\n        /* \"--CODEGEN--\":10:13   */\n      dup2\n        /* \"--CODEGEN--\":7:18   */\n      lt\n        /* \"--CODEGEN--\":4:6   */\n      iszero\n      tag_233\n      jumpi\n        /* \"--CODEGEN--\":31:32   */\n      0x00\n        /* \"--CODEGEN--\":28:29   */\n      dup1\n        /* \"--CODEGEN--\":21:33   */\n      revert\n        /* \"--CODEGEN--\":4:6   */\n    tag_233:\n      pop\n        /* \"UniswapV2_Chinese-master/v2-periphery/contracts/libraries/UniswapV2Library.sol\":1372:1434  IUniswapV2Pair(pairFor(factory, tokenA, tokenB)).getReserves() */\n      dup1\n      mload\n      0x20\n      swap1\n      swap2\n      add\n      mload\n        /* \"UniswapV2_Chinese-master/v2-periphery/contracts/libraries/UniswapV2Library.sol\":1338:1434  (uint reserve0, uint reserve1,) = IUniswapV2Pair(pairFor(factory, tokenA, tokenB)).getReserves() */\n      0xffffffffffffffffffffffffffff\n      swap2\n      dup3\n      and\n      swap4\n      pop\n      and\n      swap1\n      pop\n      sub(shl(0xa0, 0x01), 0x01)\n        /* \"UniswapV2_Chinese-master/v2-periphery/contracts/libraries/UniswapV2Library.sol\":1467:1483  tokenA == token0 */\n      dup8\n      dup2\n      and\n      swap1\n      dup5\n      and\n      eq\n        /* \"UniswapV2_Chinese-master/v2-periphery/contracts/libraries/UniswapV2Library.sol\":1467:1529  tokenA == token0 ? (reserve0, reserve1) : (reserve1, reserve0) */\n      tag_234\n      jumpi\n        /* \"UniswapV2_Chinese-master/v2-periphery/contracts/libraries/UniswapV2Library.sol\":1510:1518  reserve1 */\n      dup1\n        /* \"UniswapV2_Chinese-master/v2-periphery/contracts/libraries/UniswapV2Library.sol\":1520:1528  reserve0 */\n      dup3\n        /* \"UniswapV2_Chinese-master/v2-periphery/contracts/libraries/UniswapV2Library.sol\":1467:1529  tokenA == token0 ? (reserve0, reserve1) : (reserve1, reserve0) */\n      jump(tag_235)\n    tag_234:\n        /* \"UniswapV2_Chinese-master/v2-periphery/contracts/libraries/UniswapV2Library.sol\":1487:1495  reserve0 */\n      dup2\n        /* \"UniswapV2_Chinese-master/v2-periphery/contracts/libraries/UniswapV2Library.sol\":1497:1505  reserve1 */\n      dup2\n        /* \"UniswapV2_Chinese-master/v2-periphery/contracts/libraries/UniswapV2Library.sol\":1467:1529  tokenA == token0 ? (reserve0, reserve1) : (reserve1, reserve0) */\n    tag_235:\n        /* \"UniswapV2_Chinese-master/v2-periphery/contracts/libraries/UniswapV2Library.sol\":1444:1529  (reserveA, reserveB) = tokenA == token0 ? (reserve0, reserve1) : (reserve1, reserve0) */\n      swap1\n      swap10\n      swap1\n      swap9\n      pop\n        /* \"UniswapV2_Chinese-master/v2-periphery/contracts/libraries/UniswapV2Library.sol\":1149:1536  function getReserves(address factory, address tokenA, address tokenB) internal view returns (uint reserveA, uint reserveB) {... */\n      swap7\n      pop\n      pop\n      pop\n      pop\n      pop\n      pop\n      pop\n      jump\t// out\n        /* \"@uniswap/lib/contracts/libraries/FullMath.sol\":216:422  function fullMul(uint256 x, uint256 y) internal pure returns (uint256 l, uint256 h) {... */\n    tag_163:\n        /* \"@uniswap/lib/contracts/libraries/FullMath.sol\":278:287  uint256 l */\n      0x00\n      dup1\n      dup1\n      not(0x00)\n        /* \"@uniswap/lib/contracts/libraries/FullMath.sol\":333:334  y */\n      dup5\n        /* \"@uniswap/lib/contracts/libraries/FullMath.sol\":330:331  x */\n      dup7\n        /* \"@uniswap/lib/contracts/libraries/FullMath.sol\":323:348  mulmod(x, y, uint256(-1)) */\n      mulmod\n        /* \"@uniswap/lib/contracts/libraries/FullMath.sol\":310:348  uint256 mm = mulmod(x, y, uint256(-1)) */\n      swap1\n      pop\n        /* \"@uniswap/lib/contracts/libraries/FullMath.sol\":366:367  y */\n      dup4\n        /* \"@uniswap/lib/contracts/libraries/FullMath.sol\":362:363  x */\n      dup6\n        /* \"@uniswap/lib/contracts/libraries/FullMath.sol\":362:367  x * y */\n      mul\n        /* \"@uniswap/lib/contracts/libraries/FullMath.sol\":358:367  l = x * y */\n      swap3\n      pop\n        /* \"@uniswap/lib/contracts/libraries/FullMath.sol\":386:387  l */\n      dup3\n        /* \"@uniswap/lib/contracts/libraries/FullMath.sol\":381:383  mm */\n      dup2\n        /* \"@uniswap/lib/contracts/libraries/FullMath.sol\":381:387  mm - l */\n      sub\n        /* \"@uniswap/lib/contracts/libraries/FullMath.sol\":377:387  h = mm - l */\n      swap2\n      pop\n        /* \"@uniswap/lib/contracts/libraries/FullMath.sol\":406:407  l */\n      dup3\n        /* \"@uniswap/lib/contracts/libraries/FullMath.sol\":401:403  mm */\n      dup2\n        /* \"@uniswap/lib/contracts/libraries/FullMath.sol\":401:407  mm < l */\n      lt\n        /* \"@uniswap/lib/contracts/libraries/FullMath.sol\":397:415  if (mm < l) h -= 1 */\n      iszero\n      tag_238\n      jumpi\n        /* \"@uniswap/lib/contracts/libraries/FullMath.sol\":414:415  1 */\n      0x01\n        /* \"@uniswap/lib/contracts/libraries/FullMath.sol\":409:415  h -= 1 */\n      dup3\n      sub\n      swap2\n      pop\n        /* \"@uniswap/lib/contracts/libraries/FullMath.sol\":397:415  if (mm < l) h -= 1 */\n    tag_238:\n        /* \"@uniswap/lib/contracts/libraries/FullMath.sol\":216:422  function fullMul(uint256 x, uint256 y) internal pure returns (uint256 l, uint256 h) {... */\n      pop\n      swap3\n      pop\n      swap3\n      swap1\n      pop\n      jump\t// out\n        /* \"@uniswap/lib/contracts/libraries/FullMath.sol\":428:891  function fullDiv(... */\n    tag_170:\n        /* \"@uniswap/lib/contracts/libraries/FullMath.sol\":530:537  uint256 */\n      0x00\n        /* \"@uniswap/lib/contracts/libraries/FullMath.sol\":568:570  -d */\n      dup2\n      dup2\n      sub\n        /* \"@uniswap/lib/contracts/libraries/FullMath.sol\":564:570  d & -d */\n      dup3\n      and\n      dup1\n        /* \"@uniswap/lib/contracts/libraries/FullMath.sol\":569:570  d */\n      dup4\n        /* \"@uniswap/lib/contracts/libraries/FullMath.sol\":564:570  d & -d */\n      dup2\n        /* \"@uniswap/lib/contracts/libraries/FullMath.sol\":580:589  d /= pow2 */\n      tag_240\n      jumpi\n      invalid\n    tag_240:\n      div\n      swap3\n      pop\n        /* \"@uniswap/lib/contracts/libraries/FullMath.sol\":604:608  pow2 */\n      dup1\n        /* \"@uniswap/lib/contracts/libraries/FullMath.sol\":599:608  l /= pow2 */\n      dup6\n      dup2\n      tag_241\n      jumpi\n      invalid\n    tag_241:\n      div\n      swap5\n      pop\n        /* \"@uniswap/lib/contracts/libraries/FullMath.sol\":638:642  pow2 */\n      dup1\n        /* \"@uniswap/lib/contracts/libraries/FullMath.sol\":630:634  pow2 */\n      dup2\n        /* \"@uniswap/lib/contracts/libraries/FullMath.sol\":629:634  -pow2 */\n      0x00\n      sub\n        /* \"@uniswap/lib/contracts/libraries/FullMath.sol\":628:642  (-pow2) / pow2 */\n      dup2\n      tag_242\n      jumpi\n      invalid\n    tag_242:\n        /* \"@uniswap/lib/contracts/libraries/FullMath.sol\":685:686  2 */\n      0x02\n        /* \"@uniswap/lib/contracts/libraries/FullMath.sol\":685:694  2 - d * r */\n      dup6\n      dup2\n      sub\n        /* \"@uniswap/lib/contracts/libraries/FullMath.sol\":713:718  d * r */\n      dup1\n      dup8\n      mul\n        /* \"@uniswap/lib/contracts/libraries/FullMath.sol\":709:718  2 - d * r */\n      dup3\n      sub\n        /* \"@uniswap/lib/contracts/libraries/FullMath.sol\":704:718  r *= 2 - d * r */\n      mul\n        /* \"@uniswap/lib/contracts/libraries/FullMath.sol\":737:742  d * r */\n      dup1\n      dup8\n      mul\n        /* \"@uniswap/lib/contracts/libraries/FullMath.sol\":733:742  2 - d * r */\n      dup3\n      sub\n        /* \"@uniswap/lib/contracts/libraries/FullMath.sol\":728:742  r *= 2 - d * r */\n      mul\n        /* \"@uniswap/lib/contracts/libraries/FullMath.sol\":761:766  d * r */\n      dup1\n      dup8\n      mul\n        /* \"@uniswap/lib/contracts/libraries/FullMath.sol\":757:766  2 - d * r */\n      dup3\n      sub\n        /* \"@uniswap/lib/contracts/libraries/FullMath.sol\":752:766  r *= 2 - d * r */\n      mul\n        /* \"@uniswap/lib/contracts/libraries/FullMath.sol\":785:790  d * r */\n      dup1\n      dup8\n      mul\n        /* \"@uniswap/lib/contracts/libraries/FullMath.sol\":781:790  2 - d * r */\n      dup3\n      sub\n        /* \"@uniswap/lib/contracts/libraries/FullMath.sol\":776:790  r *= 2 - d * r */\n      mul\n        /* \"@uniswap/lib/contracts/libraries/FullMath.sol\":809:814  d * r */\n      dup1\n      dup8\n      mul\n        /* \"@uniswap/lib/contracts/libraries/FullMath.sol\":805:814  2 - d * r */\n      dup3\n      sub\n        /* \"@uniswap/lib/contracts/libraries/FullMath.sol\":800:814  r *= 2 - d * r */\n      mul\n        /* \"@uniswap/lib/contracts/libraries/FullMath.sol\":833:838  d * r */\n      dup1\n      dup8\n      mul\n        /* \"@uniswap/lib/contracts/libraries/FullMath.sol\":829:838  2 - d * r */\n      dup3\n      sub\n        /* \"@uniswap/lib/contracts/libraries/FullMath.sol\":824:838  r *= 2 - d * r */\n      mul\n        /* \"@uniswap/lib/contracts/libraries/FullMath.sol\":857:862  d * r */\n      swap6\n      dup7\n      mul\n        /* \"@uniswap/lib/contracts/libraries/FullMath.sol\":853:862  2 - d * r */\n      swap1\n      sub\n        /* \"@uniswap/lib/contracts/libraries/FullMath.sol\":848:862  r *= 2 - d * r */\n      swap1\n      swap5\n      mul\n        /* \"@uniswap/lib/contracts/libraries/FullMath.sol\":628:642  (-pow2) / pow2 */\n      swap4\n      div\n        /* \"@uniswap/lib/contracts/libraries/FullMath.sol\":645:646  1 */\n      0x01\n        /* \"@uniswap/lib/contracts/libraries/FullMath.sol\":628:646  (-pow2) / pow2 + 1 */\n      add\n        /* \"@uniswap/lib/contracts/libraries/FullMath.sol\":623:647  h * ((-pow2) / pow2 + 1) */\n      swap4\n      swap1\n      swap4\n      mul\n        /* \"@uniswap/lib/contracts/libraries/FullMath.sol\":618:647  l += h * ((-pow2) / pow2 + 1) */\n      swap4\n      swap1\n      swap4\n      add\n        /* \"@uniswap/lib/contracts/libraries/FullMath.sol\":879:884  l * r */\n      mul\n      swap3\n        /* \"@uniswap/lib/contracts/libraries/FullMath.sol\":428:891  function fullDiv(... */\n      swap2\n      pop\n      pop\n      jump\t// out\n        /* \"UniswapV2_Chinese-master/v2-periphery/contracts/libraries/UniswapV2Library.sol\":218:563  function sortTokens(address tokenA, address tokenB) internal pure returns (address token0, address token1) {... */\n    tag_200:\n        /* \"UniswapV2_Chinese-master/v2-periphery/contracts/libraries/UniswapV2Library.sol\":293:307  address token0 */\n      0x00\n        /* \"UniswapV2_Chinese-master/v2-periphery/contracts/libraries/UniswapV2Library.sol\":309:323  address token1 */\n      dup1\n        /* \"UniswapV2_Chinese-master/v2-periphery/contracts/libraries/UniswapV2Library.sol\":353:359  tokenB */\n      dup3\n      sub(shl(0xa0, 0x01), 0x01)\n        /* \"UniswapV2_Chinese-master/v2-periphery/contracts/libraries/UniswapV2Library.sol\":343:359  tokenA != tokenB */\n      and\n        /* \"UniswapV2_Chinese-master/v2-periphery/contracts/libraries/UniswapV2Library.sol\":343:349  tokenA */\n      dup5\n      sub(shl(0xa0, 0x01), 0x01)\n        /* \"UniswapV2_Chinese-master/v2-periphery/contracts/libraries/UniswapV2Library.sol\":343:359  tokenA != tokenB */\n      and\n      eq\n      iszero\n        /* \"UniswapV2_Chinese-master/v2-periphery/contracts/libraries/UniswapV2Library.sol\":335:401  require(tokenA != tokenB, 'UniswapV2Library: IDENTICAL_ADDRESSES') */\n      tag_244\n      jumpi\n      mload(0x40)\n      shl(0xe5, 0x461bcd)\n      dup2\n      mstore\n      0x04\n      add\n      dup1\n      dup1\n      0x20\n      add\n      dup3\n      dup2\n      sub\n      dup3\n      mstore\n      0x25\n      dup2\n      mstore\n      0x20\n      add\n      dup1\n      data_4ddc3ca35a8b7ccaa016ab70252fdf3396ded4f4fd8375f95b1e9d99790fcdca\n      0x25\n      swap2\n      codecopy\n      0x40\n      add\n      swap2\n      pop\n      pop\n      mload(0x40)\n      dup1\n      swap2\n      sub\n      swap1\n      revert\n    tag_244:\n        /* \"UniswapV2_Chinese-master/v2-periphery/contracts/libraries/UniswapV2Library.sol\":439:445  tokenB */\n      dup3\n      sub(shl(0xa0, 0x01), 0x01)\n        /* \"UniswapV2_Chinese-master/v2-periphery/contracts/libraries/UniswapV2Library.sol\":430:445  tokenA < tokenB */\n      and\n        /* \"UniswapV2_Chinese-master/v2-periphery/contracts/libraries/UniswapV2Library.sol\":430:436  tokenA */\n      dup5\n      sub(shl(0xa0, 0x01), 0x01)\n        /* \"UniswapV2_Chinese-master/v2-periphery/contracts/libraries/UniswapV2Library.sol\":430:445  tokenA < tokenB */\n      and\n      lt\n        /* \"UniswapV2_Chinese-master/v2-periphery/contracts/libraries/UniswapV2Library.sol\":430:483  tokenA < tokenB ? (tokenA, tokenB) : (tokenB, tokenA) */\n      tag_245\n      jumpi\n        /* \"UniswapV2_Chinese-master/v2-periphery/contracts/libraries/UniswapV2Library.sol\":468:474  tokenB */\n      dup3\n        /* \"UniswapV2_Chinese-master/v2-periphery/contracts/libraries/UniswapV2Library.sol\":476:482  tokenA */\n      dup5\n        /* \"UniswapV2_Chinese-master/v2-periphery/contracts/libraries/UniswapV2Library.sol\":430:483  tokenA < tokenB ? (tokenA, tokenB) : (tokenB, tokenA) */\n      jump(tag_246)\n    tag_245:\n        /* \"UniswapV2_Chinese-master/v2-periphery/contracts/libraries/UniswapV2Library.sol\":449:455  tokenA */\n      dup4\n        /* \"UniswapV2_Chinese-master/v2-periphery/contracts/libraries/UniswapV2Library.sol\":457:463  tokenB */\n      dup4\n        /* \"UniswapV2_Chinese-master/v2-periphery/contracts/libraries/UniswapV2Library.sol\":430:483  tokenA < tokenB ? (tokenA, tokenB) : (tokenB, tokenA) */\n    tag_246:\n        /* \"UniswapV2_Chinese-master/v2-periphery/contracts/libraries/UniswapV2Library.sol\":411:483  (token0, token1) = tokenA < tokenB ? (tokenA, tokenB) : (tokenB, tokenA) */\n      swap1\n      swap3\n      pop\n      swap1\n      pop\n      sub(shl(0xa0, 0x01), 0x01)\n        /* \"UniswapV2_Chinese-master/v2-periphery/contracts/libraries/UniswapV2Library.sol\":501:521  token0 != address(0) */\n      dup3\n      and\n        /* \"UniswapV2_Chinese-master/v2-periphery/contracts/libraries/UniswapV2Library.sol\":493:556  require(token0 != address(0), 'UniswapV2Library: ZERO_ADDRESS') */\n      tag_247\n      jumpi\n      0x40\n      dup1\n      mload\n      shl(0xe5, 0x461bcd)\n      dup2\n      mstore\n      0x20\n      0x04\n      dup3\n      add\n      mstore\n      0x1e\n      0x24\n      dup3\n      add\n      mstore\n      0x556e697377617056324c6962726172793a205a45524f5f414444524553530000\n      0x44\n      dup3\n      add\n      mstore\n      swap1\n      mload\n      swap1\n      dup2\n      swap1\n      sub\n      0x64\n      add\n      swap1\n      revert\n    tag_247:\n        /* \"UniswapV2_Chinese-master/v2-periphery/contracts/libraries/UniswapV2Library.sol\":218:563  function sortTokens(address tokenA, address tokenB) internal pure returns (address token0, address token1) {... */\n      swap3\n      pop\n      swap3\n      swap1\n      pop\n      jump\t// out\n    stop\n    data_10beb334245c0cd5eca15d36999db839d4cd8bb2d2b8454908c5c4cc957da0ca 556e697377617056324172626974726167654c6962726172793a205a45524f5f504149525f5245534552564553\n    data_4ddc3ca35a8b7ccaa016ab70252fdf3396ded4f4fd8375f95b1e9d99790fcdca 556e697377617056324c6962726172793a204944454e544943414c5f414444524553534553\n    data_7e8d6b265173dbbd87b3b9e2bf4238bea6caf2b2bbeb63f859a738aec9e761c8 556e697377617056324c6962726172793a20494e53554646494349454e545f4c4951554944495459\n    data_eba3c4b4bce1b370b996e883c442849cfe288700c2faa2de6af84d237654e6b8 436f6d707574654c697175696469747956616c75653a204c49515549444954595f414d4f554e54\n    data_ec21b006eb37ef20d0f4abcabd34de6854fa68af48294244e0263dc05c1dbbae 556e697377617056324c6962726172793a20494e53554646494349454e545f494e5055545f414d4f554e54\n\n    auxdata: 0xa2646970667358221220eb26c37b1f5d1f396a901795c24eb6df79c2a447fc53399e565e04896ae15ed264736f6c63430006060033\n}\n",
				"bytecode": {
					"linkReferences": {},
					"object": "60a060405234801561001057600080fd5b5060405161139f38038061139f8339818101604052602081101561003357600080fd5b5051606081901b6001600160601b0319166080526001600160a01b031661132961007660003980610333528061037652806103b452806103de52506113296000f3fe608060405234801561001057600080fd5b50600436106100885760003560e01c8063d9b7a6e71161005b578063d9b7a6e71461018f578063f2800caf146101c5578063f416f9391461020f578063fa6531541461023e57610088565b8063529488011461008d57806369a2fcbd146100d557806380caa35314610117578063c45a01551461016b575b600080fd5b6100bc600480360360808110156100a357600080fd5b508035906020810135906040810135906060013561026d565b6040805192835260208301919091528051918290030190f35b6100bc600480360360a08110156100eb57600080fd5b506001600160a01b0381358116916020810135909116906040810135906060810135906080013561032b565b610159600480360360a081101561012d57600080fd5b506001600160a01b0381358116916020810135909116906040810135906060810135906080013561036b565b60408051918252519081900360200190f35b6101736103b2565b604080516001600160a01b039092168252519081900360200190f35b6100bc600480360360608110156101a557600080fd5b506001600160a01b038135811691602081013590911690604001356103d6565b6101f4600480360360808110156101db57600080fd5b5080359060208101359060408101359060600135610411565b60408051921515835260208301919091528051918290030190f35b6100bc6004803603608081101561022557600080fd5b508035906020810135906040810135906060013561042d565b6101f46004803603608081101561025457600080fd5b508035906020810135906040810135906060013561048a565b6000806000841180156102805750600083115b6102bb5760405162461bcd60e51b815260040180806020018281038252602d815260200180611228602d913960400191505060405180910390fd5b6000806102ca88888888610495565b9150915080600014156102e4578585935093505050610322565b81156103075760006102f7828888610580565b87830195508603935061031f9050565b6000610314828789610580565b870394505084810192505b50505b94509492505050565b60008061035c7f00000000000000000000000000000000000000000000000000000000000000008888888888610670565b915091505b9550959350505050565b6000805a905061039f7f00000000000000000000000000000000000000000000000000000000000000008888888888610670565b505060005a909103979650505050505050565b7f000000000000000000000000000000000000000000000000000000000000000081565b6000806104057f0000000000000000000000000000000000000000000000000000000000000000868686610861565b91509150935093915050565b60008061042086868686610a03565b9150915094509492505050565b6000806000841180156104405750600083115b61047b5760405162461bcd60e51b815260040180806020018281038252602d815260200180611228602d913960400191505060405180910390fd5b6000806102ca88888888610a03565b600080610420868686865b600080856104a4858786610a75565b10915060006104b9858563ffffffff610b3016565b9050600061050b6105066104d5846103e863ffffffff610b3016565b866104e057896104e2565b8a5b6105016103e5896104f3578d6104f5565b8c5b9063ffffffff610b3016565b610a75565b610b99565b905060006103e58561052e57610529876103e863ffffffff610b3016565b610540565b610540886103e863ffffffff610b3016565b8161054757fe5b04905080821015610562575060009350839250610322915050565b610572828263ffffffff610ce116565b935050505094509492505050565b60008084116105c05760405162461bcd60e51b815260040180806020018281038252602b8152602001806112c9602b913960400191505060405180910390fd5b6000831180156105d05750600082115b61060b5760405162461bcd60e51b815260040180806020018281038252602881526020018061127a6028913960400191505060405180910390fd5b600061061f856103e563ffffffff610b3016565b90506000610633828563ffffffff610b3016565b905060006106598361064d886103e863ffffffff610b3016565b9063ffffffff610d3116565b905080828161066457fe5b04979650505050505050565b6000806000806001600160a01b0316896001600160a01b031663017e7e586040518163ffffffff1660e01b815260040160206040518083038186803b1580156106b857600080fd5b505afa1580156106cc573d6000803e3d6000fd5b505050506040513d60208110156106e257600080fd5b50516001600160a01b03161415905060006106fe8a8a8a610d80565b905060008261070e576000610774565b816001600160a01b0316637464fc3d6040518163ffffffff1660e01b815260040160206040518083038186803b15801561074757600080fd5b505afa15801561075b573d6000803e3d6000fd5b505050506040513d602081101561077157600080fd5b50515b90506000826001600160a01b03166318160ddd6040518163ffffffff1660e01b815260040160206040518083038186803b1580156107b157600080fd5b505afa1580156107c5573d6000803e3d6000fd5b505050506040513d60208110156107db57600080fd5b505190508681108015906107ef5750600087115b61082a5760405162461bcd60e51b81526004018080602001828103825260278152602001806112a26027913960400191505060405180910390fd5b60008061083a8e8e8e8e8e610e40565b9150915061084c8282858c8a89610f05565b97509750505050505050965096945050505050565b600080600080610872888888610fde565b915091506000610883898989610d80565b90506000806001600160a01b03168a6001600160a01b031663017e7e586040518163ffffffff1660e01b815260040160206040518083038186803b1580156108ca57600080fd5b505afa1580156108de573d6000803e3d6000fd5b505050506040513d60208110156108f457600080fd5b50516001600160a01b031614159050600081610911576000610977565b826001600160a01b0316637464fc3d6040518163ffffffff1660e01b815260040160206040518083038186803b15801561094a57600080fd5b505afa15801561095e573d6000803e3d6000fd5b505050506040513d602081101561097457600080fd5b50515b90506000836001600160a01b03166318160ddd6040518163ffffffff1660e01b815260040160206040518083038186803b1580156109b457600080fd5b505afa1580156109c8573d6000803e3d6000fd5b505050506040513d60208110156109de57600080fd5b505190506109f08686838c8787610f05565b9750975050505050505094509492505050565b60008085610a12858786610a75565b1091506000610a27858563ffffffff610b3016565b9050600061050b610506610a4484620f424063ffffffff610b3016565b86610a4f5789610a51565b8a5b6105016103e56104f56103e58b610a68578f6104f5565b8e9063ffffffff610b3016565b6000806000610a8486866110ac565b9150915060008480610a9257fe5b868809905082811115610aa6576001820391505b918290039181610ac457848381610ab957fe5b049350505050610b29565b848210610b18576040805162461bcd60e51b815260206004820152601a60248201527f46756c6c4d6174683a2046554c4c4449565f4f564552464c4f57000000000000604482015290519081900360640190fd5b610b238383876110d9565b93505050505b9392505050565b6000811580610b4b57505080820282828281610b4857fe5b04145b610b93576040805162461bcd60e51b815260206004820152601460248201527364732d6d6174682d6d756c2d6f766572666c6f7760601b604482015290519081900360640190fd5b92915050565b600081610ba857506000610cdc565b816001600160801b8210610bc15760809190911c9060401b5b680100000000000000008210610bdc5760409190911c9060201b5b6401000000008210610bf35760209190911c9060101b5b620100008210610c085760109190911c9060081b5b6101008210610c1c5760089190911c9060041b5b60108210610c2f5760049190911c9060021b5b60088210610c3b5760011b5b6001818581610c4657fe5b048201901c90506001818581610c5857fe5b048201901c90506001818581610c6a57fe5b048201901c90506001818581610c7c57fe5b048201901c90506001818581610c8e57fe5b048201901c90506001818581610ca057fe5b048201901c90506001818581610cb257fe5b048201901c90506000818581610cc457fe5b049050808210610cd45780610cd6565b815b93505050505b919050565b80820382811115610b93576040805162461bcd60e51b815260206004820152601560248201527464732d6d6174682d7375622d756e646572666c6f7760581b604482015290519081900360640190fd5b80820182811015610b93576040805162461bcd60e51b815260206004820152601460248201527364732d6d6174682d6164642d6f766572666c6f7760601b604482015290519081900360640190fd5b6000806000610d8f8585611149565b604080516bffffffffffffffffffffffff19606094851b811660208084019190915293851b81166034830152825160288184030181526048830184528051908501206001600160f81b031960688401529a90941b9093166069840152607d8301989098527f96e8ac4277198ff8b6f785478aa9a39f403cb768dd02cbee326c3e7da348845f609d808401919091528851808403909101815260bd909201909752805196019590952095945050505050565b600080610e4e878787610fde565b90925090508115801590610e625750600081115b610e9d5760405162461bcd60e51b815260040180806020018281038252602d815260200180611228602d913960400191505060405180910390fd5b600080610eac86868686610495565b915091508060001415610ec157506103619050565b8115610ee2576000610ed4828686610580565b948201949093039250610ef9565b6000610eef828587610580565b9094039350918201915b50509550959350505050565b600080838015610f155750600083115b15610f9d576000610f2f6105068a8a63ffffffff610b3016565b90506000610f3c85610b99565b905080821115610f9a57876000610f59848463ffffffff610ce116565b90506000610f728461064d87600563ffffffff610b3016565b90506000610f81848484610a75565b9050610f938c8263ffffffff610d3116565b9b50505050505b50505b85610fae898763ffffffff610b3016565b81610fb557fe5b0486610fc7898863ffffffff610b3016565b81610fce57fe5b0491509150965096945050505050565b6000806000610fed8585611149565b509050600080610ffe888888610d80565b6001600160a01b0316630902f1ac6040518163ffffffff1660e01b815260040160606040518083038186803b15801561103657600080fd5b505afa15801561104a573d6000803e3d6000fd5b505050506040513d606081101561106057600080fd5b5080516020909101516dffffffffffffffffffffffffffff91821693501690506001600160a01b038781169084161461109a57808261109d565b81815b90999098509650505050505050565b60008080600019848609905083850292508281039150828110156110d1576001820391505b509250929050565b600081810382168083816110e957fe5b0492508085816110f557fe5b04945080816000038161110457fe5b60028581038087028203028087028203028087028203028087028203028087028203028087028203029586029003909402930460010193909302939093010292915050565b600080826001600160a01b0316846001600160a01b0316141561119d5760405162461bcd60e51b81526004018080602001828103825260258152602001806112556025913960400191505060405180910390fd5b826001600160a01b0316846001600160a01b0316106111bd5782846111c0565b83835b90925090506001600160a01b038216611220576040805162461bcd60e51b815260206004820152601e60248201527f556e697377617056324c6962726172793a205a45524f5f414444524553530000604482015290519081900360640190fd5b925092905056fe556e697377617056324172626974726167654c6962726172793a205a45524f5f504149525f5245534552564553556e697377617056324c6962726172793a204944454e544943414c5f414444524553534553556e697377617056324c6962726172793a20494e53554646494349454e545f4c4951554944495459436f6d707574654c697175696469747956616c75653a204c49515549444954595f414d4f554e54556e697377617056324c6962726172793a20494e53554646494349454e545f494e5055545f414d4f554e54a2646970667358221220eb26c37b1f5d1f396a901795c24eb6df79c2a447fc53399e565e04896ae15ed264736f6c63430006060033",
					"opcodes": "PUSH1 0xA0 PUSH1 0x40 MSTORE CALLVALUE DUP1 ISZERO PUSH2 0x10 JUMPI PUSH1 0x0 DUP1 REVERT JUMPDEST POP PUSH1 0x40 MLOAD PUSH2 0x139F CODESIZE SUB DUP1 PUSH2 0x139F DUP4 CODECOPY DUP2 DUP2 ADD PUSH1 0x40 MSTORE PUSH1 0x20 DUP2 LT ISZERO PUSH2 0x33 JUMPI PUSH1 0x0 DUP1 REVERT JUMPDEST POP MLOAD PUSH1 0x60 DUP2 SWAP1 SHL PUSH1 0x1 PUSH1 0x1 PUSH1 0x60 SHL SUB NOT AND PUSH1 0x80 MSTORE PUSH1 0x1 PUSH1 0x1 PUSH1 0xA0 SHL SUB AND PUSH2 0x1329 PUSH2 0x76 PUSH1 0x0 CODECOPY DUP1 PUSH2 0x333 MSTORE DUP1 PUSH2 0x376 MSTORE DUP1 PUSH2 0x3B4 MSTORE DUP1 PUSH2 0x3DE MSTORE POP PUSH2 0x1329 PUSH1 0x0 RETURN INVALID PUSH1 0x80 PUSH1 0x40 MSTORE CALLVALUE DUP1 ISZERO PUSH2 0x10 JUMPI PUSH1 0x0 DUP1 REVERT JUMPDEST POP PUSH1 0x4 CALLDATASIZE LT PUSH2 0x88 JUMPI PUSH1 0x0 CALLDATALOAD PUSH1 0xE0 SHR DUP1 PUSH4 0xD9B7A6E7 GT PUSH2 0x5B JUMPI DUP1 PUSH4 0xD9B7A6E7 EQ PUSH2 0x18F JUMPI DUP1 PUSH4 0xF2800CAF EQ PUSH2 0x1C5 JUMPI DUP1 PUSH4 0xF416F939 EQ PUSH2 0x20F JUMPI DUP1 PUSH4 0xFA653154 EQ PUSH2 0x23E JUMPI PUSH2 0x88 JUMP JUMPDEST DUP1 PUSH4 0x52948801 EQ PUSH2 0x8D JUMPI DUP1 PUSH4 0x69A2FCBD EQ PUSH2 0xD5 JUMPI DUP1 PUSH4 0x80CAA353 EQ PUSH2 0x117 JUMPI DUP1 PUSH4 0xC45A0155 EQ PUSH2 0x16B JUMPI JUMPDEST PUSH1 0x0 DUP1 REVERT JUMPDEST PUSH2 0xBC PUSH1 0x4 DUP1 CALLDATASIZE SUB PUSH1 0x80 DUP2 LT ISZERO PUSH2 0xA3 JUMPI PUSH1 0x0 DUP1 REVERT JUMPDEST POP DUP1 CALLDATALOAD SWAP1 PUSH1 0x20 DUP2 ADD CALLDATALOAD SWAP1 PUSH1 0x40 DUP2 ADD CALLDATALOAD SWAP1 PUSH1 0x60 ADD CALLDATALOAD PUSH2 0x26D JUMP JUMPDEST PUSH1 0x40 DUP1 MLOAD SWAP3 DUP4 MSTORE PUSH1 0x20 DUP4 ADD SWAP2 SWAP1 SWAP2 MSTORE DUP1 MLOAD SWAP2 DUP3 SWAP1 SUB ADD SWAP1 RETURN JUMPDEST PUSH2 0xBC PUSH1 0x4 DUP1 CALLDATASIZE SUB PUSH1 0xA0 DUP2 LT ISZERO PUSH2 0xEB JUMPI PUSH1 0x0 DUP1 REVERT JUMPDEST POP PUSH1 0x1 PUSH1 0x1 PUSH1 0xA0 SHL SUB DUP2 CALLDATALOAD DUP2 AND SWAP2 PUSH1 0x20 DUP2 ADD CALLDATALOAD SWAP1 SWAP2 AND SWAP1 PUSH1 0x40 DUP2 ADD CALLDATALOAD SWAP1 PUSH1 0x60 DUP2 ADD CALLDATALOAD SWAP1 PUSH1 0x80 ADD CALLDATALOAD PUSH2 0x32B JUMP JUMPDEST PUSH2 0x159 PUSH1 0x4 DUP1 CALLDATASIZE SUB PUSH1 0xA0 DUP2 LT ISZERO PUSH2 0x12D JUMPI PUSH1 0x0 DUP1 REVERT JUMPDEST POP PUSH1 0x1 PUSH1 0x1 PUSH1 0xA0 SHL SUB DUP2 CALLDATALOAD DUP2 AND SWAP2 PUSH1 0x20 DUP2 ADD CALLDATALOAD SWAP1 SWAP2 AND SWAP1 PUSH1 0x40 DUP2 ADD CALLDATALOAD SWAP1 PUSH1 0x60 DUP2 ADD CALLDATALOAD SWAP1 PUSH1 0x80 ADD CALLDATALOAD PUSH2 0x36B JUMP JUMPDEST PUSH1 0x40 DUP1 MLOAD SWAP2 DUP3 MSTORE MLOAD SWAP1 DUP2 SWAP1 SUB PUSH1 0x20 ADD SWAP1 RETURN JUMPDEST PUSH2 0x173 PUSH2 0x3B2 JUMP JUMPDEST PUSH1 0x40 DUP1 MLOAD PUSH1 0x1 PUSH1 0x1 PUSH1 0xA0 SHL SUB SWAP1 SWAP3 AND DUP3 MSTORE MLOAD SWAP1 DUP2 SWAP1 SUB PUSH1 0x20 ADD SWAP1 RETURN JUMPDEST PUSH2 0xBC PUSH1 0x4 DUP1 CALLDATASIZE SUB PUSH1 0x60 DUP2 LT ISZERO PUSH2 0x1A5 JUMPI PUSH1 0x0 DUP1 REVERT JUMPDEST POP PUSH1 0x1 PUSH1 0x1 PUSH1 0xA0 SHL SUB DUP2 CALLDATALOAD DUP2 AND SWAP2 PUSH1 0x20 DUP2 ADD CALLDATALOAD SWAP1 SWAP2 AND SWAP1 PUSH1 0x40 ADD CALLDATALOAD PUSH2 0x3D6 JUMP JUMPDEST PUSH2 0x1F4 PUSH1 0x4 DUP1 CALLDATASIZE SUB PUSH1 0x80 DUP2 LT ISZERO PUSH2 0x1DB JUMPI PUSH1 0x0 DUP1 REVERT JUMPDEST POP DUP1 CALLDATALOAD SWAP1 PUSH1 0x20 DUP2 ADD CALLDATALOAD SWAP1 PUSH1 0x40 DUP2 ADD CALLDATALOAD SWAP1 PUSH1 0x60 ADD CALLDATALOAD PUSH2 0x411 JUMP JUMPDEST PUSH1 0x40 DUP1 MLOAD SWAP3 ISZERO ISZERO DUP4 MSTORE PUSH1 0x20 DUP4 ADD SWAP2 SWAP1 SWAP2 MSTORE DUP1 MLOAD SWAP2 DUP3 SWAP1 SUB ADD SWAP1 RETURN JUMPDEST PUSH2 0xBC PUSH1 0x4 DUP1 CALLDATASIZE SUB PUSH1 0x80 DUP2 LT ISZERO PUSH2 0x225 JUMPI PUSH1 0x0 DUP1 REVERT JUMPDEST POP DUP1 CALLDATALOAD SWAP1 PUSH1 0x20 DUP2 ADD CALLDATALOAD SWAP1 PUSH1 0x40 DUP2 ADD CALLDATALOAD SWAP1 PUSH1 0x60 ADD CALLDATALOAD PUSH2 0x42D JUMP JUMPDEST PUSH2 0x1F4 PUSH1 0x4 DUP1 CALLDATASIZE SUB PUSH1 0x80 DUP2 LT ISZERO PUSH2 0x254 JUMPI PUSH1 0x0 DUP1 REVERT JUMPDEST POP DUP1 CALLDATALOAD SWAP1 PUSH1 0x20 DUP2 ADD CALLDATALOAD SWAP1 PUSH1 0x40 DUP2 ADD CALLDATALOAD SWAP1 PUSH1 0x60 ADD CALLDATALOAD PUSH2 0x48A JUMP JUMPDEST PUSH1 0x0 DUP1 PUSH1 0x0 DUP5 GT DUP1 ISZERO PUSH2 0x280 JUMPI POP PUSH1 0x0 DUP4 GT JUMPDEST PUSH2 0x2BB JUMPI PUSH1 0x40 MLOAD PUSH3 0x461BCD PUSH1 0xE5 SHL DUP2 MSTORE PUSH1 0x4 ADD DUP1 DUP1 PUSH1 0x20 ADD DUP3 DUP2 SUB DUP3 MSTORE PUSH1 0x2D DUP2 MSTORE PUSH1 0x20 ADD DUP1 PUSH2 0x1228 PUSH1 0x2D SWAP2 CODECOPY PUSH1 0x40 ADD SWAP2 POP POP PUSH1 0x40 MLOAD DUP1 SWAP2 SUB SWAP1 REVERT JUMPDEST PUSH1 0x0 DUP1 PUSH2 0x2CA DUP9 DUP9 DUP9 DUP9 PUSH2 0x495 JUMP JUMPDEST SWAP2 POP SWAP2 POP DUP1 PUSH1 0x0 EQ ISZERO PUSH2 0x2E4 JUMPI DUP6 DUP6 SWAP4 POP SWAP4 POP POP POP PUSH2 0x322 JUMP JUMPDEST DUP2 ISZERO PUSH2 0x307 JUMPI PUSH1 0x0 PUSH2 0x2F7 DUP3 DUP9 DUP9 PUSH2 0x580 JUMP JUMPDEST DUP8 DUP4 ADD SWAP6 POP DUP7 SUB SWAP4 POP PUSH2 0x31F SWAP1 POP JUMP JUMPDEST PUSH1 0x0 PUSH2 0x314 DUP3 DUP8 DUP10 PUSH2 0x580 JUMP JUMPDEST DUP8 SUB SWAP5 POP POP DUP5 DUP2 ADD SWAP3 POP JUMPDEST POP POP JUMPDEST SWAP5 POP SWAP5 SWAP3 POP POP POP JUMP JUMPDEST PUSH1 0x0 DUP1 PUSH2 0x35C PUSH32 0x0 DUP9 DUP9 DUP9 DUP9 DUP9 PUSH2 0x670 JUMP JUMPDEST SWAP2 POP SWAP2 POP JUMPDEST SWAP6 POP SWAP6 SWAP4 POP POP POP POP JUMP JUMPDEST PUSH1 0x0 DUP1 GAS SWAP1 POP PUSH2 0x39F PUSH32 0x0 DUP9 DUP9 DUP9 DUP9 DUP9 PUSH2 0x670 JUMP JUMPDEST POP POP PUSH1 0x0 GAS SWAP1 SWAP2 SUB SWAP8 SWAP7 POP POP POP POP POP POP POP JUMP JUMPDEST PUSH32 0x0 DUP2 JUMP JUMPDEST PUSH1 0x0 DUP1 PUSH2 0x405 PUSH32 0x0 DUP7 DUP7 DUP7 PUSH2 0x861 JUMP JUMPDEST SWAP2 POP SWAP2 POP SWAP4 POP SWAP4 SWAP2 POP POP JUMP JUMPDEST PUSH1 0x0 DUP1 PUSH2 0x420 DUP7 DUP7 DUP7 DUP7 PUSH2 0xA03 JUMP JUMPDEST SWAP2 POP SWAP2 POP SWAP5 POP SWAP5 SWAP3 POP POP POP JUMP JUMPDEST PUSH1 0x0 DUP1 PUSH1 0x0 DUP5 GT DUP1 ISZERO PUSH2 0x440 JUMPI POP PUSH1 0x0 DUP4 GT JUMPDEST PUSH2 0x47B JUMPI PUSH1 0x40 MLOAD PUSH3 0x461BCD PUSH1 0xE5 SHL DUP2 MSTORE PUSH1 0x4 ADD DUP1 DUP1 PUSH1 0x20 ADD DUP3 DUP2 SUB DUP3 MSTORE PUSH1 0x2D DUP2 MSTORE PUSH1 0x20 ADD DUP1 PUSH2 0x1228 PUSH1 0x2D SWAP2 CODECOPY PUSH1 0x40 ADD SWAP2 POP POP PUSH1 0x40 MLOAD DUP1 SWAP2 SUB SWAP1 REVERT JUMPDEST PUSH1 0x0 DUP1 PUSH2 0x2CA DUP9 DUP9 DUP9 DUP9 PUSH2 0xA03 JUMP JUMPDEST PUSH1 0x0 DUP1 PUSH2 0x420 DUP7 DUP7 DUP7 DUP7 JUMPDEST PUSH1 0x0 DUP1 DUP6 PUSH2 0x4A4 DUP6 DUP8 DUP7 PUSH2 0xA75 JUMP JUMPDEST LT SWAP2 POP PUSH1 0x0 PUSH2 0x4B9 DUP6 DUP6 PUSH4 0xFFFFFFFF PUSH2 0xB30 AND JUMP JUMPDEST SWAP1 POP PUSH1 0x0 PUSH2 0x50B PUSH2 0x506 PUSH2 0x4D5 DUP5 PUSH2 0x3E8 PUSH4 0xFFFFFFFF PUSH2 0xB30 AND JUMP JUMPDEST DUP7 PUSH2 0x4E0 JUMPI DUP10 PUSH2 0x4E2 JUMP JUMPDEST DUP11 JUMPDEST PUSH2 0x501 PUSH2 0x3E5 DUP10 PUSH2 0x4F3 JUMPI DUP14 PUSH2 0x4F5 JUMP JUMPDEST DUP13 JUMPDEST SWAP1 PUSH4 0xFFFFFFFF PUSH2 0xB30 AND JUMP JUMPDEST PUSH2 0xA75 JUMP JUMPDEST PUSH2 0xB99 JUMP JUMPDEST SWAP1 POP PUSH1 0x0 PUSH2 0x3E5 DUP6 PUSH2 0x52E JUMPI PUSH2 0x529 DUP8 PUSH2 0x3E8 PUSH4 0xFFFFFFFF PUSH2 0xB30 AND JUMP JUMPDEST PUSH2 0x540 JUMP JUMPDEST PUSH2 0x540 DUP9 PUSH2 0x3E8 PUSH4 0xFFFFFFFF PUSH2 0xB30 AND JUMP JUMPDEST DUP2 PUSH2 0x547 JUMPI INVALID JUMPDEST DIV SWAP1 POP DUP1 DUP3 LT ISZERO PUSH2 0x562 JUMPI POP PUSH1 0x0 SWAP4 POP DUP4 SWAP3 POP PUSH2 0x322 SWAP2 POP POP JUMP JUMPDEST PUSH2 0x572 DUP3 DUP3 PUSH4 0xFFFFFFFF PUSH2 0xCE1 AND JUMP JUMPDEST SWAP4 POP POP POP POP SWAP5 POP SWAP5 SWAP3 POP POP POP JUMP JUMPDEST PUSH1 0x0 DUP1 DUP5 GT PUSH2 0x5C0 JUMPI PUSH1 0x40 MLOAD PUSH3 0x461BCD PUSH1 0xE5 SHL DUP2 MSTORE PUSH1 0x4 ADD DUP1 DUP1 PUSH1 0x20 ADD DUP3 DUP2 SUB DUP3 MSTORE PUSH1 0x2B DUP2 MSTORE PUSH1 0x20 ADD DUP1 PUSH2 0x12C9 PUSH1 0x2B SWAP2 CODECOPY PUSH1 0x40 ADD SWAP2 POP POP PUSH1 0x40 MLOAD DUP1 SWAP2 SUB SWAP1 REVERT JUMPDEST PUSH1 0x0 DUP4 GT DUP1 ISZERO PUSH2 0x5D0 JUMPI POP PUSH1 0x0 DUP3 GT JUMPDEST PUSH2 0x60B JUMPI PUSH1 0x40 MLOAD PUSH3 0x461BCD PUSH1 0xE5 SHL DUP2 MSTORE PUSH1 0x4 ADD DUP1 DUP1 PUSH1 0x20 ADD DUP3 DUP2 SUB DUP3 MSTORE PUSH1 0x28 DUP2 MSTORE PUSH1 0x20 ADD DUP1 PUSH2 0x127A PUSH1 0x28 SWAP2 CODECOPY PUSH1 0x40 ADD SWAP2 POP POP PUSH1 0x40 MLOAD DUP1 SWAP2 SUB SWAP1 REVERT JUMPDEST PUSH1 0x0 PUSH2 0x61F DUP6 PUSH2 0x3E5 PUSH4 0xFFFFFFFF PUSH2 0xB30 AND JUMP JUMPDEST SWAP1 POP PUSH1 0x0 PUSH2 0x633 DUP3 DUP6 PUSH4 0xFFFFFFFF PUSH2 0xB30 AND JUMP JUMPDEST SWAP1 POP PUSH1 0x0 PUSH2 0x659 DUP4 PUSH2 0x64D DUP9 PUSH2 0x3E8 PUSH4 0xFFFFFFFF PUSH2 0xB30 AND JUMP JUMPDEST SWAP1 PUSH4 0xFFFFFFFF PUSH2 0xD31 AND JUMP JUMPDEST SWAP1 POP DUP1 DUP3 DUP2 PUSH2 0x664 JUMPI INVALID JUMPDEST DIV SWAP8 SWAP7 POP POP POP POP POP POP POP JUMP JUMPDEST PUSH1 0x0 DUP1 PUSH1 0x0 DUP1 PUSH1 0x1 PUSH1 0x1 PUSH1 0xA0 SHL SUB AND DUP10 PUSH1 0x1 PUSH1 0x1 PUSH1 0xA0 SHL SUB AND PUSH4 0x17E7E58 PUSH1 0x40 MLOAD DUP2 PUSH4 0xFFFFFFFF AND PUSH1 0xE0 SHL DUP2 MSTORE PUSH1 0x4 ADD PUSH1 0x20 PUSH1 0x40 MLOAD DUP1 DUP4 SUB DUP2 DUP7 DUP1 EXTCODESIZE ISZERO DUP1 ISZERO PUSH2 0x6B8 JUMPI PUSH1 0x0 DUP1 REVERT JUMPDEST POP GAS STATICCALL ISZERO DUP1 ISZERO PUSH2 0x6CC JUMPI RETURNDATASIZE PUSH1 0x0 DUP1 RETURNDATACOPY RETURNDATASIZE PUSH1 0x0 REVERT JUMPDEST POP POP POP POP PUSH1 0x40 MLOAD RETURNDATASIZE PUSH1 0x20 DUP2 LT ISZERO PUSH2 0x6E2 JUMPI PUSH1 0x0 DUP1 REVERT JUMPDEST POP MLOAD PUSH1 0x1 PUSH1 0x1 PUSH1 0xA0 SHL SUB AND EQ ISZERO SWAP1 POP PUSH1 0x0 PUSH2 0x6FE DUP11 DUP11 DUP11 PUSH2 0xD80 JUMP JUMPDEST SWAP1 POP PUSH1 0x0 DUP3 PUSH2 0x70E JUMPI PUSH1 0x0 PUSH2 0x774 JUMP JUMPDEST DUP2 PUSH1 0x1 PUSH1 0x1 PUSH1 0xA0 SHL SUB AND PUSH4 0x7464FC3D PUSH1 0x40 MLOAD DUP2 PUSH4 0xFFFFFFFF AND PUSH1 0xE0 SHL DUP2 MSTORE PUSH1 0x4 ADD PUSH1 0x20 PUSH1 0x40 MLOAD DUP1 DUP4 SUB DUP2 DUP7 DUP1 EXTCODESIZE ISZERO DUP1 ISZERO PUSH2 0x747 JUMPI PUSH1 0x0 DUP1 REVERT JUMPDEST POP GAS STATICCALL ISZERO DUP1 ISZERO PUSH2 0x75B JUMPI RETURNDATASIZE PUSH1 0x0 DUP1 RETURNDATACOPY RETURNDATASIZE PUSH1 0x0 REVERT JUMPDEST POP POP POP POP PUSH1 0x40 MLOAD RETURNDATASIZE PUSH1 0x20 DUP2 LT ISZERO PUSH2 0x771 JUMPI PUSH1 0x0 DUP1 REVERT JUMPDEST POP MLOAD JUMPDEST SWAP1 POP PUSH1 0x0 DUP3 PUSH1 0x1 PUSH1 0x1 PUSH1 0xA0 SHL SUB AND PUSH4 0x18160DDD PUSH1 0x40 MLOAD DUP2 PUSH4 0xFFFFFFFF AND PUSH1 0xE0 SHL DUP2 MSTORE PUSH1 0x4 ADD PUSH1 0x20 PUSH1 0x40 MLOAD DUP1 DUP4 SUB DUP2 DUP7 DUP1 EXTCODESIZE ISZERO DUP1 ISZERO PUSH2 0x7B1 JUMPI PUSH1 0x0 DUP1 REVERT JUMPDEST POP GAS STATICCALL ISZERO DUP1 ISZERO PUSH2 0x7C5 JUMPI RETURNDATASIZE PUSH1 0x0 DUP1 RETURNDATACOPY RETURNDATASIZE PUSH1 0x0 REVERT JUMPDEST POP POP POP POP PUSH1 0x40 MLOAD RETURNDATASIZE PUSH1 0x20 DUP2 LT ISZERO PUSH2 0x7DB JUMPI PUSH1 0x0 DUP1 REVERT JUMPDEST POP MLOAD SWAP1 POP DUP7 DUP2 LT DUP1 ISZERO SWAP1 PUSH2 0x7EF JUMPI POP PUSH1 0x0 DUP8 GT JUMPDEST PUSH2 0x82A JUMPI PUSH1 0x40 MLOAD PUSH3 0x461BCD PUSH1 0xE5 SHL DUP2 MSTORE PUSH1 0x4 ADD DUP1 DUP1 PUSH1 0x20 ADD DUP3 DUP2 SUB DUP3 MSTORE PUSH1 0x27 DUP2 MSTORE PUSH1 0x20 ADD DUP1 PUSH2 0x12A2 PUSH1 0x27 SWAP2 CODECOPY PUSH1 0x40 ADD SWAP2 POP POP PUSH1 0x40 MLOAD DUP1 SWAP2 SUB SWAP1 REVERT JUMPDEST PUSH1 0x0 DUP1 PUSH2 0x83A DUP15 DUP15 DUP15 DUP15 DUP15 PUSH2 0xE40 JUMP JUMPDEST SWAP2 POP SWAP2 POP PUSH2 0x84C DUP3 DUP3 DUP6 DUP13 DUP11 DUP10 PUSH2 0xF05 JUMP JUMPDEST SWAP8 POP SWAP8 POP POP POP POP POP POP POP SWAP7 POP SWAP7 SWAP5 POP POP POP POP POP JUMP JUMPDEST PUSH1 0x0 DUP1 PUSH1 0x0 DUP1 PUSH2 0x872 DUP9 DUP9 DUP9 PUSH2 0xFDE JUMP JUMPDEST SWAP2 POP SWAP2 POP PUSH1 0x0 PUSH2 0x883 DUP10 DUP10 DUP10 PUSH2 0xD80 JUMP JUMPDEST SWAP1 POP PUSH1 0x0 DUP1 PUSH1 0x1 PUSH1 0x1 PUSH1 0xA0 SHL SUB AND DUP11 PUSH1 0x1 PUSH1 0x1 PUSH1 0xA0 SHL SUB AND PUSH4 0x17E7E58 PUSH1 0x40 MLOAD DUP2 PUSH4 0xFFFFFFFF AND PUSH1 0xE0 SHL DUP2 MSTORE PUSH1 0x4 ADD PUSH1 0x20 PUSH1 0x40 MLOAD DUP1 DUP4 SUB DUP2 DUP7 DUP1 EXTCODESIZE ISZERO DUP1 ISZERO PUSH2 0x8CA JUMPI PUSH1 0x0 DUP1 REVERT JUMPDEST POP GAS STATICCALL ISZERO DUP1 ISZERO PUSH2 0x8DE JUMPI RETURNDATASIZE PUSH1 0x0 DUP1 RETURNDATACOPY RETURNDATASIZE PUSH1 0x0 REVERT JUMPDEST POP POP POP POP PUSH1 0x40 MLOAD RETURNDATASIZE PUSH1 0x20 DUP2 LT ISZERO PUSH2 0x8F4 JUMPI PUSH1 0x0 DUP1 REVERT JUMPDEST POP MLOAD PUSH1 0x1 PUSH1 0x1 PUSH1 0xA0 SHL SUB AND EQ ISZERO SWAP1 POP PUSH1 0x0 DUP2 PUSH2 0x911 JUMPI PUSH1 0x0 PUSH2 0x977 JUMP JUMPDEST DUP3 PUSH1 0x1 PUSH1 0x1 PUSH1 0xA0 SHL SUB AND PUSH4 0x7464FC3D PUSH1 0x40 MLOAD DUP2 PUSH4 0xFFFFFFFF AND PUSH1 0xE0 SHL DUP2 MSTORE PUSH1 0x4 ADD PUSH1 0x20 PUSH1 0x40 MLOAD DUP1 DUP4 SUB DUP2 DUP7 DUP1 EXTCODESIZE ISZERO DUP1 ISZERO PUSH2 0x94A JUMPI PUSH1 0x0 DUP1 REVERT JUMPDEST POP GAS STATICCALL ISZERO DUP1 ISZERO PUSH2 0x95E JUMPI RETURNDATASIZE PUSH1 0x0 DUP1 RETURNDATACOPY RETURNDATASIZE PUSH1 0x0 REVERT JUMPDEST POP POP POP POP PUSH1 0x40 MLOAD RETURNDATASIZE PUSH1 0x20 DUP2 LT ISZERO PUSH2 0x974 JUMPI PUSH1 0x0 DUP1 REVERT JUMPDEST POP MLOAD JUMPDEST SWAP1 POP PUSH1 0x0 DUP4 PUSH1 0x1 PUSH1 0x1 PUSH1 0xA0 SHL SUB AND PUSH4 0x18160DDD PUSH1 0x40 MLOAD DUP2 PUSH4 0xFFFFFFFF AND PUSH1 0xE0 SHL DUP2 MSTORE PUSH1 0x4 ADD PUSH1 0x20 PUSH1 0x40 MLOAD DUP1 DUP4 SUB DUP2 DUP7 DUP1 EXTCODESIZE ISZERO DUP1 ISZERO PUSH2 0x9B4 JUMPI PUSH1 0x0 DUP1 REVERT JUMPDEST POP GAS STATICCALL ISZERO DUP1 ISZERO PUSH2 0x9C8 JUMPI RETURNDATASIZE PUSH1 0x0 DUP1 RETURNDATACOPY RETURNDATASIZE PUSH1 0x0 REVERT JUMPDEST POP POP POP POP PUSH1 0x40 MLOAD RETURNDATASIZE PUSH1 0x20 DUP2 LT ISZERO PUSH2 0x9DE JUMPI PUSH1 0x0 DUP1 REVERT JUMPDEST POP MLOAD SWAP1 POP PUSH2 0x9F0 DUP7 DUP7 DUP4 DUP13 DUP8 DUP8 PUSH2 0xF05 JUMP JUMPDEST SWAP8 POP SWAP8 POP POP POP POP POP POP POP SWAP5 POP SWAP5 SWAP3 POP POP POP JUMP JUMPDEST PUSH1 0x0 DUP1 DUP6 PUSH2 0xA12 DUP6 DUP8 DUP7 PUSH2 0xA75 JUMP JUMPDEST LT SWAP2 POP PUSH1 0x0 PUSH2 0xA27 DUP6 DUP6 PUSH4 0xFFFFFFFF PUSH2 0xB30 AND JUMP JUMPDEST SWAP1 POP PUSH1 0x0 PUSH2 0x50B PUSH2 0x506 PUSH2 0xA44 DUP5 PUSH3 0xF4240 PUSH4 0xFFFFFFFF PUSH2 0xB30 AND JUMP JUMPDEST DUP7 PUSH2 0xA4F JUMPI DUP10 PUSH2 0xA51 JUMP JUMPDEST DUP11 JUMPDEST PUSH2 0x501 PUSH2 0x3E5 PUSH2 0x4F5 PUSH2 0x3E5 DUP12 PUSH2 0xA68 JUMPI DUP16 PUSH2 0x4F5 JUMP JUMPDEST DUP15 SWAP1 PUSH4 0xFFFFFFFF PUSH2 0xB30 AND JUMP JUMPDEST PUSH1 0x0 DUP1 PUSH1 0x0 PUSH2 0xA84 DUP7 DUP7 PUSH2 0x10AC JUMP JUMPDEST SWAP2 POP SWAP2 POP PUSH1 0x0 DUP5 DUP1 PUSH2 0xA92 JUMPI INVALID JUMPDEST DUP7 DUP9 MULMOD SWAP1 POP DUP3 DUP2 GT ISZERO PUSH2 0xAA6 JUMPI PUSH1 0x1 DUP3 SUB SWAP2 POP JUMPDEST SWAP2 DUP3 SWAP1 SUB SWAP2 DUP2 PUSH2 0xAC4 JUMPI DUP5 DUP4 DUP2 PUSH2 0xAB9 JUMPI INVALID JUMPDEST DIV SWAP4 POP POP POP POP PUSH2 0xB29 JUMP JUMPDEST DUP5 DUP3 LT PUSH2 0xB18 JUMPI PUSH1 0x40 DUP1 MLOAD PUSH3 0x461BCD PUSH1 0xE5 SHL DUP2 MSTORE PUSH1 0x20 PUSH1 0x4 DUP3 ADD MSTORE PUSH1 0x1A PUSH1 0x24 DUP3 ADD MSTORE PUSH32 0x46756C6C4D6174683A2046554C4C4449565F4F564552464C4F57000000000000 PUSH1 0x44 DUP3 ADD MSTORE SWAP1 MLOAD SWAP1 DUP2 SWAP1 SUB PUSH1 0x64 ADD SWAP1 REVERT JUMPDEST PUSH2 0xB23 DUP4 DUP4 DUP8 PUSH2 0x10D9 JUMP JUMPDEST SWAP4 POP POP POP POP JUMPDEST SWAP4 SWAP3 POP POP POP JUMP JUMPDEST PUSH1 0x0 DUP2 ISZERO DUP1 PUSH2 0xB4B JUMPI POP POP DUP1 DUP3 MUL DUP3 DUP3 DUP3 DUP2 PUSH2 0xB48 JUMPI INVALID JUMPDEST DIV EQ JUMPDEST PUSH2 0xB93 JUMPI PUSH1 0x40 DUP1 MLOAD PUSH3 0x461BCD PUSH1 0xE5 SHL DUP2 MSTORE PUSH1 0x20 PUSH1 0x4 DUP3 ADD MSTORE PUSH1 0x14 PUSH1 0x24 DUP3 ADD MSTORE PUSH20 0x64732D6D6174682D6D756C2D6F766572666C6F77 PUSH1 0x60 SHL PUSH1 0x44 DUP3 ADD MSTORE SWAP1 MLOAD SWAP1 DUP2 SWAP1 SUB PUSH1 0x64 ADD SWAP1 REVERT JUMPDEST SWAP3 SWAP2 POP POP JUMP JUMPDEST PUSH1 0x0 DUP2 PUSH2 0xBA8 JUMPI POP PUSH1 0x0 PUSH2 0xCDC JUMP JUMPDEST DUP2 PUSH1 0x1 PUSH1 0x1 PUSH1 0x80 SHL DUP3 LT PUSH2 0xBC1 JUMPI PUSH1 0x80 SWAP2 SWAP1 SWAP2 SHR SWAP1 PUSH1 0x40 SHL JUMPDEST PUSH9 0x10000000000000000 DUP3 LT PUSH2 0xBDC JUMPI PUSH1 0x40 SWAP2 SWAP1 SWAP2 SHR SWAP1 PUSH1 0x20 SHL JUMPDEST PUSH5 0x100000000 DUP3 LT PUSH2 0xBF3 JUMPI PUSH1 0x20 SWAP2 SWAP1 SWAP2 SHR SWAP1 PUSH1 0x10 SHL JUMPDEST PUSH3 0x10000 DUP3 LT PUSH2 0xC08 JUMPI PUSH1 0x10 SWAP2 SWAP1 SWAP2 SHR SWAP1 PUSH1 0x8 SHL JUMPDEST PUSH2 0x100 DUP3 LT PUSH2 0xC1C JUMPI PUSH1 0x8 SWAP2 SWAP1 SWAP2 SHR SWAP1 PUSH1 0x4 SHL JUMPDEST PUSH1 0x10 DUP3 LT PUSH2 0xC2F JUMPI PUSH1 0x4 SWAP2 SWAP1 SWAP2 SHR SWAP1 PUSH1 0x2 SHL JUMPDEST PUSH1 0x8 DUP3 LT PUSH2 0xC3B JUMPI PUSH1 0x1 SHL JUMPDEST PUSH1 0x1 DUP2 DUP6 DUP2 PUSH2 0xC46 JUMPI INVALID JUMPDEST DIV DUP3 ADD SWAP1 SHR SWAP1 POP PUSH1 0x1 DUP2 DUP6 DUP2 PUSH2 0xC58 JUMPI INVALID JUMPDEST DIV DUP3 ADD SWAP1 SHR SWAP1 POP PUSH1 0x1 DUP2 DUP6 DUP2 PUSH2 0xC6A JUMPI INVALID JUMPDEST DIV DUP3 ADD SWAP1 SHR SWAP1 POP PUSH1 0x1 DUP2 DUP6 DUP2 PUSH2 0xC7C JUMPI INVALID JUMPDEST DIV DUP3 ADD SWAP1 SHR SWAP1 POP PUSH1 0x1 DUP2 DUP6 DUP2 PUSH2 0xC8E JUMPI INVALID JUMPDEST DIV DUP3 ADD SWAP1 SHR SWAP1 POP PUSH1 0x1 DUP2 DUP6 DUP2 PUSH2 0xCA0 JUMPI INVALID JUMPDEST DIV DUP3 ADD SWAP1 SHR SWAP1 POP PUSH1 0x1 DUP2 DUP6 DUP2 PUSH2 0xCB2 JUMPI INVALID JUMPDEST DIV DUP3 ADD SWAP1 SHR SWAP1 POP PUSH1 0x0 DUP2 DUP6 DUP2 PUSH2 0xCC4 JUMPI INVALID JUMPDEST DIV SWAP1 POP DUP1 DUP3 LT PUSH2 0xCD4 JUMPI DUP1 PUSH2 0xCD6 JUMP JUMPDEST DUP2 JUMPDEST SWAP4 POP POP POP POP JUMPDEST SWAP2 SWAP1 POP JUMP JUMPDEST DUP1 DUP3 SUB DUP3 DUP2 GT ISZERO PUSH2 0xB93 JUMPI PUSH1 0x40 DUP1 MLOAD PUSH3 0x461BCD PUSH1 0xE5 SHL DUP2 MSTORE PUSH1 0x20 PUSH1 0x4 DUP3 ADD MSTORE PUSH1 0x15 PUSH1 0x24 DUP3 ADD MSTORE PUSH21 0x64732D6D6174682D7375622D756E646572666C6F77 PUSH1 0x58 SHL PUSH1 0x44 DUP3 ADD MSTORE SWAP1 MLOAD SWAP1 DUP2 SWAP1 SUB PUSH1 0x64 ADD SWAP1 REVERT JUMPDEST DUP1 DUP3 ADD DUP3 DUP2 LT ISZERO PUSH2 0xB93 JUMPI PUSH1 0x40 DUP1 MLOAD PUSH3 0x461BCD PUSH1 0xE5 SHL DUP2 MSTORE PUSH1 0x20 PUSH1 0x4 DUP3 ADD MSTORE PUSH1 0x14 PUSH1 0x24 DUP3 ADD MSTORE PUSH20 0x64732D6D6174682D6164642D6F766572666C6F77 PUSH1 0x60 SHL PUSH1 0x44 DUP3 ADD MSTORE SWAP1 MLOAD SWAP1 DUP2 SWAP1 SUB PUSH1 0x64 ADD SWAP1 REVERT JUMPDEST PUSH1 0x0 DUP1 PUSH1 0x0 PUSH2 0xD8F DUP6 DUP6 PUSH2 0x1149 JUMP JUMPDEST PUSH1 0x40 DUP1 MLOAD PUSH12 0xFFFFFFFFFFFFFFFFFFFFFFFF NOT PUSH1 0x60 SWAP5 DUP6 SHL DUP2 AND PUSH1 0x20 DUP1 DUP5 ADD SWAP2 SWAP1 SWAP2 MSTORE SWAP4 DUP6 SHL DUP2 AND PUSH1 0x34 DUP4 ADD MSTORE DUP3 MLOAD PUSH1 0x28 DUP2 DUP5 SUB ADD DUP2 MSTORE PUSH1 0x48 DUP4 ADD DUP5 MSTORE DUP1 MLOAD SWAP1 DUP6 ADD KECCAK256 PUSH1 0x1 PUSH1 0x1 PUSH1 0xF8 SHL SUB NOT PUSH1 0x68 DUP5 ADD MSTORE SWAP11 SWAP1 SWAP5 SHL SWAP1 SWAP4 AND PUSH1 0x69 DUP5 ADD MSTORE PUSH1 0x7D DUP4 ADD SWAP9 SWAP1 SWAP9 MSTORE PUSH32 0x96E8AC4277198FF8B6F785478AA9A39F403CB768DD02CBEE326C3E7DA348845F PUSH1 0x9D DUP1 DUP5 ADD SWAP2 SWAP1 SWAP2 MSTORE DUP9 MLOAD DUP1 DUP5 SUB SWAP1 SWAP2 ADD DUP2 MSTORE PUSH1 0xBD SWAP1 SWAP3 ADD SWAP1 SWAP8 MSTORE DUP1 MLOAD SWAP7 ADD SWAP6 SWAP1 SWAP6 KECCAK256 SWAP6 SWAP5 POP POP POP POP POP JUMP JUMPDEST PUSH1 0x0 DUP1 PUSH2 0xE4E DUP8 DUP8 DUP8 PUSH2 0xFDE JUMP JUMPDEST SWAP1 SWAP3 POP SWAP1 POP DUP2 ISZERO DUP1 ISZERO SWAP1 PUSH2 0xE62 JUMPI POP PUSH1 0x0 DUP2 GT JUMPDEST PUSH2 0xE9D JUMPI PUSH1 0x40 MLOAD PUSH3 0x461BCD PUSH1 0xE5 SHL DUP2 MSTORE PUSH1 0x4 ADD DUP1 DUP1 PUSH1 0x20 ADD DUP3 DUP2 SUB DUP3 MSTORE PUSH1 0x2D DUP2 MSTORE PUSH1 0x20 ADD DUP1 PUSH2 0x1228 PUSH1 0x2D SWAP2 CODECOPY PUSH1 0x40 ADD SWAP2 POP POP PUSH1 0x40 MLOAD DUP1 SWAP2 SUB SWAP1 REVERT JUMPDEST PUSH1 0x0 DUP1 PUSH2 0xEAC DUP7 DUP7 DUP7 DUP7 PUSH2 0x495 JUMP JUMPDEST SWAP2 POP SWAP2 POP DUP1 PUSH1 0x0 EQ ISZERO PUSH2 0xEC1 JUMPI POP PUSH2 0x361 SWAP1 POP JUMP JUMPDEST DUP2 ISZERO PUSH2 0xEE2 JUMPI PUSH1 0x0 PUSH2 0xED4 DUP3 DUP7 DUP7 PUSH2 0x580 JUMP JUMPDEST SWAP5 DUP3 ADD SWAP5 SWAP1 SWAP4 SUB SWAP3 POP PUSH2 0xEF9 JUMP JUMPDEST PUSH1 0x0 PUSH2 0xEEF DUP3 DUP6 DUP8 PUSH2 0x580 JUMP JUMPDEST SWAP1 SWAP5 SUB SWAP4 POP SWAP2 DUP3 ADD SWAP2 JUMPDEST POP POP SWAP6 POP SWAP6 SWAP4 POP POP POP POP JUMP JUMPDEST PUSH1 0x0 DUP1 DUP4 DUP1 ISZERO PUSH2 0xF15 JUMPI POP PUSH1 0x0 DUP4 GT JUMPDEST ISZERO PUSH2 0xF9D JUMPI PUSH1 0x0 PUSH2 0xF2F PUSH2 0x506 DUP11 DUP11 PUSH4 0xFFFFFFFF PUSH2 0xB30 AND JUMP JUMPDEST SWAP1 POP PUSH1 0x0 PUSH2 0xF3C DUP6 PUSH2 0xB99 JUMP JUMPDEST SWAP1 POP DUP1 DUP3 GT ISZERO PUSH2 0xF9A JUMPI DUP8 PUSH1 0x0 PUSH2 0xF59 DUP5 DUP5 PUSH4 0xFFFFFFFF PUSH2 0xCE1 AND JUMP JUMPDEST SWAP1 POP PUSH1 0x0 PUSH2 0xF72 DUP5 PUSH2 0x64D DUP8 PUSH1 0x5 PUSH4 0xFFFFFFFF PUSH2 0xB30 AND JUMP JUMPDEST SWAP1 POP PUSH1 0x0 PUSH2 0xF81 DUP5 DUP5 DUP5 PUSH2 0xA75 JUMP JUMPDEST SWAP1 POP PUSH2 0xF93 DUP13 DUP3 PUSH4 0xFFFFFFFF PUSH2 0xD31 AND JUMP JUMPDEST SWAP12 POP POP POP POP POP JUMPDEST POP POP JUMPDEST DUP6 PUSH2 0xFAE DUP10 DUP8 PUSH4 0xFFFFFFFF PUSH2 0xB30 AND JUMP JUMPDEST DUP2 PUSH2 0xFB5 JUMPI INVALID JUMPDEST DIV DUP7 PUSH2 0xFC7 DUP10 DUP9 PUSH4 0xFFFFFFFF PUSH2 0xB30 AND JUMP JUMPDEST DUP2 PUSH2 0xFCE JUMPI INVALID JUMPDEST DIV SWAP2 POP SWAP2 POP SWAP7 POP SWAP7 SWAP5 POP POP POP POP POP JUMP JUMPDEST PUSH1 0x0 DUP1 PUSH1 0x0 PUSH2 0xFED DUP6 DUP6 PUSH2 0x1149 JUMP JUMPDEST POP SWAP1 POP PUSH1 0x0 DUP1 PUSH2 0xFFE DUP9 DUP9 DUP9 PUSH2 0xD80 JUMP JUMPDEST PUSH1 0x1 PUSH1 0x1 PUSH1 0xA0 SHL SUB AND PUSH4 0x902F1AC PUSH1 0x40 MLOAD DUP2 PUSH4 0xFFFFFFFF AND PUSH1 0xE0 SHL DUP2 MSTORE PUSH1 0x4 ADD PUSH1 0x60 PUSH1 0x40 MLOAD DUP1 DUP4 SUB DUP2 DUP7 DUP1 EXTCODESIZE ISZERO DUP1 ISZERO PUSH2 0x1036 JUMPI PUSH1 0x0 DUP1 REVERT JUMPDEST POP GAS STATICCALL ISZERO DUP1 ISZERO PUSH2 0x104A JUMPI RETURNDATASIZE PUSH1 0x0 DUP1 RETURNDATACOPY RETURNDATASIZE PUSH1 0x0 REVERT JUMPDEST POP POP POP POP PUSH1 0x40 MLOAD RETURNDATASIZE PUSH1 0x60 DUP2 LT ISZERO PUSH2 0x1060 JUMPI PUSH1 0x0 DUP1 REVERT JUMPDEST POP DUP1 MLOAD PUSH1 0x20 SWAP1 SWAP2 ADD MLOAD PUSH14 0xFFFFFFFFFFFFFFFFFFFFFFFFFFFF SWAP2 DUP3 AND SWAP4 POP AND SWAP1 POP PUSH1 0x1 PUSH1 0x1 PUSH1 0xA0 SHL SUB DUP8 DUP2 AND SWAP1 DUP5 AND EQ PUSH2 0x109A JUMPI DUP1 DUP3 PUSH2 0x109D JUMP JUMPDEST DUP2 DUP2 JUMPDEST SWAP1 SWAP10 SWAP1 SWAP9 POP SWAP7 POP POP POP POP POP POP POP JUMP JUMPDEST PUSH1 0x0 DUP1 DUP1 PUSH1 0x0 NOT DUP5 DUP7 MULMOD SWAP1 POP DUP4 DUP6 MUL SWAP3 POP DUP3 DUP2 SUB SWAP2 POP DUP3 DUP2 LT ISZERO PUSH2 0x10D1 JUMPI PUSH1 0x1 DUP3 SUB SWAP2 POP JUMPDEST POP SWAP3 POP SWAP3 SWAP1 POP JUMP JUMPDEST PUSH1 0x0 DUP2 DUP2 SUB DUP3 AND DUP1 DUP4 DUP2 PUSH2 0x10E9 JUMPI INVALID JUMPDEST DIV SWAP3 POP DUP1 DUP6 DUP2 PUSH2 0x10F5 JUMPI INVALID JUMPDEST DIV SWAP5 POP DUP1 DUP2 PUSH1 0x0 SUB DUP2 PUSH2 0x1104 JUMPI INVALID JUMPDEST PUSH1 0x2 DUP6 DUP2 SUB DUP1 DUP8 MUL DUP3 SUB MUL DUP1 DUP8 MUL DUP3 SUB MUL DUP1 DUP8 MUL DUP3 SUB MUL DUP1 DUP8 MUL DUP3 SUB MUL DUP1 DUP8 MUL DUP3 SUB MUL DUP1 DUP8 MUL DUP3 SUB MUL SWAP6 DUP7 MUL SWAP1 SUB SWAP1 SWAP5 MUL SWAP4 DIV PUSH1 0x1 ADD SWAP4 SWAP1 SWAP4 MUL SWAP4 SWAP1 SWAP4 ADD MUL SWAP3 SWAP2 POP POP JUMP JUMPDEST PUSH1 0x0 DUP1 DUP3 PUSH1 0x1 PUSH1 0x1 PUSH1 0xA0 SHL SUB AND DUP5 PUSH1 0x1 PUSH1 0x1 PUSH1 0xA0 SHL SUB AND EQ ISZERO PUSH2 0x119D JUMPI PUSH1 0x40 MLOAD PUSH3 0x461BCD PUSH1 0xE5 SHL DUP2 MSTORE PUSH1 0x4 ADD DUP1 DUP1 PUSH1 0x20 ADD DUP3 DUP2 SUB DUP3 MSTORE PUSH1 0x25 DUP2 MSTORE PUSH1 0x20 ADD DUP1 PUSH2 0x1255 PUSH1 0x25 SWAP2 CODECOPY PUSH1 0x40 ADD SWAP2 POP POP PUSH1 0x40 MLOAD DUP1 SWAP2 SUB SWAP1 REVERT JUMPDEST DUP3 PUSH1 0x1 PUSH1 0x1 PUSH1 0xA0 SHL SUB AND DUP5 PUSH1 0x1 PUSH1 0x1 PUSH1 0xA0 SHL SUB AND LT PUSH2 0x11BD JUMPI DUP3 DUP5 PUSH2 0x11C0 JUMP JUMPDEST DUP4 DUP4 JUMPDEST SWAP1 SWAP3 POP SWAP1 POP PUSH1 0x1 PUSH1 0x1 PUSH1 0xA0 SHL SUB DUP3 AND PUSH2 0x1220 JUMPI PUSH1 0x40 DUP1 MLOAD PUSH3 0x461BCD PUSH1 0xE5 SHL DUP2 MSTORE PUSH1 0x20 PUSH1 0x4 DUP3 ADD MSTORE PUSH1 0x1E PUSH1 0x24 DUP3 ADD MSTORE PUSH32 0x556E697377617056324C6962726172793A205A45524F5F414444524553530000 PUSH1 0x44 DUP3 ADD MSTORE SWAP1 MLOAD SWAP1 DUP2 SWAP1 SUB PUSH1 0x64 ADD SWAP1 REVERT JUMPDEST SWAP3 POP SWAP3 SWAP1 POP JUMP INVALID SSTORE PUSH15 0x697377617056324172626974726167 PUSH6 0x4C6962726172 PUSH26 0x3A205A45524F5F504149525F5245534552564553556E69737761 PUSH17 0x56324C6962726172793A204944454E5449 NUMBER COINBASE 0x4C 0x5F COINBASE DIFFICULTY DIFFICULTY MSTORE GASLIMIT MSTORE8 MSTORE8 GASLIMIT MSTORE8 SSTORE PUSH15 0x697377617056324C6962726172793A KECCAK256 0x49 0x4E MSTORE8 SSTORE CHAINID CHAINID 0x49 NUMBER 0x49 GASLIMIT 0x4E SLOAD 0x5F 0x4C 0x49 MLOAD SSTORE 0x49 DIFFICULTY 0x49 SLOAD MSIZE NUMBER PUSH16 0x6D707574654C69717569646974795661 PUSH13 0x75653A204C4951554944495459 0x5F COINBASE 0x4D 0x4F SSTORE 0x4E SLOAD SSTORE PUSH15 0x697377617056324C6962726172793A KECCAK256 0x49 0x4E MSTORE8 SSTORE CHAINID CHAINID 0x49 NUMBER 0x49 GASLIMIT 0x4E SLOAD 0x5F 0x49 0x4E POP SSTORE SLOAD 0x5F COINBASE 0x4D 0x4F SSTORE 0x4E SLOAD LOG2 PUSH5 0x6970667358 0x22 SLT KECCAK256 0xEB 0x26 0xC3 PUSH28 0x1F5D1F396A901795C24EB6DF79C2A447FC53399E565E04896AE15ED2 PUSH5 0x736F6C6343 STOP MOD MOD STOP CALLER "
				},
				"gasEstimates": {
					"creation": {
						"codeDepositCost": "981000",
						"executionCost": "infinite",
						"totalCost": "infinite"
					},
					"external": {
						"computeProfitMaximizingTrade(uint256,uint256,uint256,uint256)": "infinite",
						"computeProfitMaximizingTrade2(uint256,uint256,uint256,uint256)": "infinite",
						"factory()": "infinite",
						"getGasCostOfGetLiquidityValueAfterArbitrageToPrice(address,address,uint256,uint256,uint256)": "infinite",
						"getLiquidityValue(address,address,uint256)": "infinite",
						"getLiquidityValueAfterArbitrageToPrice(address,address,uint256,uint256,uint256)": "infinite",
						"getReservesAfterArbitrage(uint256,uint256,uint256,uint256)": "infinite",
						"getReservesAfterArbitrage2(uint256,uint256,uint256,uint256)": "infinite"
					}
				},
				"methodIdentifiers": {
					"computeProfitMaximizingTrade(uint256,uint256,uint256,uint256)": "fa653154",
					"computeProfitMaximizingTrade2(uint256,uint256,uint256,uint256)": "f2800caf",
					"factory()": "c45a0155",
					"getGasCostOfGetLiquidityValueAfterArbitrageToPrice(address,address,uint256,uint256,uint256)": "80caa353",
					"getLiquidityValue(address,address,uint256)": "d9b7a6e7",
					"getLiquidityValueAfterArbitrageToPrice(address,address,uint256,uint256,uint256)": "69a2fcbd",
					"getReservesAfterArbitrage(uint256,uint256,uint256,uint256)": "52948801",
					"getReservesAfterArbitrage2(uint256,uint256,uint256,uint256)": "f416f939"
				}
			},
			"storageLayout": {
				"storage": [],
				"types": null
			},
			"userdoc": {
				"methods": {}
			}
		}
	}
}