{
	"data": {
		"bytecode": {
			"linkReferences": {},
			"object": "60a060405234801561001057600080fd5b5060405161139f38038061139f8339818101604052602081101561003357600080fd5b5051606081901b6001600160601b0319166080526001600160a01b031661132961007660003980610333528061037652806103b452806103de52506113296000f3fe608060405234801561001057600080fd5b50600436106100885760003560e01c8063d9b7a6e71161005b578063d9b7a6e71461018f578063f2800caf146101c5578063f416f9391461020f578063fa6531541461023e57610088565b8063529488011461008d57806369a2fcbd146100d557806380caa35314610117578063c45a01551461016b575b600080fd5b6100bc600480360360808110156100a357600080fd5b508035906020810135906040810135906060013561026d565b6040805192835260208301919091528051918290030190f35b6100bc600480360360a08110156100eb57600080fd5b506001600160a01b0381358116916020810135909116906040810135906060810135906080013561032b565b610159600480360360a081101561012d57600080fd5b506001600160a01b0381358116916020810135909116906040810135906060810135906080013561036b565b60408051918252519081900360200190f35b6101736103b2565b604080516001600160a01b039092168252519081900360200190f35b6100bc600480360360608110156101a557600080fd5b506001600160a01b038135811691602081013590911690604001356103d6565b6101f4600480360360808110156101db57600080fd5b5080359060208101359060408101359060600135610411565b60408051921515835260208301919091528051918290030190f35b6100bc6004803603608081101561022557600080fd5b508035906020810135906040810135906060013561042d565b6101f46004803603608081101561025457600080fd5b508035906020810135906040810135906060013561048a565b6000806000841180156102805750600083115b6102bb5760405162461bcd60e51b815260040180806020018281038252602d815260200180611228602d913960400191505060405180910390fd5b6000806102ca88888888610495565b9150915080600014156102e4578585935093505050610322565b81156103075760006102f7828888610580565b87830195508603935061031f9050565b6000610314828789610580565b870394505084810192505b50505b94509492505050565b60008061035c7f00000000000000000000000000000000000000000000000000000000000000008888888888610670565b915091505b9550959350505050565b6000805a905061039f7f00000000000000000000000000000000000000000000000000000000000000008888888888610670565b505060005a909103979650505050505050565b7f000000000000000000000000000000000000000000000000000000000000000081565b6000806104057f0000000000000000000000000000000000000000000000000000000000000000868686610861565b91509150935093915050565b60008061042086868686610a03565b9150915094509492505050565b6000806000841180156104405750600083115b61047b5760405162461bcd60e51b815260040180806020018281038252602d815260200180611228602d913960400191505060405180910390fd5b6000806102ca88888888610a03565b600080610420868686865b600080856104a4858786610a75565b10915060006104b9858563ffffffff610b3016565b9050600061050b6105066104d5846103e863ffffffff610b3016565b866104e057896104e2565b8a5b6105016103e5896104f3578d6104f5565b8c5b9063ffffffff610b3016565b610a75565b610b99565b905060006103e58561052e57610529876103e863ffffffff610b3016565b610540565b610540886103e863ffffffff610b3016565b8161054757fe5b04905080821015610562575060009350839250610322915050565b610572828263ffffffff610ce116565b935050505094509492505050565b60008084116105c05760405162461bcd60e51b815260040180806020018281038252602b8152602001806112c9602b913960400191505060405180910390fd5b6000831180156105d05750600082115b61060b5760405162461bcd60e51b815260040180806020018281038252602881526020018061127a6028913960400191505060405180910390fd5b600061061f856103e563ffffffff610b3016565b90506000610633828563ffffffff610b3016565b905060006106598361064d886103e863ffffffff610b3016565b9063ffffffff610d3116565b905080828161066457fe5b04979650505050505050565b6000806000806001600160a01b0316896001600160a01b031663017e7e586040518163ffffffff1660e01b815260040160206040518083038186803b1580156106b857600080fd5b505afa1580156106cc573d6000803e3d6000fd5b505050506040513d60208110156106e257600080fd5b50516001600160a01b03161415905060006106fe8a8a8a610d80565b905060008261070e576000610774565b816001600160a01b0316637464fc3d6040518163ffffffff1660e01b815260040160206040518083038186803b15801561074757600080fd5b505afa15801561075b573d6000803e3d6000fd5b505050506040513d602081101561077157600080fd5b50515b90506000826001600160a01b03166318160ddd6040518163ffffffff1660e01b815260040160206040518083038186803b1580156107b157600080fd5b505afa1580156107c5573d6000803e3d6000fd5b505050506040513d60208110156107db57600080fd5b505190508681108015906107ef5750600087115b61082a5760405162461bcd60e51b81526004018080602001828103825260278152602001806112a26027913960400191505060405180910390fd5b60008061083a8e8e8e8e8e610e40565b9150915061084c8282858c8a89610f05565b97509750505050505050965096945050505050565b600080600080610872888888610fde565b915091506000610883898989610d80565b90506000806001600160a01b03168a6001600160a01b031663017e7e586040518163ffffffff1660e01b815260040160206040518083038186803b1580156108ca57600080fd5b505afa1580156108de573d6000803e3d6000fd5b505050506040513d60208110156108f457600080fd5b50516001600160a01b031614159050600081610911576000610977565b826001600160a01b0316637464fc3d6040518163ffffffff1660e01b815260040160206040518083038186803b15801561094a57600080fd5b505afa15801561095e573d6000803e3d6000fd5b505050506040513d602081101561097457600080fd5b50515b90506000836001600160a01b03166318160ddd6040518163ffffffff1660e01b815260040160206040518083038186803b1580156109b457600080fd5b505afa1580156109c8573d6000803e3d6000fd5b505050506040513d60208110156109de57600080fd5b505190506109f08686838c8787610f05565b9750975050505050505094509492505050565b60008085610a12858786610a75565b1091506000610a27858563ffffffff610b3016565b9050600061050b610506610a4484620f424063ffffffff610b3016565b86610a4f5789610a51565b8a5b6105016103e56104f56103e58b610a68578f6104f5565b8e9063ffffffff610b3016565b6000806000610a8486866110ac565b9150915060008480610a9257fe5b868809905082811115610aa6576001820391505b918290039181610ac457848381610ab957fe5b049350505050610b29565b848210610b18576040805162461bcd60e51b815260206004820152601a60248201527f46756c6c4d6174683a2046554c4c4449565f4f564552464c4f57000000000000604482015290519081900360640190fd5b610b238383876110d9565b93505050505b9392505050565b6000811580610b4b57505080820282828281610b4857fe5b04145b610b93576040805162461bcd60e51b815260206004820152601460248201527364732d6d6174682d6d756c2d6f766572666c6f7760601b604482015290519081900360640190fd5b92915050565b600081610ba857506000610cdc565b816001600160801b8210610bc15760809190911c9060401b5b680100000000000000008210610bdc5760409190911c9060201b5b6401000000008210610bf35760209190911c9060101b5b620100008210610c085760109190911c9060081b5b6101008210610c1c5760089190911c9060041b5b60108210610c2f5760049190911c9060021b5b60088210610c3b5760011b5b6001818581610c4657fe5b048201901c90506001818581610c5857fe5b048201901c90506001818581610c6a57fe5b048201901c90506001818581610c7c57fe5b048201901c90506001818581610c8e57fe5b048201901c90506001818581610ca057fe5b048201901c90506001818581610cb257fe5b048201901c90506000818581610cc457fe5b049050808210610cd45780610cd6565b815b93505050505b919050565b80820382811115610b93576040805162461bcd60e51b815260206004820152601560248201527464732d6d6174682d7375622d756e646572666c6f7760581b604482015290519081900360640190fd5b80820182811015610b93576040805162461bcd60e51b815260206004820152601460248201527364732d6d6174682d6164642d6f766572666c6f7760601b604482015290519081900360640190fd5b6000806000610d8f8585611149565b604080516bffffffffffffffffffffffff19606094851b811660208084019190915293851b81166034830152825160288184030181526048830184528051908501206001600160f81b031960688401529a90941b9093166069840152607d8301989098527f96e8ac4277198ff8b6f785478aa9a39f403cb768dd02cbee326c3e7da348845f609d808401919091528851808403909101815260bd909201909752805196019590952095945050505050565b600080610e4e878787610fde565b90925090508115801590610e625750600081115b610e9d5760405162461bcd60e51b815260040180806020018281038252602d815260200180611228602d913960400191505060405180910390fd5b600080610eac86868686610495565b915091508060001415610ec157506103619050565b8115610ee2576000610ed4828686610580565b948201949093039250610ef9565b6000610eef828587610580565b9094039350918201915b50509550959350505050565b600080838015610f155750600083115b15610f9d576000610f2f6105068a8a63ffffffff610b3016565b90506000610f3c85610b99565b905080821115610f9a57876000610f59848463ffffffff610ce116565b90506000610f728461064d87600563ffffffff610b3016565b90506000610f81848484610a75565b9050610f938c8263ffffffff610d3116565b9b50505050505b50505b85610fae898763ffffffff610b3016565b81610fb557fe5b0486610fc7898863ffffffff610b3016565b81610fce57fe5b0491509150965096945050505050565b6000806000610fed8585611149565b509050600080610ffe888888610d80565b6001600160a01b0316630902f1ac6040518163ffffffff1660e01b815260040160606040518083038186803b15801561103657600080fd5b505afa15801561104a573d6000803e3d6000fd5b505050506040513d606081101561106057600080fd5b5080516020909101516dffffffffffffffffffffffffffff91821693501690506001600160a01b038781169084161461109a57808261109d565b81815b90999098509650505050505050565b60008080600019848609905083850292508281039150828110156110d1576001820391505b509250929050565b600081810382168083816110e957fe5b0492508085816110f557fe5b04945080816000038161110457fe5b60028581038087028203028087028203028087028203028087028203028087028203028087028203029586029003909402930460010193909302939093010292915050565b600080826001600160a01b0316846001600160a01b0316141561119d5760405162461bcd60e51b81526004018080602001828103825260258152602001806112556025913960400191505060405180910390fd5b826001600160a01b0316846001600160a01b0316106111bd5782846111c0565b83835b90925090506001600160a01b038216611220576040805162461bcd60e51b815260206004820152601e60248201527f556e697377617056324c6962726172793a205a45524f5f414444524553530000604482015290519081900360640190fd5b925092905056fe556e697377617056324172626974726167654c6962726172793a205a45524f5f504149525f5245534552564553556e697377617056324c6962726172793a204944454e544943414c5f414444524553534553556e697377617056324c6962726172793a20494e53554646494349454e545f4c4951554944495459436f6d707574654c697175696469747956616c75653a204c49515549444954595f414d4f554e54556e697377617056324c6962726172793a20494e53554646494349454e545f494e5055545f414d4f554e54a2646970667358221220eb26c37b1f5d1f396a901795c24eb6df79c2a447fc53399e565e04896ae15ed264736f6c63430006060033",
			"opcodes": "PUSH1 0xA0 PUSH1 0x40 MSTORE CALLVALUE DUP1 ISZERO PUSH2 0x10 JUMPI PUSH1 0x0 DUP1 REVERT JUMPDEST POP PUSH1 0x40 MLOAD PUSH2 0x139F CODESIZE SUB DUP1 PUSH2 0x139F DUP4 CODECOPY DUP2 DUP2 ADD PUSH1 0x40 MSTORE PUSH1 0x20 DUP2 LT ISZERO PUSH2 0x33 JUMPI PUSH1 0x0 DUP1 REVERT JUMPDEST POP MLOAD PUSH1 0x60 DUP2 SWAP1 SHL PUSH1 0x1 PUSH1 0x1 PUSH1 0x60 SHL SUB NOT AND PUSH1 0x80 MSTORE PUSH1 0x1 PUSH1 0x1 PUSH1 0xA0 SHL SUB AND PUSH2 0x1329 PUSH2 0x76 PUSH1 0x0 CODECOPY DUP1 PUSH2 0x333 MSTORE DUP1 PUSH2 0x376 MSTORE DUP1 PUSH2 0x3B4 MSTORE DUP1 PUSH2 0x3DE MSTORE POP PUSH2 0x1329 PUSH1 0x0 RETURN INVALID PUSH1 0x80 PUSH1 0x40 MSTORE CALLVALUE DUP1 ISZERO PUSH2 0x10 JUMPI PUSH1 0x0 DUP1 REVERT JUMPDEST POP PUSH1 0x4 CALLDATASIZE LT PUSH2 0x88 JUMPI PUSH1 0x0 CALLDATALOAD PUSH1 0xE0 SHR DUP1 PUSH4 0xD9B7A6E7 GT PUSH2 0x5B JUMPI DUP1 PUSH4 0xD9B7A6E7 EQ PUSH2 0x18F JUMPI DUP1 PUSH4 0xF2800CAF EQ PUSH2 0x1C5 JUMPI DUP1 PUSH4 0xF416F939 EQ PUSH2 0x20F JUMPI DUP1 PUSH4 0xFA653154 EQ PUSH2 0x23E JUMPI PUSH2 0x88 JUMP JUMPDEST DUP1 PUSH4 0x52948801 EQ PUSH2 0x8D JUMPI DUP1 PUSH4 0x69A2FCBD EQ PUSH2 0xD5 JUMPI DUP1 PUSH4 0x80CAA353 EQ PUSH2 0x117 JUMPI DUP1 PUSH4 0xC45A0155 EQ PUSH2 0x16B JUMPI JUMPDEST PUSH1 0x0 DUP1 REVERT JUMPDEST PUSH2 0xBC PUSH1 0x4 DUP1 CALLDATASIZE SUB PUSH1 0x80 DUP2 LT ISZERO PUSH2 0xA3 JUMPI PUSH1 0x0 DUP1 REVERT JUMPDEST POP DUP1 CALLDATALOAD SWAP1 PUSH1 0x20 DUP2 ADD CALLDATALOAD SWAP1 PUSH1 0x40 DUP2 ADD CALLDATALOAD SWAP1 PUSH1 0x60 ADD CALLDATALOAD PUSH2 0x26D JUMP JUMPDEST PUSH1 0x40 DUP1 MLOAD SWAP3 DUP4 MSTORE PUSH1 0x20 DUP4 ADD SWAP2 SWAP1 SWAP2 MSTORE DUP1 MLOAD SWAP2 DUP3 SWAP1 SUB ADD SWAP1 RETURN JUMPDEST PUSH2 0xBC PUSH1 0x4 DUP1 CALLDATASIZE SUB PUSH1 0xA0 DUP2 LT ISZERO PUSH2 0xEB JUMPI PUSH1 0x0 DUP1 REVERT JUMPDEST POP PUSH1 0x1 PUSH1 0x1 PUSH1 0xA0 SHL SUB DUP2 CALLDATALOAD DUP2 AND SWAP2 PUSH1 0x20 DUP2 ADD CALLDATALOAD SWAP1 SWAP2 AND SWAP1 PUSH1 0x40 DUP2 ADD CALLDATALOAD SWAP1 PUSH1 0x60 DUP2 ADD CALLDATALOAD SWAP1 PUSH1 0x80 ADD CALLDATALOAD PUSH2 0x32B JUMP JUMPDEST PUSH2 0x159 PUSH1 0x4 DUP1 CALLDATASIZE SUB PUSH1 0xA0 DUP2 LT ISZERO PUSH2 0x12D JUMPI PUSH1 0x0 DUP1 REVERT JUMPDEST POP PUSH1 0x1 PUSH1 0x1 PUSH1 0xA0 SHL SUB DUP2 CALLDATALOAD DUP2 AND SWAP2 PUSH1 0x20 DUP2 ADD CALLDATALOAD SWAP1 SWAP2 AND SWAP1 PUSH1 0x40 DUP2 ADD CALLDATALOAD SWAP1 PUSH1 0x60 DUP2 ADD CALLDATALOAD SWAP1 PUSH1 0x80 ADD CALLDATALOAD PUSH2 0x36B JUMP JUMPDEST PUSH1 0x40 DUP1 MLOAD SWAP2 DUP3 MSTORE MLOAD SWAP1 DUP2 SWAP1 SUB PUSH1 0x20 ADD SWAP1 RETURN JUMPDEST PUSH2 0x173 PUSH2 0x3B2 JUMP JUMPDEST PUSH1 0x40 DUP1 MLOAD PUSH1 0x1 PUSH1 0x1 PUSH1 0xA0 SHL SUB SWAP1 SWAP3 AND DUP3 MSTORE MLOAD SWAP1 DUP2 SWAP1 SUB PUSH1 0x20 ADD SWAP1 RETURN JUMPDEST PUSH2 0xBC PUSH1 0x4 DUP1 CALLDATASIZE SUB PUSH1 0x60 DUP2 LT ISZERO PUSH2 0x1A5 JUMPI PUSH1 0x0 DUP1 REVERT JUMPDEST POP PUSH1 0x1 PUSH1 0x1 PUSH1 0xA0 SHL SUB DUP2 CALLDATALOAD DUP2 AND SWAP2 PUSH1 0x20 DUP2 ADD CALLDATALOAD SWAP1 SWAP2 AND SWAP1 PUSH1 0x40 ADD CALLDATALOAD PUSH2 0x3D6 JUMP JUMPDEST PUSH2 0x1F4 PUSH1 0x4 DUP1 CALLDATASIZE SUB PUSH1 0x80 DUP2 LT ISZERO PUSH2 0x1DB JUMPI PUSH1 0x0 DUP1 REVERT JUMPDEST POP DUP1 CALLDATALOAD SWAP1 PUSH1 0x20 DUP2 ADD CALLDATALOAD SWAP1 PUSH1 0x40 DUP2 ADD CALLDATALOAD SWAP1 PUSH1 0x60 ADD CALLDATALOAD PUSH2 0x411 JUMP JUMPDEST PUSH1 0x40 DUP1 MLOAD SWAP3 ISZERO ISZERO DUP4 MSTORE PUSH1 0x20 DUP4 ADD SWAP2 SWAP1 SWAP2 MSTORE DUP1 MLOAD SWAP2 DUP3 SWAP1 SUB ADD SWAP1 RETURN JUMPDEST PUSH2 0xBC PUSH1 0x4 DUP1 CALLDATASIZE SUB PUSH1 0x80 DUP2 LT ISZERO PUSH2 0x225 JUMPI PUSH1 0x0 DUP1 REVERT JUMPDEST POP DUP1 CALLDATALOAD SWAP1 PUSH1 0x20 DUP2 ADD CALLDATALOAD SWAP1 PUSH1 0x40 DUP2 ADD CALLDATALOAD SWAP1 PUSH1 0x60 ADD CALLDATALOAD PUSH2 0x42D JUMP JUMPDEST PUSH2 0x1F4 PUSH1 0x4 DUP1 CALLDATASIZE SUB PUSH1 0x80 DUP2 LT ISZERO PUSH2 0x254 JUMPI PUSH1 0x0 DUP1 REVERT JUMPDEST POP DUP1 CALLDATALOAD SWAP1 PUSH1 0x20 DUP2 ADD CALLDATALOAD SWAP1 PUSH1 0x40 DUP2 ADD CALLDATALOAD SWAP1 PUSH1 0x60 ADD CALLDATALOAD PUSH2 0x48A JUMP JUMPDEST PUSH1 0x0 DUP1 PUSH1 0x0 DUP5 GT DUP1 ISZERO PUSH2 0x280 JUMPI POP PUSH1 0x0 DUP4 GT JUMPDEST PUSH2 0x2BB JUMPI PUSH1 0x40 MLOAD PUSH3 0x461BCD PUSH1 0xE5 SHL DUP2 MSTORE PUSH1 0x4 ADD DUP1 DUP1 PUSH1 0x20 ADD DUP3 DUP2 SUB DUP3 MSTORE PUSH1 0x2D DUP2 MSTORE PUSH1 0x20 ADD DUP1 PUSH2 0x1228 PUSH1 0x2D SWAP2 CODECOPY PUSH1 0x40 ADD SWAP2 POP POP PUSH1 0x40 MLOAD DUP1 SWAP2 SUB SWAP1 REVERT JUMPDEST PUSH1 0x0 DUP1 PUSH2 0x2CA DUP9 DUP9 DUP9 DUP9 PUSH2 0x495 JUMP JUMPDEST SWAP2 POP SWAP2 POP DUP1 PUSH1 0x0 EQ ISZERO PUSH2 0x2E4 JUMPI DUP6 DUP6 SWAP4 POP SWAP4 POP POP POP PUSH2 0x322 JUMP JUMPDEST DUP2 ISZERO PUSH2 0x307 JUMPI PUSH1 0x0 PUSH2 0x2F7 DUP3 DUP9 DUP9 PUSH2 0x580 JUMP JUMPDEST DUP8 DUP4 ADD SWAP6 POP DUP7 SUB SWAP4 POP PUSH2 0x31F SWAP1 POP JUMP JUMPDEST PUSH1 0x0 PUSH2 0x314 DUP3 DUP8 DUP10 PUSH2 0x580 JUMP JUMPDEST DUP8 SUB SWAP5 POP POP DUP5 DUP2 ADD SWAP3 POP JUMPDEST POP POP JUMPDEST SWAP5 POP SWAP5 SWAP3 POP POP POP JUMP JUMPDEST PUSH1 0x0 DUP1 PUSH2 0x35C PUSH32 0x0 DUP9 DUP9 DUP9 DUP9 DUP9 PUSH2 0x670 JUMP JUMPDEST SWAP2 POP SWAP2 POP JUMPDEST SWAP6 POP SWAP6 SWAP4 POP POP POP POP JUMP JUMPDEST PUSH1 0x0 DUP1 GAS SWAP1 POP PUSH2 0x39F PUSH32 0x0 DUP9 DUP9 DUP9 DUP9 DUP9 PUSH2 0x670 JUMP JUMPDEST POP POP PUSH1 0x0 GAS SWAP1 SWAP2 SUB SWAP8 SWAP7 POP POP POP POP POP POP POP JUMP JUMPDEST PUSH32 0x0 DUP2 JUMP JUMPDEST PUSH1 0x0 DUP1 PUSH2 0x405 PUSH32 0x0 DUP7 DUP7 DUP7 PUSH2 0x861 JUMP JUMPDEST SWAP2 POP SWAP2 POP SWAP4 POP SWAP4 SWAP2 POP POP JUMP JUMPDEST PUSH1 0x0 DUP1 PUSH2 0x420 DUP7 DUP7 DUP7 DUP7 PUSH2 0xA03 JUMP JUMPDEST SWAP2 POP SWAP2 POP SWAP5 POP SWAP5 SWAP3 POP POP POP JUMP JUMPDEST PUSH1 0x0 DUP1 PUSH1 0x0 DUP5 GT DUP1 ISZERO PUSH2 0x440 JUMPI POP PUSH1 0x0 DUP4 GT JUMPDEST PUSH2 0x47B JUMPI PUSH1 0x40 MLOAD PUSH3 0x461BCD PUSH1 0xE5 SHL DUP2 MSTORE PUSH1 0x4 ADD DUP1 DUP1 PUSH1 0x20 ADD DUP3 DUP2 SUB DUP3 MSTORE PUSH1 0x2D DUP2 MSTORE PUSH1 0x20 ADD DUP1 PUSH2 0x1228 PUSH1 0x2D SWAP2 CODECOPY PUSH1 0x40 ADD SWAP2 POP POP PUSH1 0x40 MLOAD DUP1 SWAP2 SUB SWAP1 REVERT JUMPDEST PUSH1 0x0 DUP1 PUSH2 0x2CA DUP9 DUP9 DUP9 DUP9 PUSH2 0xA03 JUMP JUMPDEST PUSH1 0x0 DUP1 PUSH2 0x420 DUP7 DUP7 DUP7 DUP7 JUMPDEST PUSH1 0x0 DUP1 DUP6 PUSH2 0x4A4 DUP6 DUP8 DUP7 PUSH2 0xA75 JUMP JUMPDEST LT SWAP2 POP PUSH1 0x0 PUSH2 0x4B9 DUP6 DUP6 PUSH4 0xFFFFFFFF PUSH2 0xB30 AND JUMP JUMPDEST SWAP1 POP PUSH1 0x0 PUSH2 0x50B PUSH2 0x506 PUSH2 0x4D5 DUP5 PUSH2 0x3E8 PUSH4 0xFFFFFFFF PUSH2 0xB30 AND JUMP JUMPDEST DUP7 PUSH2 0x4E0 JUMPI DUP10 PUSH2 0x4E2 JUMP JUMPDEST DUP11 JUMPDEST PUSH2 0x501 PUSH2 0x3E5 DUP10 PUSH2 0x4F3 JUMPI DUP14 PUSH2 0x4F5 JUMP JUMPDEST DUP13 JUMPDEST SWAP1 PUSH4 0xFFFFFFFF PUSH2 0xB30 AND JUMP JUMPDEST PUSH2 0xA75 JUMP JUMPDEST PUSH2 0xB99 JUMP JUMPDEST SWAP1 POP PUSH1 0x0 PUSH2 0x3E5 DUP6 PUSH2 0x52E JUMPI PUSH2 0x529 DUP8 PUSH2 0x3E8 PUSH4 0xFFFFFFFF PUSH2 0xB30 AND JUMP JUMPDEST PUSH2 0x540 JUMP JUMPDEST PUSH2 0x540 DUP9 PUSH2 0x3E8 PUSH4 0xFFFFFFFF PUSH2 0xB30 AND JUMP JUMPDEST DUP2 PUSH2 0x547 JUMPI INVALID JUMPDEST DIV SWAP1 POP DUP1 DUP3 LT ISZERO PUSH2 0x562 JUMPI POP PUSH1 0x0 SWAP4 POP DUP4 SWAP3 POP PUSH2 0x322 SWAP2 POP POP JUMP JUMPDEST PUSH2 0x572 DUP3 DUP3 PUSH4 0xFFFFFFFF PUSH2 0xCE1 AND JUMP JUMPDEST SWAP4 POP POP POP POP SWAP5 POP SWAP5 SWAP3 POP POP POP JUMP JUMPDEST PUSH1 0x0 DUP1 DUP5 GT PUSH2 0x5C0 JUMPI PUSH1 0x40 MLOAD PUSH3 0x461BCD PUSH1 0xE5 SHL DUP2 MSTORE PUSH1 0x4 ADD DUP1 DUP1 PUSH1 0x20 ADD DUP3 DUP2 SUB DUP3 MSTORE PUSH1 0x2B DUP2 MSTORE PUSH1 0x20 ADD DUP1 PUSH2 0x12C9 PUSH1 0x2B SWAP2 CODECOPY PUSH1 0x40 ADD SWAP2 POP POP PUSH1 0x40 MLOAD DUP1 SWAP2 SUB SWAP1 REVERT JUMPDEST PUSH1 0x0 DUP4 GT DUP1 ISZERO PUSH2 0x5D0 JUMPI POP PUSH1 0x0 DUP3 GT JUMPDEST PUSH2 0x60B JUMPI PUSH1 0x40 MLOAD PUSH3 0x461BCD PUSH1 0xE5 SHL DUP2 MSTORE PUSH1 0x4 ADD DUP1 DUP1 PUSH1 0x20 ADD DUP3 DUP2 SUB DUP3 MSTORE PUSH1 0x28 DUP2 MSTORE PUSH1 0x20 ADD DUP1 PUSH2 0x127A PUSH1 0x28 SWAP2 CODECOPY PUSH1 0x40 ADD SWAP2 POP POP PUSH1 0x40 MLOAD DUP1 SWAP2 SUB SWAP1 REVERT JUMPDEST PUSH1 0x0 PUSH2 0x61F DUP6 PUSH2 0x3E5 PUSH4 0xFFFFFFFF PUSH2 0xB30 AND JUMP JUMPDEST SWAP1 POP PUSH1 0x0 PUSH2 0x633 DUP3 DUP6 PUSH4 0xFFFFFFFF PUSH2 0xB30 AND JUMP JUMPDEST SWAP1 POP PUSH1 0x0 PUSH2 0x659 DUP4 PUSH2 0x64D DUP9 PUSH2 0x3E8 PUSH4 0xFFFFFFFF PUSH2 0xB30 AND JUMP JUMPDEST SWAP1 PUSH4 0xFFFFFFFF PUSH2 0xD31 AND JUMP JUMPDEST SWAP1 POP DUP1 DUP3 DUP2 PUSH2 0x664 JUMPI INVALID JUMPDEST DIV SWAP8 SWAP7 POP POP POP POP POP POP POP JUMP JUMPDEST PUSH1 0x0 DUP1 PUSH1 0x0 DUP1 PUSH1 0x1 PUSH1 0x1 PUSH1 0xA0 SHL SUB AND DUP10 PUSH1 0x1 PUSH1 0x1 PUSH1 0xA0 SHL SUB AND PUSH4 0x17E7E58 PUSH1 0x40 MLOAD DUP2 PUSH4 0xFFFFFFFF AND PUSH1 0xE0 SHL DUP2 MSTORE PUSH1 0x4 ADD PUSH1 0x20 PUSH1 0x40 MLOAD DUP1 DUP4 SUB DUP2 DUP7 DUP1 EXTCODESIZE ISZERO DUP1 ISZERO PUSH2 0x6B8 JUMPI PUSH1 0x0 DUP1 REVERT JUMPDEST POP GAS STATICCALL ISZERO DUP1 ISZERO PUSH2 0x6CC JUMPI RETURNDATASIZE PUSH1 0x0 DUP1 RETURNDATACOPY RETURNDATASIZE PUSH1 0x0 REVERT JUMPDEST POP POP POP POP PUSH1 0x40 MLOAD RETURNDATASIZE PUSH1 0x20 DUP2 LT ISZERO PUSH2 0x6E2 JUMPI PUSH1 0x0 DUP1 REVERT JUMPDEST POP MLOAD PUSH1 0x1 PUSH1 0x1 PUSH1 0xA0 SHL SUB AND EQ ISZERO SWAP1 POP PUSH1 0x0 PUSH2 0x6FE DUP11 DUP11 DUP11 PUSH2 0xD80 JUMP JUMPDEST SWAP1 POP PUSH1 0x0 DUP3 PUSH2 0x70E JUMPI PUSH1 0x0 PUSH2 0x774 JUMP JUMPDEST DUP2 PUSH1 0x1 PUSH1 0x1 PUSH1 0xA0 SHL SUB AND PUSH4 0x7464FC3D PUSH1 0x40 MLOAD DUP2 PUSH4 0xFFFFFFFF AND PUSH1 0xE0 SHL DUP2 MSTORE PUSH1 0x4 ADD PUSH1 0x20 PUSH1 0x40 MLOAD DUP1 DUP4 SUB DUP2 DUP7 DUP1 EXTCODESIZE ISZERO DUP1 ISZERO PUSH2 0x747 JUMPI PUSH1 0x0 DUP1 REVERT JUMPDEST POP GAS STATICCALL ISZERO DUP1 ISZERO PUSH2 0x75B JUMPI RETURNDATASIZE PUSH1 0x0 DUP1 RETURNDATACOPY RETURNDATASIZE PUSH1 0x0 REVERT JUMPDEST POP POP POP POP PUSH1 0x40 MLOAD RETURNDATASIZE PUSH1 0x20 DUP2 LT ISZERO PUSH2 0x771 JUMPI PUSH1 0x0 DUP1 REVERT JUMPDEST POP MLOAD JUMPDEST SWAP1 POP PUSH1 0x0 DUP3 PUSH1 0x1 PUSH1 0x1 PUSH1 0xA0 SHL SUB AND PUSH4 0x18160DDD PUSH1 0x40 MLOAD DUP2 PUSH4 0xFFFFFFFF AND PUSH1 0xE0 SHL DUP2 MSTORE PUSH1 0x4 ADD PUSH1 0x20 PUSH1 0x40 MLOAD DUP1 DUP4 SUB DUP2 DUP7 DUP1 EXTCODESIZE ISZERO DUP1 ISZERO PUSH2 0x7B1 JUMPI PUSH1 0x0 DUP1 REVERT JUMPDEST POP GAS STATICCALL ISZERO DUP1 ISZERO PUSH2 0x7C5 JUMPI RETURNDATASIZE PUSH1 0x0 DUP1 RETURNDATACOPY RETURNDATASIZE PUSH1 0x0 REVERT JUMPDEST POP POP POP POP PUSH1 0x40 MLOAD RETURNDATASIZE PUSH1 0x20 DUP2 LT ISZERO PUSH2 0x7DB JUMPI PUSH1 0x0 DUP1 REVERT JUMPDEST POP MLOAD SWAP1 POP DUP7 DUP2 LT DUP1 ISZERO SWAP1 PUSH2 0x7EF JUMPI POP PUSH1 0x0 DUP8 GT JUMPDEST PUSH2 0x82A JUMPI PUSH1 0x40 MLOAD PUSH3 0x461BCD PUSH1 0xE5 SHL DUP2 MSTORE PUSH1 0x4 ADD DUP1 DUP1 PUSH1 0x20 ADD DUP3 DUP2 SUB DUP3 MSTORE PUSH1 0x27 DUP2 MSTORE PUSH1 0x20 ADD DUP1 PUSH2 0x12A2 PUSH1 0x27 SWAP2 CODECOPY PUSH1 0x40 ADD SWAP2 POP POP PUSH1 0x40 MLOAD DUP1 SWAP2 SUB SWAP1 REVERT JUMPDEST PUSH1 0x0 DUP1 PUSH2 0x83A DUP15 DUP15 DUP15 DUP15 DUP15 PUSH2 0xE40 JUMP JUMPDEST SWAP2 POP SWAP2 POP PUSH2 0x84C DUP3 DUP3 DUP6 DUP13 DUP11 DUP10 PUSH2 0xF05 JUMP JUMPDEST SWAP8 POP SWAP8 POP POP POP POP POP POP POP SWAP7 POP SWAP7 SWAP5 POP POP POP POP POP JUMP JUMPDEST PUSH1 0x0 DUP1 PUSH1 0x0 DUP1 PUSH2 0x872 DUP9 DUP9 DUP9 PUSH2 0xFDE JUMP JUMPDEST SWAP2 POP SWAP2 POP PUSH1 0x0 PUSH2 0x883 DUP10 DUP10 DUP10 PUSH2 0xD80 JUMP JUMPDEST SWAP1 POP PUSH1 0x0 DUP1 PUSH1 0x1 PUSH1 0x1 PUSH1 0xA0 SHL SUB AND DUP11 PUSH1 0x1 PUSH1 0x1 PUSH1 0xA0 SHL SUB AND PUSH4 0x17E7E58 PUSH1 0x40 MLOAD DUP2 PUSH4 0xFFFFFFFF AND PUSH1 0xE0 SHL DUP2 MSTORE PUSH1 0x4 ADD PUSH1 0x20 PUSH1 0x40 MLOAD DUP1 DUP4 SUB DUP2 DUP7 DUP1 EXTCODESIZE ISZERO DUP1 ISZERO PUSH2 0x8CA JUMPI PUSH1 0x0 DUP1 REVERT JUMPDEST POP GAS STATICCALL ISZERO DUP1 ISZERO PUSH2 0x8DE JUMPI RETURNDATASIZE PUSH1 0x0 DUP1 RETURNDATACOPY RETURNDATASIZE PUSH1 0x0 REVERT JUMPDEST POP POP POP POP PUSH1 0x40 MLOAD RETURNDATASIZE PUSH1 0x20 DUP2 LT ISZERO PUSH2 0x8F4 JUMPI PUSH1 0x0 DUP1 REVERT JUMPDEST POP MLOAD PUSH1 0x1 PUSH1 0x1 PUSH1 0xA0 SHL SUB AND EQ ISZERO SWAP1 POP PUSH1 0x0 DUP2 PUSH2 0x911 JUMPI PUSH1 0x0 PUSH2 0x977 JUMP JUMPDEST DUP3 PUSH1 0x1 PUSH1 0x1 PUSH1 0xA0 SHL SUB AND PUSH4 0x7464FC3D PUSH1 0x40 MLOAD DUP2 PUSH4 0xFFFFFFFF AND PUSH1 0xE0 SHL DUP2 MSTORE PUSH1 0x4 ADD PUSH1 0x20 PUSH1 0x40 MLOAD DUP1 DUP4 SUB DUP2 DUP7 DUP1 EXTCODESIZE ISZERO DUP1 ISZERO PUSH2 0x94A JUMPI PUSH1 0x0 DUP1 REVERT JUMPDEST POP GAS STATICCALL ISZERO DUP1 ISZERO PUSH2 0x95E JUMPI RETURNDATASIZE PUSH1 0x0 DUP1 RETURNDATACOPY RETURNDATASIZE PUSH1 0x0 REVERT JUMPDEST POP POP POP POP PUSH1 0x40 MLOAD RETURNDATASIZE PUSH1 0x20 DUP2 LT ISZERO PUSH2 0x974 JUMPI PUSH1 0x0 DUP1 REVERT JUMPDEST POP MLOAD JUMPDEST SWAP1 POP PUSH1 0x0 DUP4 PUSH1 0x1 PUSH1 0x1 PUSH1 0xA0 SHL SUB AND PUSH4 0x18160DDD PUSH1 0x40 MLOAD DUP2 PUSH4 0xFFFFFFFF AND PUSH1 0xE0 SHL DUP2 MSTORE PUSH1 0x4 ADD PUSH1 0x20 PUSH1 0x40 MLOAD DUP1 DUP4 SUB DUP2 DUP7 DUP1 EXTCODESIZE ISZERO DUP1 ISZERO PUSH2 0x9B4 JUMPI PUSH1 0x0 DUP1 REVERT JUMPDEST POP GAS STATICCALL ISZERO DUP1 ISZERO PUSH2 0x9C8 JUMPI RETURNDATASIZE PUSH1 0x0 DUP1 RETURNDATACOPY RETURNDATASIZE PUSH1 0x0 REVERT JUMPDEST POP POP POP POP PUSH1 0x40 MLOAD RETURNDATASIZE PUSH1 0x20 DUP2 LT ISZERO PUSH2 0x9DE JUMPI PUSH1 0x0 DUP1 REVERT JUMPDEST POP MLOAD SWAP1 POP PUSH2 0x9F0 DUP7 DUP7 DUP4 DUP13 DUP8 DUP8 PUSH2 0xF05 JUMP JUMPDEST SWAP8 POP SWAP8 POP POP POP POP POP POP POP SWAP5 POP SWAP5 SWAP3 POP POP POP JUMP JUMPDEST PUSH1 0x0 DUP1 DUP6 PUSH2 0xA12 DUP6 DUP8 DUP7 PUSH2 0xA75 JUMP JUMPDEST LT SWAP2 POP PUSH1 0x0 PUSH2 0xA27 DUP6 DUP6 PUSH4 0xFFFFFFFF PUSH2 0xB30 AND JUMP JUMPDEST SWAP1 POP PUSH1 0x0 PUSH2 0x50B PUSH2 0x506 PUSH2 0xA44 DUP5 PUSH3 0xF4240 PUSH4 0xFFFFFFFF PUSH2 0xB30 AND JUMP JUMPDEST DUP7 PUSH2 0xA4F JUMPI DUP10 PUSH2 0xA51 JUMP JUMPDEST DUP11 JUMPDEST PUSH2 0x501 PUSH2 0x3E5 PUSH2 0x4F5 PUSH2 0x3E5 DUP12 PUSH2 0xA68 JUMPI DUP16 PUSH2 0x4F5 JUMP JUMPDEST DUP15 SWAP1 PUSH4 0xFFFFFFFF PUSH2 0xB30 AND JUMP JUMPDEST PUSH1 0x0 DUP1 PUSH1 0x0 PUSH2 0xA84 DUP7 DUP7 PUSH2 0x10AC JUMP JUMPDEST SWAP2 POP SWAP2 POP PUSH1 0x0 DUP5 DUP1 PUSH2 0xA92 JUMPI INVALID JUMPDEST DUP7 DUP9 MULMOD SWAP1 POP DUP3 DUP2 GT ISZERO PUSH2 0xAA6 JUMPI PUSH1 0x1 DUP3 SUB SWAP2 POP JUMPDEST SWAP2 DUP3 SWAP1 SUB SWAP2 DUP2 PUSH2 0xAC4 JUMPI DUP5 DUP4 DUP2 PUSH2 0xAB9 JUMPI INVALID JUMPDEST DIV SWAP4 POP POP POP POP PUSH2 0xB29 JUMP JUMPDEST DUP5 DUP3 LT PUSH2 0xB18 JUMPI PUSH1 0x40 DUP1 MLOAD PUSH3 0x461BCD PUSH1 0xE5 SHL DUP2 MSTORE PUSH1 0x20 PUSH1 0x4 DUP3 ADD MSTORE PUSH1 0x1A PUSH1 0x24 DUP3 ADD MSTORE PUSH32 0x46756C6C4D6174683A2046554C4C4449565F4F564552464C4F57000000000000 PUSH1 0x44 DUP3 ADD MSTORE SWAP1 MLOAD SWAP1 DUP2 SWAP1 SUB PUSH1 0x64 ADD SWAP1 REVERT JUMPDEST PUSH2 0xB23 DUP4 DUP4 DUP8 PUSH2 0x10D9 JUMP JUMPDEST SWAP4 POP POP POP POP JUMPDEST SWAP4 SWAP3 POP POP POP JUMP JUMPDEST PUSH1 0x0 DUP2 ISZERO DUP1 PUSH2 0xB4B JUMPI POP POP DUP1 DUP3 MUL DUP3 DUP3 DUP3 DUP2 PUSH2 0xB48 JUMPI INVALID JUMPDEST DIV EQ JUMPDEST PUSH2 0xB93 JUMPI PUSH1 0x40 DUP1 MLOAD PUSH3 0x461BCD PUSH1 0xE5 SHL DUP2 MSTORE PUSH1 0x20 PUSH1 0x4 DUP3 ADD MSTORE PUSH1 0x14 PUSH1 0x24 DUP3 ADD MSTORE PUSH20 0x64732D6D6174682D6D756C2D6F766572666C6F77 PUSH1 0x60 SHL PUSH1 0x44 DUP3 ADD MSTORE SWAP1 MLOAD SWAP1 DUP2 SWAP1 SUB PUSH1 0x64 ADD SWAP1 REVERT JUMPDEST SWAP3 SWAP2 POP POP JUMP JUMPDEST PUSH1 0x0 DUP2 PUSH2 0xBA8 JUMPI POP PUSH1 0x0 PUSH2 0xCDC JUMP JUMPDEST DUP2 PUSH1 0x1 PUSH1 0x1 PUSH1 0x80 SHL DUP3 LT PUSH2 0xBC1 JUMPI PUSH1 0x80 SWAP2 SWAP1 SWAP2 SHR SWAP1 PUSH1 0x40 SHL JUMPDEST PUSH9 0x10000000000000000 DUP3 LT PUSH2 0xBDC JUMPI PUSH1 0x40 SWAP2 SWAP1 SWAP2 SHR SWAP1 PUSH1 0x20 SHL JUMPDEST PUSH5 0x100000000 DUP3 LT PUSH2 0xBF3 JUMPI PUSH1 0x20 SWAP2 SWAP1 SWAP2 SHR SWAP1 PUSH1 0x10 SHL JUMPDEST PUSH3 0x10000 DUP3 LT PUSH2 0xC08 JUMPI PUSH1 0x10 SWAP2 SWAP1 SWAP2 SHR SWAP1 PUSH1 0x8 SHL JUMPDEST PUSH2 0x100 DUP3 LT PUSH2 0xC1C JUMPI PUSH1 0x8 SWAP2 SWAP1 SWAP2 SHR SWAP1 PUSH1 0x4 SHL JUMPDEST PUSH1 0x10 DUP3 LT PUSH2 0xC2F JUMPI PUSH1 0x4 SWAP2 SWAP1 SWAP2 SHR SWAP1 PUSH1 0x2 SHL JUMPDEST PUSH1 0x8 DUP3 LT PUSH2 0xC3B JUMPI PUSH1 0x1 SHL JUMPDEST PUSH1 0x1 DUP2 DUP6 DUP2 PUSH2 0xC46 JUMPI INVALID JUMPDEST DIV DUP3 ADD SWAP1 SHR SWAP1 POP PUSH1 0x1 DUP2 DUP6 DUP2 PUSH2 0xC58 JUMPI INVALID JUMPDEST DIV DUP3 ADD SWAP1 SHR SWAP1 POP PUSH1 0x1 DUP2 DUP6 DUP2 PUSH2 0xC6A JUMPI INVALID JUMPDEST DIV DUP3 ADD SWAP1 SHR SWAP1 POP PUSH1 0x1 DUP2 DUP6 DUP2 PUSH2 0xC7C JUMPI INVALID JUMPDEST DIV DUP3 ADD SWAP1 SHR SWAP1 POP PUSH1 0x1 DUP2 DUP6 DUP2 PUSH2 0xC8E JUMPI INVALID JUMPDEST DIV DUP3 ADD SWAP1 SHR SWAP1 POP PUSH1 0x1 DUP2 DUP6 DUP2 PUSH2 0xCA0 JUMPI INVALID JUMPDEST DIV DUP3 ADD SWAP1 SHR SWAP1 POP PUSH1 0x1 DUP2 DUP6 DUP2 PUSH2 0xCB2 JUMPI INVALID JUMPDEST DIV DUP3 ADD SWAP1 SHR SWAP1 POP PUSH1 0x0 DUP2 DUP6 DUP2 PUSH2 0xCC4 JUMPI INVALID JUMPDEST DIV SWAP1 POP DUP1 DUP3 LT PUSH2 0xCD4 JUMPI DUP1 PUSH2 0xCD6 JUMP JUMPDEST DUP2 JUMPDEST SWAP4 POP POP POP POP JUMPDEST SWAP2 SWAP1 POP JUMP JUMPDEST DUP1 DUP3 SUB DUP3 DUP2 GT ISZERO PUSH2 0xB93 JUMPI PUSH1 0x40 DUP1 MLOAD PUSH3 0x461BCD PUSH1 0xE5 SHL DUP2 MSTORE PUSH1 0x20 PUSH1 0x4 DUP3 ADD MSTORE PUSH1 0x15 PUSH1 0x24 DUP3 ADD MSTORE PUSH21 0x64732D6D6174682D7375622D756E646572666C6F77 PUSH1 0x58 SHL PUSH1 0x44 DUP3 ADD MSTORE SWAP1 MLOAD SWAP1 DUP2 SWAP1 SUB PUSH1 0x64 ADD SWAP1 REVERT JUMPDEST DUP1 DUP3 ADD DUP3 DUP2 LT ISZERO PUSH2 0xB93 JUMPI PUSH1 0x40 DUP1 MLOAD PUSH3 0x461BCD PUSH1 0xE5 SHL DUP2 MSTORE PUSH1 0x20 PUSH1 0x4 DUP3 ADD MSTORE PUSH1 0x14 PUSH1 0x24 DUP3 ADD MSTORE PUSH20 0x64732D6D6174682D6164642D6F766572666C6F77 PUSH1 0x60 SHL PUSH1 0x44 DUP3 ADD MSTORE SWAP1 MLOAD SWAP1 DUP2 SWAP1 SUB PUSH1 0x64 ADD SWAP1 REVERT JUMPDEST PUSH1 0x0 DUP1 PUSH1 0x0 PUSH2 0xD8F DUP6 DUP6 PUSH2 0x1149 JUMP JUMPDEST PUSH1 0x40 DUP1 MLOAD PUSH12 0xFFFFFFFFFFFFFFFFFFFFFFFF NOT PUSH1 0x60 SWAP5 DUP6 SHL DUP2 AND PUSH1 0x20 DUP1 DUP5 ADD SWAP2 SWAP1 SWAP2 MSTORE SWAP4 DUP6 SHL DUP2 AND PUSH1 0x34 DUP4 ADD MSTORE DUP3 MLOAD PUSH1 0x28 DUP2 DUP5 SUB ADD DUP2 MSTORE PUSH1 0x48 DUP4 ADD DUP5 MSTORE DUP1 MLOAD SWAP1 DUP6 ADD KECCAK256 PUSH1 0x1 PUSH1 0x1 PUSH1 0xF8 SHL SUB NOT PUSH1 0x68 DUP5 ADD MSTORE SWAP11 SWAP1 SWAP5 SHL SWAP1 SWAP4 AND PUSH1 0x69 DUP5 ADD MSTORE PUSH1 0x7D DUP4 ADD SWAP9 SWAP1 SWAP9 MSTORE PUSH32 0x96E8AC4277198FF8B6F785478AA9A39F403CB768DD02CBEE326C3E7DA348845F PUSH1 0x9D DUP1 DUP5 ADD SWAP2 SWAP1 SWAP2 MSTORE DUP9 MLOAD DUP1 DUP5 SUB SWAP1 SWAP2 ADD DUP2 MSTORE PUSH1 0xBD SWAP1 SWAP3 ADD SWAP1 SWAP8 MSTORE DUP1 MLOAD SWAP7 ADD SWAP6 SWAP1 SWAP6 KECCAK256 SWAP6 SWAP5 POP POP POP POP POP JUMP JUMPDEST PUSH1 0x0 DUP1 PUSH2 0xE4E DUP8 DUP8 DUP8 PUSH2 0xFDE JUMP JUMPDEST SWAP1 SWAP3 POP SWAP1 POP DUP2 ISZERO DUP1 ISZERO SWAP1 PUSH2 0xE62 JUMPI POP PUSH1 0x0 DUP2 GT JUMPDEST PUSH2 0xE9D JUMPI PUSH1 0x40 MLOAD PUSH3 0x461BCD PUSH1 0xE5 SHL DUP2 MSTORE PUSH1 0x4 ADD DUP1 DUP1 PUSH1 0x20 ADD DUP3 DUP2 SUB DUP3 MSTORE PUSH1 0x2D DUP2 MSTORE PUSH1 0x20 ADD DUP1 PUSH2 0x1228 PUSH1 0x2D SWAP2 CODECOPY PUSH1 0x40 ADD SWAP2 POP POP PUSH1 0x40 MLOAD DUP1 SWAP2 SUB SWAP1 REVERT JUMPDEST PUSH1 0x0 DUP1 PUSH2 0xEAC DUP7 DUP7 DUP7 DUP7 PUSH2 0x495 JUMP JUMPDEST SWAP2 POP SWAP2 POP DUP1 PUSH1 0x0 EQ ISZERO PUSH2 0xEC1 JUMPI POP PUSH2 0x361 SWAP1 POP JUMP JUMPDEST DUP2 ISZERO PUSH2 0xEE2 JUMPI PUSH1 0x0 PUSH2 0xED4 DUP3 DUP7 DUP7 PUSH2 0x580 JUMP JUMPDEST SWAP5 DUP3 ADD SWAP5 SWAP1 SWAP4 SUB SWAP3 POP PUSH2 0xEF9 JUMP JUMPDEST PUSH1 0x0 PUSH2 0xEEF DUP3 DUP6 DUP8 PUSH2 0x580 JUMP JUMPDEST SWAP1 SWAP5 SUB SWAP4 POP SWAP2 DUP3 ADD SWAP2 JUMPDEST POP POP SWAP6 POP SWAP6 SWAP4 POP POP POP POP JUMP JUMPDEST PUSH1 0x0 DUP1 DUP4 DUP1 ISZERO PUSH2 0xF15 JUMPI POP PUSH1 0x0 DUP4 GT JUMPDEST ISZERO PUSH2 0xF9D JUMPI PUSH1 0x0 PUSH2 0xF2F PUSH2 0x506 DUP11 DUP11 PUSH4 0xFFFFFFFF PUSH2 0xB30 AND JUMP JUMPDEST SWAP1 POP PUSH1 0x0 PUSH2 0xF3C DUP6 PUSH2 0xB99 JUMP JUMPDEST SWAP1 POP DUP1 DUP3 GT ISZERO PUSH2 0xF9A JUMPI DUP8 PUSH1 0x0 PUSH2 0xF59 DUP5 DUP5 PUSH4 0xFFFFFFFF PUSH2 0xCE1 AND JUMP JUMPDEST SWAP1 POP PUSH1 0x0 PUSH2 0xF72 DUP5 PUSH2 0x64D DUP8 PUSH1 0x5 PUSH4 0xFFFFFFFF PUSH2 0xB30 AND JUMP JUMPDEST SWAP1 POP PUSH1 0x0 PUSH2 0xF81 DUP5 DUP5 DUP5 PUSH2 0xA75 JUMP JUMPDEST SWAP1 POP PUSH2 0xF93 DUP13 DUP3 PUSH4 0xFFFFFFFF PUSH2 0xD31 AND JUMP JUMPDEST SWAP12 POP POP POP POP POP JUMPDEST POP POP JUMPDEST DUP6 PUSH2 0xFAE DUP10 DUP8 PUSH4 0xFFFFFFFF PUSH2 0xB30 AND JUMP JUMPDEST DUP2 PUSH2 0xFB5 JUMPI INVALID JUMPDEST DIV DUP7 PUSH2 0xFC7 DUP10 DUP9 PUSH4 0xFFFFFFFF PUSH2 0xB30 AND JUMP JUMPDEST DUP2 PUSH2 0xFCE JUMPI INVALID JUMPDEST DIV SWAP2 POP SWAP2 POP SWAP7 POP SWAP7 SWAP5 POP POP POP POP POP JUMP JUMPDEST PUSH1 0x0 DUP1 PUSH1 0x0 PUSH2 0xFED DUP6 DUP6 PUSH2 0x1149 JUMP JUMPDEST POP SWAP1 POP PUSH1 0x0 DUP1 PUSH2 0xFFE DUP9 DUP9 DUP9 PUSH2 0xD80 JUMP JUMPDEST PUSH1 0x1 PUSH1 0x1 PUSH1 0xA0 SHL SUB AND PUSH4 0x902F1AC PUSH1 0x40 MLOAD DUP2 PUSH4 0xFFFFFFFF AND PUSH1 0xE0 SHL DUP2 MSTORE PUSH1 0x4 ADD PUSH1 0x60 PUSH1 0x40 MLOAD DUP1 DUP4 SUB DUP2 DUP7 DUP1 EXTCODESIZE ISZERO DUP1 ISZERO PUSH2 0x1036 JUMPI PUSH1 0x0 DUP1 REVERT JUMPDEST POP GAS STATICCALL ISZERO DUP1 ISZERO PUSH2 0x104A JUMPI RETURNDATASIZE PUSH1 0x0 DUP1 RETURNDATACOPY RETURNDATASIZE PUSH1 0x0 REVERT JUMPDEST POP POP POP POP PUSH1 0x40 MLOAD RETURNDATASIZE PUSH1 0x60 DUP2 LT ISZERO PUSH2 0x1060 JUMPI PUSH1 0x0 DUP1 REVERT JUMPDEST POP DUP1 MLOAD PUSH1 0x20 SWAP1 SWAP2 ADD MLOAD PUSH14 0xFFFFFFFFFFFFFFFFFFFFFFFFFFFF SWAP2 DUP3 AND SWAP4 POP AND SWAP1 POP PUSH1 0x1 PUSH1 0x1 PUSH1 0xA0 SHL SUB DUP8 DUP2 AND SWAP1 DUP5 AND EQ PUSH2 0x109A JUMPI DUP1 DUP3 PUSH2 0x109D JUMP JUMPDEST DUP2 DUP2 JUMPDEST SWAP1 SWAP10 SWAP1 SWAP9 POP SWAP7 POP POP POP POP POP POP POP JUMP JUMPDEST PUSH1 0x0 DUP1 DUP1 PUSH1 0x0 NOT DUP5 DUP7 MULMOD SWAP1 POP DUP4 DUP6 MUL SWAP3 POP DUP3 DUP2 SUB SWAP2 POP DUP3 DUP2 LT ISZERO PUSH2 0x10D1 JUMPI PUSH1 0x1 DUP3 SUB SWAP2 POP JUMPDEST POP SWAP3 POP SWAP3 SWAP1 POP JUMP JUMPDEST PUSH1 0x0 DUP2 DUP2 SUB DUP3 AND DUP1 DUP4 DUP2 PUSH2 0x10E9 JUMPI INVALID JUMPDEST DIV SWAP3 POP DUP1 DUP6 DUP2 PUSH2 0x10F5 JUMPI INVALID JUMPDEST DIV SWAP5 POP DUP1 DUP2 PUSH1 0x0 SUB DUP2 PUSH2 0x1104 JUMPI INVALID JUMPDEST PUSH1 0x2 DUP6 DUP2 SUB DUP1 DUP8 MUL DUP3 SUB MUL DUP1 DUP8 MUL DUP3 SUB MUL DUP1 DUP8 MUL DUP3 SUB MUL DUP1 DUP8 MUL DUP3 SUB MUL DUP1 DUP8 MUL DUP3 SUB MUL DUP1 DUP8 MUL DUP3 SUB MUL SWAP6 DUP7 MUL SWAP1 SUB SWAP1 SWAP5 MUL SWAP4 DIV PUSH1 0x1 ADD SWAP4 SWAP1 SWAP4 MUL SWAP4 SWAP1 SWAP4 ADD MUL SWAP3 SWAP2 POP POP JUMP JUMPDEST PUSH1 0x0 DUP1 DUP3 PUSH1 0x1 PUSH1 0x1 PUSH1 0xA0 SHL SUB AND DUP5 PUSH1 0x1 PUSH1 0x1 PUSH1 0xA0 SHL SUB AND EQ ISZERO PUSH2 0x119D JUMPI PUSH1 0x40 MLOAD PUSH3 0x461BCD PUSH1 0xE5 SHL DUP2 MSTORE PUSH1 0x4 ADD DUP1 DUP1 PUSH1 0x20 ADD DUP3 DUP2 SUB DUP3 MSTORE PUSH1 0x25 DUP2 MSTORE PUSH1 0x20 ADD DUP1 PUSH2 0x1255 PUSH1 0x25 SWAP2 CODECOPY PUSH1 0x40 ADD SWAP2 POP POP PUSH1 0x40 MLOAD DUP1 SWAP2 SUB SWAP1 REVERT JUMPDEST DUP3 PUSH1 0x1 PUSH1 0x1 PUSH1 0xA0 SHL SUB AND DUP5 PUSH1 0x1 PUSH1 0x1 PUSH1 0xA0 SHL SUB AND LT PUSH2 0x11BD JUMPI DUP3 DUP5 PUSH2 0x11C0 JUMP JUMPDEST DUP4 DUP4 JUMPDEST SWAP1 SWAP3 POP SWAP1 POP PUSH1 0x1 PUSH1 0x1 PUSH1 0xA0 SHL SUB DUP3 AND PUSH2 0x1220 JUMPI PUSH1 0x40 DUP1 MLOAD PUSH3 0x461BCD PUSH1 0xE5 SHL DUP2 MSTORE PUSH1 0x20 PUSH1 0x4 DUP3 ADD MSTORE PUSH1 0x1E PUSH1 0x24 DUP3 ADD MSTORE PUSH32 0x556E697377617056324C6962726172793A205A45524F5F414444524553530000 PUSH1 0x44 DUP3 ADD MSTORE SWAP1 MLOAD SWAP1 DUP2 SWAP1 SUB PUSH1 0x64 ADD SWAP1 REVERT JUMPDEST SWAP3 POP SWAP3 SWAP1 POP JUMP INVALID SSTORE PUSH15 0x697377617056324172626974726167 PUSH6 0x4C6962726172 PUSH26 0x3A205A45524F5F504149525F5245534552564553556E69737761 PUSH17 0x56324C6962726172793A204944454E5449 NUMBER COINBASE 0x4C 0x5F COINBASE DIFFICULTY DIFFICULTY MSTORE GASLIMIT MSTORE8 MSTORE8 GASLIMIT MSTORE8 SSTORE PUSH15 0x697377617056324C6962726172793A KECCAK256 0x49 0x4E MSTORE8 SSTORE CHAINID CHAINID 0x49 NUMBER 0x49 GASLIMIT 0x4E SLOAD 0x5F 0x4C 0x49 MLOAD SSTORE 0x49 DIFFICULTY 0x49 SLOAD MSIZE NUMBER PUSH16 0x6D707574654C69717569646974795661 PUSH13 0x75653A204C4951554944495459 0x5F COINBASE 0x4D 0x4F SSTORE 0x4E SLOAD SSTORE PUSH15 0x697377617056324C6962726172793A KECCAK256 0x49 0x4E MSTORE8 SSTORE CHAINID CHAINID 0x49 NUMBER 0x49 GASLIMIT 0x4E SLOAD 0x5F 0x49 0x4E POP SSTORE SLOAD 0x5F COINBASE 0x4D 0x4F SSTORE 0x4E SLOAD LOG2 PUSH5 0x6970667358 0x22 SLT KECCAK256 0xEB 0x26 0xC3 PUSH28 0x1F5D1F396A901795C24EB6DF79C2A447FC53399E565E04896AE15ED2 PUSH5 0x736F6C6343 STOP MOD MOD STOP CALLER "
		},
		"gasEstimates": {
			"creation": {
				"codeDepositCost": "981000",
				"executionCost": "infinite",
				"totalCost": "infinite"
			},
			"external": {
				"computeProfitMaximizingTrade(uint256,uint256,uint256,uint256)": "infinite",
				"computeProfitMaximizingTrade2(uint256,uint256,uint256,uint256)": "infinite",
				"factory()": "infinite",
				"getGasCostOfGetLiquidityValueAfterArbitrageToPrice(address,address,uint256,uint256,uint256)": "infinite",
				"getLiquidityValue(address,address,uint256)": "infinite",
				"getLiquidityValueAfterArbitrageToPrice(address,address,uint256,uint256,uint256)": "infinite",
				"getReservesAfterArbitrage(uint256,uint256,uint256,uint256)": "infinite",
				"getReservesAfterArbitrage2(uint256,uint256,uint256,uint256)": "infinite"
			}
		},
		"methodIdentifiers": {
			"computeProfitMaximizingTrade(uint256,uint256,uint256,uint256)": "fa653154",
			"computeProfitMaximizingTrade2(uint256,uint256,uint256,uint256)": "f2800caf",
			"factory()": "c45a0155",
			"getGasCostOfGetLiquidityValueAfterArbitrageToPrice(address,address,uint256,uint256,uint256)": "80caa353",
			"getLiquidityValue(address,address,uint256)": "d9b7a6e7",
			"getLiquidityValueAfterArbitrageToPrice(address,address,uint256,uint256,uint256)": "69a2fcbd",
			"getReservesAfterArbitrage(uint256,uint256,uint256,uint256)": "52948801",
			"getReservesAfterArbitrage2(uint256,uint256,uint256,uint256)": "f416f939"
		}
	},
	"abi": [
		{
			"inputs": [
				{
					"internalType": "address",
					"name": "factory_",
					"type": "address"
				}
			],
			"stateMutability": "nonpayable",
			"type": "constructor"
		},
		{
			"inputs": [
				{
					"internalType": "uint256",
					"name": "truePriceTokenA",
					"type": "uint256"
				},
				{
					"internalType": "uint256",
					"name": "truePriceTokenB",
					"type": "uint256"
				},
				{
					"internalType": "uint256",
					"name": "reserveA",
					"type": "uint256"
				},
				{
					"internalType": "uint256",
					"name": "reserveB",
					"type": "uint256"
				}
			],
			"name": "computeProfitMaximizingTrade",
			"outputs": [
				{
					"internalType": "bool",
					"name": "aToB",
					"type": "bool"
				},
				{
					"internalType": "uint256",
					"name": "amountIn",
					"type": "uint256"
				}
			],
			"stateMutability": "pure",
			"type": "function"
		},
		{
			"inputs": [
				{
					"internalType": "uint256",
					"name": "truePriceTokenA",
					"type": "uint256"
				},
				{
					"internalType": "uint256",
					"name": "truePriceTokenB",
					"type": "uint256"
				},
				{
					"internalType": "uint256",
					"name": "reserveA",
					"type": "uint256"
				},
				{
					"internalType": "uint256",
					"name": "reserveB",
					"type": "uint256"
				}
			],
			"name": "computeProfitMaximizingTrade2",
			"outputs": [
				{
					"internalType": "bool",
					"name": "aToB",
					"type": "bool"
				},
				{
					"internalType": "uint256",
					"name": "amountIn",
					"type": "uint256"
				}
			],
			"stateMutability": "pure",
			"type": "function"
		},
		{
			"inputs": [],
			"name": "factory",
			"outputs": [
				{
					"internalType": "address",
					"name": "",
					"type": "address"
				}
			],
			"stateMutability": "view",
			"type": "function"
		},
		{
			"inputs": [
				{
					"internalType": "address",
					"name": "tokenA",
					"type": "address"
				},
				{
					"internalType": "address",
					"name": "tokenB",
					"type": "address"
				},
				{
					"internalType": "uint256",
					"name": "truePriceTokenA",
					"type": "uint256"
				},
				{
					"internalType": "uint256",
					"name": "truePriceTokenB",
					"type": "uint256"
				},
				{
					"internalType": "uint256",
					"name": "liquidityAmount",
					"type": "uint256"
				}
			],
			"name": "getGasCostOfGetLiquidityValueAfterArbitrageToPrice",
			"outputs": [
				{
					"internalType": "uint256",
					"name": "",
					"type": "uint256"
				}
			],
			"stateMutability": "view",
			"type": "function"
		},
		{
			"inputs": [
				{
					"internalType": "address",
					"name": "tokenA",
					"type": "address"
				},
				{
					"internalType": "address",
					"name": "tokenB",
					"type": "address"
				},
				{
					"internalType": "uint256",
					"name": "liquidityAmount",
					"type": "uint256"
				}
			],
			"name": "getLiquidityValue",
			"outputs": [
				{
					"internalType": "uint256",
					"name": "tokenAAmount",
					"type": "uint256"
				},
				{
					"internalType": "uint256",
					"name": "tokenBAmount",
					"type": "uint256"
				}
			],
			"stateMutability": "view",
			"type": "function"
		},
		{
			"inputs": [
				{
					"internalType": "address",
					"name": "tokenA",
					"type": "address"
				},
				{
					"internalType": "address",
					"name": "tokenB",
					"type": "address"
				},
				{
					"internalType": "uint256",
					"name": "truePriceTokenA",
					"type": "uint256"
				},
				{
					"internalType": "uint256",
					"name": "truePriceTokenB",
					"type": "uint256"
				},
				{
					"internalType": "uint256",
					"name": "liquidityAmount",
					"type": "uint256"
				}
			],
			"name": "getLiquidityValueAfterArbitrageToPrice",
			"outputs": [
				{
					"internalType": "uint256",
					"name": "tokenAAmount",
					"type": "uint256"
				},
				{
					"internalType": "uint256",
					"name": "tokenBAmount",
					"type": "uint256"
				}
			],
			"stateMutability": "view",
			"type": "function"
		},
		{
			"inputs": [
				{
					"internalType": "uint256",
					"name": "truePriceTokenA",
					"type": "uint256"
				},
				{
					"internalType": "uint256",
					"name": "truePriceTokenB",
					"type": "uint256"
				},
				{
					"internalType": "uint256",
					"name": "reserveA",
					"type": "uint256"
				},
				{
					"internalType": "uint256",
					"name": "reserveB",
					"type": "uint256"
				}
			],
			"name": "getReservesAfterArbitrage",
			"outputs": [
				{
					"internalType": "uint256",
					"name": "_reserveA",
					"type": "uint256"
				},
				{
					"internalType": "uint256",
					"name": "_reserveB",
					"type": "uint256"
				}
			],
			"stateMutability": "pure",
			"type": "function"
		},
		{
			"inputs": [
				{
					"internalType": "uint256",
					"name": "truePriceTokenA",
					"type": "uint256"
				},
				{
					"internalType": "uint256",
					"name": "truePriceTokenB",
					"type": "uint256"
				},
				{
					"internalType": "uint256",
					"name": "reserveA",
					"type": "uint256"
				},
				{
					"internalType": "uint256",
					"name": "reserveB",
					"type": "uint256"
				}
			],
			"name": "getReservesAfterArbitrage2",
			"outputs": [
				{
					"internalType": "uint256",
					"name": "_reserveA",
					"type": "uint256"
				},
				{
					"internalType": "uint256",
					"name": "_reserveB",
					"type": "uint256"
				}
			],
			"stateMutability": "pure",
			"type": "function"
		}
	]
}